:020000040800F2
:10000000500B002051120008710300087303000810
:10001000770300087B0300087F030008000000004E
:100020000000000000000000000000008303000842
:10003000850300080000000087030008890300080A
:100040006B1200086B1200086B1200086B1200089C
:100050006B1200086B1200086B120008D305000831
:100060006B1200086B1200086B1200086B1200087C
:100070006B1200086B1200086B1200086B1200086C
:100080006B1200086B1200086B1200086B1200085C
:100090006B1200086B1200086B1200086B1200084C
:1000A0006B1200086B1200086B1200086B1200083C
:1000B0006B1200086B120008CF0200086B120008D8
:1000C0006B1200086B1200086B1200086B1200081C
:1000D0006B1200082B1200086B1200086B1200084C
:1000E0006B1200086B1200086B12000800F002F897
:1000F00000F090F80AA090E8000C82448344AAF132
:100100000107DA4501D100F085F8AFF2090EBAE82F
:100110000F0013F0010F18BFFB1A43F0010318473B
:10012000345F0000545F0000103A24BF78C878C1E3
:10013000FAD8520724BF30C830C144BF04680C60ED
:10014000704700000023002400250026103A28BF35
:1001500078C1FBD8520728BF30C148BF0B60704739
:100160006E2903F01280702903F05D81662904F086
:100170002483652904F02183672904F01E83612903
:10018000AFF3008003681B0A28BF41F08001692992
:1001900002F06486642902F06186752902F05E86A9
:1001A0006F2903F0EA80782903F02981E92903F017
:1001B0008580E42903F08280F52903F07F80EF2910
:1001C00003F0E780F82903F028810368DB0928BFE2
:1001D00041F08001632903F08F83732903F0948336
:1001E000E32903F09F83F32903F0A48300207047E1
:1001F0001FB503F0F1FB04000020002104F0F0F82B
:10020000401C60600020002104F0D4F8E0601FBDB5
:1002100010B510BD03F0B2FB1146FFF7E9FF00F087
:1002200009F803F08FFC03B4FFF7F2FF03BC03F0FF
:10023000D7FC000000F0AEFE00F098F900F0FEFCE4
:10024000002000F06CFA002000F077FA00F0CAFA03
:1002500042F20F71002000F0D9FD41F61F414FF42A
:10026000FA7000F075FE00F0C7F92FE02AA12E48C1
:1002700002F0B6FD10232C4A0021084600F030FCA5
:100280002A482BA10268284802F0AAFD1023264A1A
:100290001946002000F024FC29482AA102682248BF
:1002A00002F09EFD1023204A2021002000F018FCBF
:1002B000284829A102681C4802F092FD10231A4A1E
:1002C0003021002000F00CFC00F069FACEE710B5F8
:1002D0000121254802F0C7FC01281BD10121224839
:1002E00002F0D2FC114801682048006800F03AFD95
:1002F000184908601D4800681149086015480068E1
:1003000000F095F984B20121204600F0EEFD0020B6
:100310001649086010BD0000204D6F746F725F4376
:100320006F6E74726F6C000058000020080000208F
:1003300041696D5F53706565643A25336400000060
:10034000040000204163745F53706565643A25338F
:10035000640000000000002050776D5F64617461EC
:100360003B2535640000000000080040200000200C
:10037000704700BFFEE700BFFEE700BFFEE700BF1B
:10038000FEE7704770477047704700000CB50020CB
:10039000019000906C48006840F480306A49086021
:1003A00000BF6948006800F4003000900198401CCC
:1003B0000190009818B90198B0F5A06FF1D162488A
:1003C000006800F4003010B10120009001E000202E
:1003D00000900098012843D15C48006840F010006C
:1003E0005A4908600846006820F003000860084683
:1003F000006840F002000860534840685249486075
:100400000846406848600846406840F4806048609C
:100410000846406820F47C1048600846406840F474
:10042000E81048600846006840F08070086000BF2F
:100430004548006800F000700028F9D04248406844
:1004400020F00300404948600846406840F0020040
:10045000486000BF3C48406800F00C000828F9D113
:100460000CBD10B5FFF792FF10BD10B536480068FF
:1004700040F00100344908600846406834490840AB
:100480003149486008460068324908402E490860F2
:100490000846006820F4802008600846406820F480
:1004A000FE0048604FF41F008860FFF7DAFF4FF04E
:1004B00000602949086010BD10B50021002000220D
:1004C000214B5B6803F00C0121B1042906D00829F7
:1004D00028D107E0214B224C236027E01F4B204C02
:1004E000236023E0184B5B6803F47010164B5B68C5
:1004F00003F48032022303EB904022B9194B4343AB
:10050000174C23600DE0104B5B6803F4003323B1FC
:10051000144B4343124C236003E0104B4343104CF5
:10052000236003E00D4B0E4C236000BF00BF064B61
:100530005B68C3F303130C4CE15C094B1B68CB40B5
:10054000074C236010BD0000001002400020024054
:100550000000FFF8FFFFF6FE08ED00E000127A0051
:100560000C00002000093D00100000201FB50121F3
:10057000052001F0A9F90220ADF80C0003208DF848
:100580000E0048208DF80F0003A9194800F0E0FE86
:100590000121002000F0F2FF0220019000208DF8E0
:1005A000080008208DF8090001208DF80A0001A834
:1005B00002F07CFB07208DF8000000208DF8010080
:1005C0008DF8020001208DF80300684601F0E9FB78
:1005D0001FBD10B5022002F0CFFB012807D105484E
:1005E0000068401C03490860022002F0D6FB10BDE1
:1005F000000801402000002008B50121082001F07A
:1006000063F910208DF803004FF44070ADF800003E
:1006100003208DF802006946094800F099FE012088
:100620000849086000200849C1F8A40108BD014636
:10063000002901DD0A4600E04A42104670470000EA
:10064000000C0140A08121420080214210B52021F0
:10065000FB4800F02AFF1021F94800F028FF102184
:10066000F74800F022FF10BD10B52021F44800F03B
:100670001CFF2021F24800F01AFF10BD70B504469F
:1006800000251BE02021EE4800F011FF04F080005F
:1006900020B11021EA4800F008FF03E01021E848EB
:1006A00000F005FF2021E64800F0FFFE2021E4488D
:1006B00000F0FDFE6006040E681CC5B2082DE1DBEB
:1006C00070BD10B51021DE4800F0EFFE2021DC489F
:1006D00000F0EBFE1021DA4800F0E9FE2021D848B6
:1006E00000F0E5FE10BD70B505460C46FFF7E9FFCA
:1006F0007820FFF7C3FFFFF7B7FF1CB14020FFF7DB
:10070000BDFF02E00020FFF7B9FFFFF7ADFF28466D
:10071000FFF7B4FFFFF7A8FFFFF798FF70BD10B514
:1007200004461CB90021A620FFF7DDFF012C03D1F0
:100730000021A720FFF7D7FF10BD10B504463CB934
:100740000021C820FFF7CFFF0021A120FFF7CBFF3A
:10075000012C07D10021C020FFF7C5FF0021A020F8
:10076000FFF7C1FF10BD10B500218D20FFF7BBFFC3
:1007700000211420FFF7B7FF0021AF20FFF7B3FFE0
:1007800010BD10B500218D20FFF7ADFF0021102016
:10079000FFF7A9FF0021AF20FFF7A5FF10BD70B53F
:1007A00000241CE004F1B001C8B20021FFF79BFF58
:1007B00000210846FFF797FF00211020FFF793FF65
:1007C000002508E09F4901EBC501085D0121FFF705
:1007D0008AFF681CC5B2802DF4DB601CC4B2082CF3
:1007E000E0DB70BD70B500240CE0002506E00020C1
:1007F000944901EBC5010855681CC5B2802DF6DB94
:10080000601CC4B2082CF0DBFFF7C9FF70BD70B5E7
:100810000A46CE1701EB5676C6F3C703CE1701EB97
:100820005676F610A1EBC606F4B20122A240D5B26C
:10083000844A02EBC002D25C2A43824E06EBC00619
:10084000F25470BD70B50B46CE1701EB5676C6F369
:10085000C702CE1701EB5676F610A1EBC606F4B22E
:100860000123A340DDB2774B03EBC0039B5CDB436A
:10087000744E06EBC006B354724B03EBC0039B5C93
:100880002B43704E06EBC006B3546E4B03EBC00314
:100890009B5CDB436B4E06EBC006B35470BD2DE989
:1008A000F84F05460E4617469846002D0ADB802F66
:1008B00008DC002E06DBB8F1400F03DCBD4201DC92
:1008C000464501DDBDE8F88FBD420DD1002406E0AC
:1008D0003019C1B22846FFF79AFF601CC4B2A8EBDA
:1008E0000600A042F4DC30E046450CD1002406E0CE
:1008F0002919C8B23146FFF78AFF601CC4B2781BC1
:10090000A042F5DC21E0A8EB060000F0FF0A781B0E
:1009100000F0FF0B0AEB8A00400090FBFBF000F0B8
:10092000FF0900240EE004FB09F00A2190FBF1F01E
:100930003044C0B229190090C8B20099FFF767FF90
:10094000601CC4B2781BA042EDDC00BFBAE72DE901
:10095000F04306460F469046002544463BE03A1BCE
:10096000D1B27219D0B2FFF752FF3A1BD1B2721B4B
:10097000D0B2FFF74CFF3A19D1B2721BD0B2FFF7D9
:1009800046FF3A19D1B27219D0B2FFF740FF7A1977
:10099000D1B23219D0B2FFF73AFF7A1BD1B2321975
:1009A000D0B2FFF734FF7A1BD1B2321BD0B2FFF7BF
:1009B0002EFF7A19D1B2321BD0B2FFF728FF6D1C7F
:1009C00005FB05F004FB040008FB1809B9F1000F52
:1009D00001DD641E6D1E6000604308FB08F1884263
:1009E000BDDABDE8F0832DE9FF4F81B080460E46A9
:1009F0001C4600962046E31704EB5373DB10214698
:100A00004FEAE47C04EB5C7C4FEAEC0CA4EBCC0CEE
:100A1000BCF1000F02D04FF0010C01E04FF0000CD0
:100A20006344224604EBD27C4FEA6C0C03FB0CF3CC
:100A300003F0FF0B03982038C7B200254CE00000FC
:100A4000000801406C0000200C2C07D107EB470088
:100A5000C04901EB800010F805A014E0102C05D16E
:100A6000BD4800EB071010F805A00CE0182C07D1CA
:100A700007EBC700B94901EB800010F805A002E0C0
:100A800005B0BDE8F08F4FF000091FE00AF08000CC
:100A900020B131464046FFF7BAFE03E031464046FA
:100AA000FFF7D0FE4FEA4A604FEA106A701CC6B2E8
:100AB0000098301AA04205D1009E08F1010000F014
:100AC000FF0806E009F1010000F0FF09B9F1080F85
:100AD000DCDB00BF681CC5B25D45B5DB00BFCFE7FE
:100AE000F0B506460F4614461D4613E022782B4605
:100AF00039463046FFF777FF284605EBD07106EB05
:100B00006101CEB2C5F18000B04202DA0026B81C05
:100B1000C7B2641C2078202802DB20787E28E5DD1F
:100B2000F0BD10B50246012000E050430B1EA1F1BC
:100B30000104E1B2F9D110BD2DE9F04F06468A4615
:100B400091461F46099C00252CE0781B401EC1B22F
:100B50000A20FFF7E6FFB9FBF0F00A21B0FBF1F243
:100B600001FB1208B8F1000F0CD1A34604EBDB71B6
:100B7000491001FB0561C8B2234630225146FFF7F8
:100B800032FF0DE0A34604EBDB71491001FB056168
:100B9000C8B208F13001CAB223465146FFF723FF1D
:100BA000681CC5B2BD42D0DBBDE8F08F70B504460D
:100BB0000D4605F1B001C8B20021FFF794FD1021E8
:100BC00041EA14100021FFF78EFD04F00F0141F0FF
:100BD00001000021FFF787FD70BD2DE9F05F05469C
:100BE0000E4617469846DDF828B04FF00009CA4671
:100BF0000024E11704EB5171C910A4EBC10101B944
:100C000001E0601CC4B2344614E021462846FFF7D8
:100C1000CDFFAA460AE01BF809000121FFF763FD9A
:100C200009F101090AF1010000F0FF0ABA45F2DBFF
:100C3000601CC4B24445E8DBBDE8F09F08B5012163
:100C4000042000F041FE4FF49870ADF80000102031
:100C50008DF8030003208DF802006946404800F03B
:100C600077FB4FF498713E4800F01FFC0021AE2046
:100C7000FFF739FD00210846FFF735FD0021102060
:100C8000FFF731FD00214020FFF72DFD00218120DD
:100C9000FFF729FD0021CF20FFF725FD0021A1202E
:100CA000FFF721FD0021C820FFF71DFD0021A62030
:100CB000FFF719FD0021A820FFF715FD00213F20B7
:100CC000FFF711FD0021D320FFF70DFD002108469D
:100CD000FFF709FD0021D520FFF705FD0021802049
:100CE000FFF701FD0021D920FFF7FDFC0021F120D5
:100CF000FFF7F9FC0021DA20FFF7F5FC00211220B4
:100D0000FFF7F1FC0021DB20FFF7EDFC0021402084
:100D1000FFF7E9FC00212020FFF7E5FC002102207D
:100D2000FFF7E1FC00218D20FFF7DDFC00211420FE
:100D3000FFF7D9FC0021A420FFF7D5FC0021A62055
:100D4000FFF7D1FC0021AF20FFF7CDFCFFF74AFDF4
:100D500008BD0000BE470008324C000822520008BF
:100D6000000801402DE9F05F04460D46601B204954
:100D7000086020480068096808441E4908601C494A
:100D800009681D4A1268881A03F0BEFB81461B4899
:100D90000168484603F0D0FB07461648006803F098
:100DA000B3FB834616480168584603F0C5FB8146ED
:100DB0000F48006803F0A8FB8346124801685846B4
:100DC00003F0BAFB8246494603F020FB80463946D1
:100DD00003F01CFB064603F07BFB0B49086004484C
:100DE00000680549086008480068BDE8F09F0000F9
:100DF00034000020380000203C0000202C0000209F
:100E000028000020240000203000002030B589B0E8
:100E100004460D460121052000F056FD0121092060
:100E200000F052FD0121022000F05BFDC020ADF872
:100E3000200018208DF8230003208DF8220008A937
:100E4000384800F085FA0320ADF8200018208DF80E
:100E5000230003208DF8220008A9334800F078FA17
:100E600005A801F007FCADF81850ADF814400020BB
:100E7000ADF81A00ADF8160005A92C4801F0CEF81F
:100E80006020ADF804000120ADF806000020ADF8A8
:100E90000A00ADF80C0001A9244801F0FCF801A9F2
:100EA000224801F03AF901A9204801F083F901A98B
:100EB0001E4801F0CAF908211C4801F03BFD082139
:100EC0001A4801F040FD0821184801F049FD0821A9
:100ED000164801F04EFD0121144801F0FBFC0121F0
:100EE000124801F0F7FB09B030BD70B505460C465D
:100EF000012C03D129460D4801F084FE022C03D1B8
:100F000029460A4801F080FE032C03D129460748F0
:100F100001F07CFE042C03D12946044801F078FE40
:100F200070BD000000080140000C014000040040BA
:100F300008B51E208DF8000003208DF801008DF803
:100F4000020001208DF80300684600F02AFF08BD6A
:100F50003EB505460C460121042000F0C2FCFFF717
:100F6000E7FFADF80450ADF800400020ADF80200F6
:100F7000ADF806006946064801F050F80122114616
:100F8000034801F0C2FB0121014801F0A3FB3EBD73
:100F90000008004010B56FF0040000F04CFF2E4830
:100FA00000682E49B0FBF1F02D4908700846007822
:100FB00000EB4001C1EBC0104FF6FF7101EAC00029
:100FC0002849088010BD0146254A12784A434FF04F
:100FD000E0235A6100229A611A46126942F0010226
:100FE0001A6100BF4FF0E022106900F001021AB14F
:100FF00000F48032002AF5D04FF0E022126922F08E
:1010000001024FF0E0231A6100229A617047014605
:10101000144A12884A434FF0E0235A6100229A6131
:101020001A46126942F001021A6100BF4FF0E02235
:10103000106900F001021AB100F48032002AF5D0E4
:101040004FF0E022126922F001024FF0E0231A6112
:1010500000229A61704700000C00002000127A0004
:10106000400000204200002010B586B00446012157
:10107000042000F029FC0121880300F025FC182041
:101080008DF817004FF40070ADF8140003208DF8B0
:10109000160005A96B4800F05BF904208DF81700D5
:1010A0000002ADF8140003208DF8160005A965486C
:1010B00000F04EF901940020ADF810000C20ADF8BE
:1010C0000E000020ADF80C00ADF80A00ADF80800E5
:1010D00001A95D4800F09FFC01215B4800F027FD5D
:1010E000012240F22551584800F02DFD25208DF8B1
:1010F000000001208DF8030000208DF8010002207F
:101100008DF80200684600F04CFE06B010BD10B528
:1011100086B004460121042000F0D6FB01214804DA
:1011200000F0DFFB18208DF817000420ADF8140044
:1011300003208DF8160005A9424800F009F90420A3
:101140008DF817000820ADF8140003208DF8160064
:1011500005A93C4800F0FCF801940020ADF810000F
:101160000C20ADF80E000020ADF80C00ADF80A0020
:10117000ADF8080001A9354800F04DFC01213348C5
:1011800000F0D5FC012240F22551304800F0DBFC94
:1011900026208DF8000001208DF8030000208DF836
:1011A00001008DF80200684600F0FBFD06B010BD9E
:1011B0002DE9F04107460C46154600260DE014F8CF
:1011C000011B384600F020FD00BF4021384600F0EA
:1011D00089FD0028F9D0701C86B2AE42EFDBBDE875
:1011E000F0810FB430B5CBB0054601AC50A80090EB
:1011F0004FF4947101A8009B4F9A01F0D7FD002095
:1012000000900BE014F8011B284600F0FDFC00BF25
:101210004021284600F066FD0028F9D020780028FB
:10122000F0D14BB030BC5DF814FB10B540F2255145
:10123000054800F06DFD18B12021034800F05FFD66
:1012400010BD00000008014000380140004400408B
:101250000948804709480047FEE7FEE7FEE7FEE74A
:10126000FEE7FEE7FEE7FEE7FEE7FEE70448054986
:10127000054A064B704700006B040008ED000008AB
:1012800050050020500B0020500700205007002080
:1012900010B50446CC48844208D10121042000F056
:1012A0002DFB0021042000F029FB46E0C7488442C2
:1012B00008D10121082000F021FB0021082000F0C6
:1012C0001DFB3AE0C248844208D10121102000F001
:1012D00015FB0021102000F011FB2EE0BD488442D8
:1012E00008D10121202000F009FB0021202000F07E
:1012F00005FB22E0B848844208D10121402000F0DB
:10130000FDFA0021402000F0F9FA16E0B3488442CB
:1013100008D10121802000F0F1FA0021802000F0A6
:10132000EDFA0AE0AE48844207D10121801500F0B1
:10133000E5FA0021A01500F0E1FA10BD10B5012179
:10134000084600F0DBFA0021012000F0D7FA10BDBA
:101350002DE9F0410246002500260020002300244C
:10136000002791F803C00CF00F0591F803C00CF0B2
:10137000100CBCF1000F03D091F802C04CEA050537
:1013800091F800C0BCF1000F31D0146800202BE0B0
:101390004FF0010C0CFA00F3B1F800C00CEA0306A0
:1013A0009E4220D183004FF00F0C0CFA03F7BC4390
:1013B00005FA03FC4CEA040491F803C0BCF1280FC1
:1013C00006D14FF0010C0CFA00FCC2F814C00AE080
:1013D00091F803C0BCF1480F05D14FF0010C0CFA95
:1013E00000FCC2F810C0401C0828D1D31460B1F82A
:1013F00000C0BCF1FF0F34DD546800202EE000F186
:10140000080C4FF0010808FA0CF3B1F800C00CEA20
:1014100003069E4221D183004FF00F0C0CFA03F714
:10142000BC4305FA03FC4CEA040491F803C0BCF188
:10143000280F05D100F1080C08FA0CF8C2F8148046
:1014400091F803C0BCF1480F07D100F1080C4FF030
:10145000010808FA0CF8C2F81080401C0828CED306
:101460005460BDE8F0814FF6FF7101800221817068
:101470000421C17070470246002093680B400BB1F5
:10148000012000E0002070470146886880B2704764
:1014900002460020D3680B400BB1012000E0002081
:1014A00070470146C86880B270470161704741616A
:1014B00070470AB1016100E041617047C160704747
:1014C0004FF480320A43826181618261826982695C
:1014D000704702460020434B18684FF6807318404F
:1014E00040EA021008433F4B186070473E49C8610C
:1014F0007047F0B50A46002300240021002500F0C3
:101500000046B6F1004F02D1364EF16901E0354E8A
:101510007168C0F3034583B200F44016B6F5401F6E
:1015200008D121F070612F4E766826F070662D4F3D
:101530007E6012E000F48016B6F5801F06D1032607
:1015400006FA05F4A14341F0706106E0460D36014C
:1015500003FA06F6B14341F0706122B1460D36013F
:1015600003FA06F6314300F00046B6F1004F02D10F
:101570001C4EF16101E01B4E7160F0BD30B50022E0
:101580008B071C0F0F2303FA04F2164B08338C1041
:1015900053F824309343134C08348D1044F825300D
:1015A00023468C1053F824308C07240F00FA04F4DF
:1015B00023430C4C08348D1044F8253030BD0A49C3
:1015C000DC3108607047000000080140000C014059
:1015D000001001400014014000180140001C0140AF
:1015E000002001400000014000002042DF48006868
:1015F00040F00100DD49086008464068DC490840C9
:10160000DA49486008460068DA490840D749086066
:101610000846006820F4802008600846406820F4EE
:10162000FE0048604FF41F0088607047CF4909688A
:1016300021F48031CD4A11601146096821F48021DE
:101640001160B0F5803F03D0B0F5802F0ED106E0D9
:10165000C649096841F48031C44A116007E0C349B2
:10166000096841F4A021C14A116000E000BF00BF39
:10167000704710B501460022002300204A11012ABC
:1016800002D1BA4C236806E0022A02D1B74C236A81
:1016900001E0B64C636A01F01F02012494401C4033
:1016A0000CB1012000E0002010BD38B500200090F2
:1016B0000024002500BF3120FFF7DBFF054600981E
:1016C000401C00900098B0F5A06F01D0002DF2D022
:1016D0003120FFF7CEFF08B1012400E000242046AE
:1016E00038BD01460020A14A106820F0F80040EA09
:1016F000C10010607047A049086070470246002092
:101700009A4B586820F47C1042EA01031843974B27
:101710005860704798490866704701460020934A10
:10172000506820F003000843506070478F484068BD
:1017300000F00C007047014600208C4A506820F0F1
:10174000F00008435060704701460020874A506807
:1017500020F4E06008435060704701460020834A4F
:10176000506820F4605040EAC1005060704729B1D1
:101770007E4A527A02437D4B5A7204E07B4A527A87
:1017800082437A4B5A7270477B49D8310860704760
:1017900001460020754A506820F4404008435060DC
:1017A00070470021714A20321170704A82F820106F
:1017B000012802D004280AD104E001216B4A20321A
:1017C000117005E00521694A2032117000E000BF68
:1017D00000BF70476949086070476449096A01435E
:1017E000624A11627047654944390860704730B5F4
:1017F00000210022002400235C4D6D6805F00C01DF
:1018000021B1042905D0082923D105E05C4D0560EC
:1018100022E05B4D05601FE0544D6D6805F47012C9
:10182000524D6D6805F48034022505EB92421CB9D7
:10183000544D554305600BE04C4D6D6805F4003583
:101840001DB1504D5543056002E04D4D55430560B7
:1018500002E04B4D056000BF00BF444D6D6805F0D0
:10186000F0010909484D6B5C0568DD4045603F4D5E
:101870006D6805F4E061090A434D6B5C4568DD4025
:1018800085603A4D6D6805F46051C90A3E4D6B5C48
:101890004568DD40C560354D6D6805F44041890BF4
:1018A0003A4D6B5CC568B5FBF3F5056130BD29B1F8
:1018B0002E4A526902432D4B5A6104E02B4A526969
:1018C00082432A4B5A61704729B1284A92690243E0
:1018D000264B9A6104E0254A92698243234B9A6120
:1018E000704729B1214AD2690243204BDA6104E0F2
:1018F0001E4AD26982431D4BDA61704729B11B4AE7
:10190000D2680243194BDA6004E0184AD268824375
:10191000164BDA60704729B1144A12690243134B1F
:101920001A6104E0114A12698243104B1A61704730
:1019300012494039086070470F49C86470470B4925
:10194000C87170470948406A40F080700749486292
:10195000704701460020054A92680A400AB10120FA
:1019600000E0002070470149887270470010024073
:101970000000FFF8FFFFF6FE0000424280044242F2
:1019800000127A0000093D004400002054000020AD
:1019900010B50446FB48844209D101218803FFF7B2
:1019A000ADFF00214FF48040FFF7A8FF32E0F6487A
:1019B000844209D101214804FFF7ADFF00214FF413
:1019C0000030FFF7A8FF25E0F048844209D101214B
:1019D0008804FFF7A0FF00214FF48020FFF79BFF52
:1019E00018E0EB48844209D10121C804FFF793FFB6
:1019F00000214FF40020FFF78EFF0BE0E548844202
:101A000008D101210805FFF786FF00214FF480105F
:101A1000FFF781FF10BD2DE9F04786B005460E4661
:101A20000024A24600BFA1460027B08900B100BF34
:101A30002F462C8A4CF6FF700440F08804432C8219
:101A4000AC894EF6F3100440B0883189084371899F
:101A500008430443AC81AC8A4FF6FF400440B08990
:101A60000443AC8201A8FFF7C2FEC648874202D1F8
:101A7000DDF810A001E0DDF80CA0A88900F400401A
:101A800040B10AEBCA0000EB0A1031684900B0FB14
:101A9000F1F807E00AEBCA0000EB0A103168890090
:101AA000B0FBF1F86420B8FBF0F0040120096421D8
:101AB00001FB1089A88900F4004040B1322000EBFE
:101AC000C900B0FBF1F000F00700044308E0322049
:101AD00000EB09106421B0FBF1F000F00F000443AB
:101AE0002C8106B0BDE8F0874FF41651016000214B
:101AF0008180C18001810C21418100218181704759
:101B000010B502460020108A4FF2FF0318400B88E0
:101B10004C8823438C882343CC882343184310826A
:101B200010BD0021018041808180C180704721B1BA
:101B3000828942F40052828104E082894DF6FF736B
:101B40001A4082817047F0B5034600240026002524
:101B5000002040F66A17B94200D100BF1846C1F311
:101B6000421401F01F06012707FA06F5012C01D1E6
:101B70000C3004E0022C01D1103000E014301AB116
:101B800007682F43076002E00768AF430760F0BDB6
:101B90001AB1838A0B43838202E0838A8B43838258
:101BA0007047028A4FF6F0731A400282028A0A4393
:101BB0000282704782894FF2FF731A4082818289C4
:101BC0000A438281704721B1828942F002028281F8
:101BD00004E082894FF6FD731A4082817047028AC1
:101BE0004FF6DF731A400282028A0A43028270476C
:101BF00021B1028A42F48042028204E0028A4BF65A
:101C0000FF731A4002827047C1F308028280704756
:101C100001468888C0F308007047818941F00101BE
:101C200081817047028BD2B20283028B42EA012289
:101C300002837047028B02F47F420283028B0A43C5
:101C40000283704721B1828A42F02002828204E03E
:101C5000828A4FF6DF731A408282704721B1828AEE
:101C600042F01002828204E0828A4FF6EF731A403B
:101C70008282704721B1828A42F00802828204E0A7
:101C8000828A4FF6F7731A408282704721B18289A7
:101C900042F40042828103E08289C2F30E02828113
:101CA000704721B1828A42F40062828204E0828A13
:101CB0004FF2FF731A4082827047828A4FF6FB739D
:101CC0001A408282828A0A438282704721B1828AC4
:101CD00042F00202828204E0828A4FF6FD731A40CB
:101CE0008282704702460020B1F5007F00D100BF1C
:101CF00013880B400BB1012000E00020704701F475
:101D00000072B2F5007F00D100BFCA430280704765
:101D100070B50246002400230025002040F66A1614
:101D2000B14200D100BFC1F3421501F01F030126EB
:101D300006FA03F3012D02D19689334006E0022D05
:101D400002D1168A334001E0968A33400C120126F4
:101D500006FA04F41688344013B10CB1012000E0F7
:101D6000002070BD10B50022002340F66A14A14285
:101D700000D100BF0A1201249440A3B2DC430480C6
:101D800010BD000000380140004400400048004001
:101D9000004C00400050004031490143314A11607D
:101DA000704770B5002100230F22C47804B32D4C76
:101DB000246804F4E064C4F5E064210AC1F104037A
:101DC000CA40447804FA03F184781440214309019D
:101DD000254C0678A155047804F01F050124AC4079
:101DE00005786D11AD0005F1E025C5F8004109E069
:101DF000047804F01F050124AC401C4D06787611D0
:101E000045F8264070BD1A4A0A400243154B1B1F75
:101E10001A60704739B1134A121D12680243114B00
:101E20001B1D1A6006E00F4A121D126882430D4BFB
:101E30001B1D1A607047042808D14FF0E021096982
:101E400041F004014FF0E022116107E04FF0E02182
:101E5000096921F004014FF0E02211617047000090
:101E60000000FA050CED00E000E400E080E100E095
:101E700080FFFF1F10B50446FE48844208D10121AF
:101E8000C014FFF73BFD0021E014FFF737FDC4E06D
:101E9000B4F1804F08D101210846FFF73CFD002135
:101EA0000120FFF738FDB8E0F348844208D1012152
:101EB0000220FFF730FD00210220FFF72CFDACE0EF
:101EC000EE48844208D101210420FFF724FD0021BF
:101ED0000420FFF720FDA0E0E948844208D1012159
:101EE0000820FFF718FD00210820FFF714FD94E0FB
:101EF000E448844208D101211020FFF70CFD0021A5
:101F00001020FFF708FD88E0DF48844208D1012156
:101F10002020FFF700FD00212020FFF7FCFC7CE0E3
:101F2000DA48844208D101214014FFF7E7FC002180
:101F30006014FFF7E3FC70E0D548844209D1012129
:101F4000C804FFF7DBFC00214FF40020FFF7D6FCAC
:101F500063E0D048844209D101210805FFF7CEFC97
:101F600000214FF48010FFF7C9FC56E0CA488442B4
:101F700009D101214805FFF7C1FC00214FF40010F1
:101F8000FFF7BCFC49E0C548844208D1012140204C
:101F9000FFF7C1FC00214020FFF7BDFC3DE0C04839
:101FA000844208D101218020FFF7B5FC0021802068
:101FB000FFF7B1FC31E0BB48844208D10121801514
:101FC000FFF7A9FC0021A015FFF7A5FC25E0B64806
:101FD000844209D101210804FFF790FC00214FF44D
:101FE0008030FFF78BFC18E0B048844209D1012112
:101FF0004804FFF783FC00214FF40030FFF77EFC1C
:102000000BE0AB48844208D101218804FFF776FC3D
:1020100000214FF48020FFF771FC10BD00220288E0
:10202000944B98420ED0994B98420BD0B0F1804F10
:1020300008D0914B984205D0904B984202D0904BDB
:10204000984204D14FF68F731A404B881A438D4B38
:10205000984207D08C4B984204D04FF6FF431A4069
:10206000CB881A4302808B8883850B880385814B3C
:1020700098420BD0854B984208D08B4B984205D0A4
:102080008A4B984202D08A4B984201D10B7A038640
:1020900001238382704770B5002400220023058C41
:1020A0004FF6FE7635400584028C8388048B4FF60C
:1020B0008F752C40B51E2C400D882C43751E2A4070
:1020C0000D892A434D882A436A4DA8420BD06F4D93
:1020D000A84208D0744DA84205D0744DA84202D041
:1020E000734DA84213D14FF6F7752A404D892A4304
:1020F0004FF6FB752A408D882A434FF6FF652B402B
:102100004FF6FF552B408D892B43CD892B43838080
:102110000483CD888586028470BD70B500240022BA
:102120000023058C4FF6EF7635400584028C8388BA
:10213000048B48F6FF752C404FF6FF452C400D8868
:102140004FF6FF7606EA05252C434FF6DF752A4049
:102150000D8906EA05152A434D8806EA05152A4326
:10216000444DA84202D0494DA8421DD14FF67F757B
:102170002A404D894FF6FF7606EA05152A434FF6A9
:10218000BF752A408D8806EA05152A434FF6FF35AC
:102190002B404FF2FF752B408D8906EA85052B43B6
:1021A000CD8906EA85052B4383800483CD88058786
:1021B000028470BD70B5002400220023058C4FF608
:1021C000FF6635400584028C8388848B4FF68F75BB
:1021D0002C404FF6FC752C400D882C434FF6FF55D4
:1021E0002A400D894FF6FF7606EA05252A434D88D9
:1021F00006EA05252A431F4DA84202D0234DA842D6
:102200001DD14FF2FF752A404D894FF6FF7606EA41
:1022100005252A434FF6FF352A408D8806EA052515
:102220002A434EF6FF752B404DF6FF752B408D89E6
:1022300006EA05152B43CD8906EA05152B43838055
:102240008483CD888587028470BD70B50022002309
:102250000024058C4EF6FF7635400584038C848877
:10226000828B48F6FF752A404FF6FF452A400D88BD
:1022700020E00000002C0140000400400008004065
:10228000000C0040001000400014004000340140E9
:10229000004C014000500140005401400018004033
:1022A000001C00400020004000400140004401406C
:1022B000004801404FF6FF7606EA05252A434DF611
:1022C000FF752B400D8906EA05352B434D8806EA3C
:1022D00005352B43FA4DA84202D0FA4DA84208D149
:1022E0004BF6FF752C408D894FF6FF7606EA851573
:1022F0002C4384808283CD88A0F84050038470BD35
:10230000828B4FF2FF331A408283828B4FF6FF732A
:1023100003EA01231A4382837047F0B50C46154641
:10232000002200210026078C4EF6FF7C07EA0C07EE
:102330000784828B018C4FF6FF7707EA043640F65C
:10234000FF473A404FF6FF7707EA05273A434FF633
:10235000FF7707EA03373A43D94FB8420ED0D94F37
:10236000B8420BD0B0F1804F08D0D74FB84205D05B
:10237000D64FB84202D0D64FB84206D14DF6FF77BD
:10238000394046F48057394305E047F6FF57394056
:1023900044F48057394382830184F0BD828B4FF629
:1023A000F3731A408283828B0A4382837047F0B5AD
:1023B0000C461546002200210026078C4FF6FF6CC4
:1023C00007EA0C070784828B018C4FF6FF7707EA38
:1023D00004264FF60C773A404FF6FF7707EA0317CB
:1023E0002F433A43B64FB8420ED0B64FB8420BD047
:1023F000B0F1804F08D0B44FB84205D0B34FB842C7
:1024000002D0B34FB84206D14FF6FF57394046F4D9
:102410008077394305E04FF2FF57394044F4807725
:10242000394382830184F0BD028B4FF2FF331A409F
:102430000283028B4FF6FF7303EA01231A430283E0
:102440007047F0B50C461546002200210026078C87
:102450004FF6EF7C07EA0C070784028B018C4FF6DE
:10246000FF7707EA041640F6FF473A404FF6FF773A
:1024700007EA03373A434FF6FF7707EA05273A435F
:102480008F4FB8420ED08F4FB8420BD0B0F1804F73
:1024900008D08D4FB84205D08C4FB84202D08C4F37
:1024A000B84206D14FF6DF77394046F0100739437E
:1024B00005E04FF65F77394044F010073943028357
:1024C0000184F0BD028B4FF6F3731A400283028B36
:1024D0000A4302837047F0B50C46154600220021DE
:1024E000068C4FF6FE773E400684028B018C4FF639
:1024F0000C7632407E1C06EA03162E433243704EA1
:10250000B0420ED06F4EB0420BD0B0F1804F08D029
:102510006D4EB04205D06D4EB04202D06C4EB0420E
:1025200006D14FF6FD76314044F00106314305E017
:102530004FF6F576314044F00106314302830184C1
:10254000F0BD70B505460C465D4885420ED05D482D
:1025500085420BD0B5F1804F08D05B48854205D04D
:102560005A48854202D05A48854200D100E000BF57
:10257000208850B92389A28861882846FFF7ABFFDD
:10258000E1882846FFF79EFF25E0208804280AD12D
:102590002389A28861882846FFF753FFE1882846EF
:1025A000FFF742FF17E0208808280AD12389A28874
:1025B00061882846FFF7FBFEE1882846FFF7EEFE1C
:1025C00009E02389A28861882846FFF7A6FEE188F2
:1025D0002846FFF795FE70BD2DE9F04105460C46F3
:1025E00000260127608808B9022600E00026A0889E
:1025F000012801D1022700E001272088A0B9238902
:10260000A28861882846FFF766FFE1882846FFF721
:1026100059FF23893A4631462846FFF712FFE188E1
:102620002846FFF701FF13E02389A2886188284626
:10263000FFF707FFE1882846FFF7F6FE23893A46B1
:1026400031462846FFF747FFE1882846FFF73AFF63
:10265000BDE8F0810A884B881A438B881A43CB88DF
:102660001A430B891A434B891A438B891A43A0F8E2
:10267000442070474FF6FF71818000210180C180A6
:102680004180017270470021018041808180C180BA
:10269000018141818181C181704700210180418098
:1026A000012181800021C1800181704700210180CA
:1026B00041808180C180018141818181704700001A
:1026C000002C01400034014000040040000800409C
:1026D000000C004021B1028842F00102028004E0B7
:1026E00002884FF6FE731A400280704731B1B0F88D
:1026F000442042F40042A0F8442005E0B0F8442011
:10270000C2F30E02A0F8442070471AB183890B432C
:10271000838102E083898B43838170478182704784
:1027200041EA0203A0F8483070471AB183890B438D
:10273000838102E083898B438381704701894FF64F
:10274000F8721140018170470A46002101894FF655
:102750008F73194011430181704730B504460D460F
:1027600029462046FFF7F0FF208940F0070020812E
:1027700030BD2DE9F04104460D4616461F46602D3A
:1027800006D13B46012231462046FFF75AFE05E0BE
:102790003B46012231462046FFF79DFE2946204652
:1027A000FFF7D2FF208940F007002081BDE8F081CB
:1027B00030B50C4600210189C9B24FF6FF7505EA14
:1027C0000325154325432943018130BD2DE9F041FF
:1027D00005460E4617469846002443463A4631467B
:1027E0002846FFF7E5FF2C894FF6F870044044F0C7
:1027F00007044FF68F70044044F070042C81BDE84C
:10280000F081F0B504460D4616461F463B4632465B
:1028100029462046FFF7CCFF208940F480402081E4
:10282000F0BD0185828270470A46002101884FF67B
:102830008F731940114301807047F0B50C4615465F
:102840001E460021002200230189028B038C4FF6D3
:10285000F877394021434FF6FC473A4040F20117E0
:102860003A434FF6DD773B404FF6FF7707EA06170E
:102870002F433B43018102830384F0BD0A460021BC
:10288000018B4FF68F7319401143018370470A463D
:102890000021018B48F6FF7319404FF6FF7303EADE
:1028A00002231943018370470A460021818B4FF6AA
:1028B0008F7319401143818370470A460021818B31
:1028C00048F6FF7319404FF6FF7303EA02231943DA
:1028D0008183704721B1028842F08002028004E0C7
:1028E00002884FF67F731A400280704721B18288B8
:1028F00042F00402828004E082884FF6FB731A40A3
:102900008280704721B1828842F00802828004E010
:1029100082884FF6F7731A408280704721B182880F
:1029200042F00102828004E082884FF6FE731A4072
:10293000828070470A460021018B4FF6F7731940D9
:102940001143018370470A460021018B4FF2FF7348
:1029500019404FF6FF7303EA0223194301837047BE
:102960000A460021818B4FF6F7731940114381838A
:1029700070470A460021818B4FF2FF7319404FF6D2
:10298000FF7303EA02231943818370470A4600213B
:10299000018B4FF6FB7319401143018370470A46C0
:1029A0000021018B4FF6FF3319404FF6FF7303EA06
:1029B00002231943018370470A460021818B4FF699
:1029C000FB7319401143818370470A460021818BB4
:1029D0004FF6FF3319404FF6FF7303EA0223194302
:1029E000818370470A460021018B4FF67F7319409F
:1029F0001143018370470A460021018BC1F30E0188
:102A00004FF6FF7303EA02231943018370470A4616
:102A10000021818B4FF67F731940114381837047EA
:102A20000A460021818BC1F30E014FF6FF7303EAC2
:102A300002231943818370470A460021018C4FF617
:102A4000FD7319401143018470470A460021018C2F
:102A50004FF6F77319401143018470470A4600216D
:102A6000018C4FF6DF7319404FF6FF7303EA021330
:102A70001943018470470A460021018C4FF67F7389
:102A800019404FF6FF7303EA02131943018470479C
:102A90000A460021018C4FF6FF5319404FF6FF7391
:102AA00003EA02231943018470470A460021018C7E
:102AB0004FF2FF7319404FF6FF7303EA02231943E5
:102AC000018470470A460021018C4DF6FF731940BE
:102AD0004FF6FF7303EA023319430184704730B5A0
:102AE000002301248C40A3B2048C9C430484048CF6
:102AF00002FA01F5ADB22C43048430BD30B5002399
:102B000004248C40A3B2048C9C430484048C02FAF9
:102B100001F5ADB22C43048430BD70B503460020EE
:102B200000241846183001258D40ACB21D8CA543F9
:102B30001D8409B1082909D100EB6100056825F061
:102B4000700505600568154305600EE00D1FC5F3AF
:102B50004E052844056825F4E045056005684FF6F4
:102B6000FF7606EA02263543056070BD21B1028872
:102B700042F00202028004E002884FF6FD731A4020
:102B80000280704721B1028842F00402028004E012
:102B900002884FF6FB731A400280704721B1828889
:102BA00042F08002828004E082884FF67F731A40F0
:102BB0008280704702884FF6F7731A4002800288BD
:102BC0000A430280704782884FF68F731A408280D2
:102BD00082880A438280704702894FF6F8731A4050
:102BE000028102890A430281704702894FF67F738E
:102BF0001A40028102890A4302817047818470472A
:102C0000818570478186704701877047818770474B
:102C1000A0F84010704702884FF6FF431A40028028
:102C200002880A43028070470146888E7047014639
:102C3000088F70470146888F70470146B1F8400001
:102C400070470146888C70470146088D70470246E0
:102C50000020138A0B400BB1012000E000207047D8
:102C6000CA430282704730B5024600200023002488
:102C7000158A05EA0103958905EA010413B10CB12F
:102C8000012000E0002030BDCA43028270470000EE
:102C9000002044490860091D0860091D0860091DDD
:102CA000086041483F4914310860704700213D49A0
:102CB0008279002A3AD00A46126803689A430B4682
:102CC0001A600A1D126803689A430B1D1A60027984
:102CD00011440A6803681A430A60324A08321268CB
:102CE00003689A432F4B08331A601A1D1268036851
:102CF0009A432C4B0C331A604279102A0ED11A1FBA
:102D0000126803681A43274B08331A601A1D1268A9
:102D100003681A43234B0C331A600DE021494279B2
:102D200011440A6803681A430A6005E002791144F5
:102D30000A6803689A430A607047002101600171C4
:102D40000C214171002181717047164910310968C9
:102D50000143144A10321160704701460020114AA5
:102D6000143212680A400AB1012000E000207047C6
:102D70000C49143108607047014600200022094BBD
:102D80001B6803EA0102074B14331B680B4013B1A5
:102D90000AB1012000E000207047024914310860A8
:102DA0007047000000040140FFFF0F007CB51D4686
:102DB00016460C00009001D02044401E074B7B4477
:102DC0002A4669460190304600F0F9F905461CB1E3
:102DD0000020694600F006FA28467CBD2D0400005C
:102DE0000FB41CB5084B06AA7B44694600900598B1
:102DF00000F0E5F904460020694600F0F3F92046AA
:102E00001CBC5DF814FB0000F903000070B504461B
:102E100085690068C10601D5302600E02026C0077C
:102E200007D070BDD4E9012130469047206A401C8C
:102E300020626D1EF6D570BD70B5044685690078B8
:102E4000C00707D170BDD4E9012120209047206A36
:102E5000401C20626D1EF6D570BD00002DE9F041CA
:102E60000646002410687529314616A510D000F0DA
:102E7000F8F8002802DA404213A507E031688A0713
:102E800001D512A502E0490704D511A5012401E0EE
:102E900000F0F0F800210A2206F1240709E0B0FB57
:102EA000F2FCB0FBF2F302FB1C0030307854184601
:102EB000491C0028F3D123462A463046BDE8F0419C
:102EC00000F00AB9000000002D0000002B000000F7
:102ED000200000002DE9F05F894604464FF0000A0B
:102EE000DFF874B1FB44C0F820A02046E1688847B1
:102EF000002874D0252806D0D4E901219047206A03
:102F0000401C2062F1E700265F462046E1688847C2
:102F10002028054607DB312D05D2781910F8200C42
:102F200008B10643F1E7B00701D526F00406C4F85E
:102F30001CA00027C4F818A02A2D09D0284601F0AB
:102F400032FA38B304EB8708303DC8F8185019E05E
:102F500059F8041B204604EB87029161E168884719
:102F6000012F054618D1E069002820DA26F0200656
:102F70001DE0D8F8180000EB800005EB4000303869
:102F8000C8F818002046E1688847054601F00BFAAA
:102F90000028EED1012F0AD02E2D08D12046E1685D
:102FA00088477F1C0546022F46F02006C4DBA06937
:102FB000002803DA404246F00106A061F00701D084
:102FC00026F010066C2D0BD0682D09D04C2D39D071
:102FD0006A2D35D0742D35D07A2D33D016E038E0F7
:102FE000E1682F4620468847B842054609D16C2F34
:102FF00026D04FF48060E1680643204688470546A6
:1030000004E06C2F1AD04FF4807006430DB3A5F185
:103010004100192802D8203546F400664A46294660
:10302000204626604E46FDF79BF880B101280BD064
:10303000F61D26F0070000F1080956E74020E4E7F6
:103040008020D8E70020D6E706F104094DE728469E
:1030500052E7206ABDE8F09F963000007047704745
:10306000704709684A0501D540B27047C905FCD5CB
:1030700000B2704709684A0501D5C0B27047C9055A
:10308000FCD580B2704770B50C460546012A05D0C4
:103090002878800600D5EA69002302E0012305E0D4
:1030A0005B1C934202D2E05C0028F9D1A869E618C3
:1030B000C01AA861286A184428622846FFF7A6FEAD
:1030C00004E0D5E9012114F8010B9047B442F8D38C
:1030D0002846FFF7B1FE70BD2DE9F0470D46994631
:1030E0009246044600F124080168880604D5E06988
:1030F00021F01001216000E00120A84201DD471B02
:1031000000E00027A1697A1902EB0900081AA06102
:103110002078C00602D42046FFF778FE002608E09B
:10312000D4E901211AF806009047206A401C761C59
:1031300020624E45F4DB2078C0060AD52046FFF712
:1031400065FE06E0D4E9012130209047206A401C4A
:103150002062381EA7F10107F4DC07E0D4E9012161
:1031600018F805009047206A401C2062281EA5F12F
:103170000105F3DC2046FFF75FFE2078000602D54C
:103180000220BDE8F0870120FBE711680268006AB1
:10319000530501D508700AE0D30501D5088006E083
:1031A000130603D5C217C1E9000200E00860012040
:1031B0007047000001694A1C02610878704700B539
:1031C0008FB0CDE901310021059105497944CDE960
:1031D000031011466846FFF77DFE0FB000BD0000EA
:1031E000E5FFFFFF0A6802F8010B0A607047D1E9AA
:1031F00000239A4202D2531C0B60107070470000EB
:103200002DE9FF5F15468A460446DFF8AC80F84496
:103210000027D8E900103E46CDE9001010E03AF84A
:1032200016106A4602A800F089FB411C07D02178DD
:10323000890603D5E269391891420DD80744761CF6
:103240002078800602D5E069B84205DDAE42E6DBB3
:103250003AF816000028E2D1A069C01BA061204600
:10326000FFF7D4FDD8E90010CDE90010002017E0E9
:103270003AF818106A4602A800F060FBB0F1FF3F70
:1032800081460BD000250DF1080B05E0D4E90121A2
:103290001BF8050090476D1C4D45F7D308F1010060
:1032A000B0428046E4DB206A384420622046FFF7C3
:1032B000C3FDBDE8FF9F00007E2D00002DE9F04119
:1032C0008046D21D22F007020025D2E90002F5292E
:1032D00015A614D0011E72F1000106DA0023D0EB0E
:1032E000030063EB020211A608E0D8F800108B0778
:1032F00001D50FA602E0490701D50EA6012511460A
:10330000002408F1240704E000F098F830323A5520
:10331000641C50EA0102F7D12B4632462146404652
:10332000BDE8F041FFF7D8BE000000002D0000000E
:103330002B0000002000000030B4002100F1240424
:1033400008E002F00705D208303542EA4372DB0894
:103350006554491C52EA0305F3D10468002310A206
:10336000250707D5A40600D421B1C46901230DA205
:10337000641EC46130BCFFF7AFBE10B504462146E1
:103380001068FFF777FE02462046BDE81040002394
:10339000D2E7D21D22F00701D1E90023CCE70000DB
:1033A0000000000030000000F0B40D46018809055F
:1033B00002D5214C7C4402E01F4C7C440E34002199
:1033C00000F1240608E002F00F071209E75D42EA67
:1033D00003721B097754491C52EA0307F3D10278A0
:1033E0000023120704D5702D06D009B10223113431
:1033F0002246F0BCFFF770BE01231034F8E770B529
:1034000004460D4621461068FFF734FE0246294661
:103410002046BDE870400023C6E7D21D22F0070316
:10342000D3E90023C0E70368126843F02003036078
:103430000823C3610023B7E7E02B000030B5B0F1EB
:103440000A024FEA900E71F100034EEA817EB0EB62
:103450000E0061EB91014FEA101E4EEA017E10EB67
:103460000E0041EB11114FEA102E4EEA016E10EBE7
:103470000E0041EB11214FEA104E4EEA014E10EBC7
:103480000E0041EB1141401841F100014FEAD0001C
:1034900040EA41704FEAD10110EB80054FEA810408
:1034A00044EA907444EB01046D1944EB0404521B8C
:1034B000A3414FF0000348BF0A3200D530BD401C85
:1034C00041F1000130BD70472DE9FF4F0C461E460B
:1034D0004FF0FF378BB0D2E90001DDF860800A9031
:1034E0008A46C1F30A5505B93D46002108464FF00A
:1034F0000000BAF1000F00F4400005DA00EB800094
:103500004FF4400101EA50004FEA9059B9F1010F20
:1035100000DDB9460A9850EA4A000ED044F6105031
:10352000A5F2FF3545432F14B8F1000F1ED07542A8
:10353000291E1EDDC9F100021CE0B8F1010F4FF099
:10354000000001D0302103E0F24305E02154401C8B
:10355000B042FBDB30460022002121540B99C1F818
:103560000880C1E900200FB0BDE8F08FBD1B6D1CC5
:10357000DEE74A4600DA694206A800F071FA06ABB7
:1035800093E8070003AB83E8070050460A9900F070
:103590002EFB8DE80700A0F500501F38009003981F
:1035A000002D0ADD42F21F014A460844002303A908
:1035B0000390684600F097FD09E0A0F500504A46E8
:1035C0001F38002303A90390684600F0A1FD8DE891
:1035D00007000004000C03D04FF0FF30410800E06A
:1035E0001046B8F1000F03D00022009215461EE0ED
:1035F000751E05D4FFF722FF303262556D1EF9D5D6
:10360000B3460122084302D000227F1C04E0207848
:10361000302801D100227F1E002A099784D01DE0A6
:10362000112D07DAFFF70AFF303262556D1C50EAA0
:103630000102F5D1084302D00098C8B10EE0002184
:10364000681E05E0235C625C63542254401E491CE2
:103650008142F7DBAB46A81B401E0990002004F80E
:103660000B000B98099AC0F80880C0E9002B7AE794
:1036700011264FF0000857E72DE9F04F8846044621
:10368000D21D22F0070191B0D1E90001CDE90A0174
:1036900000F075FE02460B98C00F01D02D2007E008
:1036A0002068810701D52B2002E0202101EAC0001B
:1036B000032A099001D0072A05DB0346414620462C
:1036C00000F08EF90BE12078800601D5E06900E07A
:1036D0000620B8F1650F814606D0B8F1660F18D004
:1036E000B8F1670F70D131E00020B9F1110F0090EF
:1036F00001DB112301E009F101030AAA01A90CA8C9
:10370000FFF7E2FEDDE90C70002609F101058346B2
:1037100047E001204B4600904FF000470AAA01A95C
:103720000CA8FFF7D1FEDDE90DB00C995D4600262F
:1037300010B909F101000D18B9EB050003D4C0F16F
:10374000FF3609F10105A5EB09002BE0B9F1010FE6
:1037500001DA4FF001090020B9F1110F009048463D
:1037600001DD112300E003460AAA01A90CA8FFF716
:10377000ABFEDDE90C704D4600268346207800073D
:103780000AD4AB4500DA5D4601A8012D04DD4119DC
:1037900011F8011C302907D04F4502DA17F1040F48
:1037A00004DA012082460FE06D1EEEE7002F02DCF6
:1037B000ED1B3E4403E0781CA84200DD7D1CB81BD5
:1037C00000F1010A4FF000472078000703D4AA4512
:1037D00001DB4FF0FF3A0021B7F1004F0DF1430834
:1037E0008DF8431024D002202B23002F01DA7F42D2
:1037F0002D230A21021EA0F1010000DC5FB197FB1E
:10380000F1FC97FBF1F201FB1C7C17460CF1300C2C
:1038100008F801CDEEE7A8F1010003702188090541
:1038200001D5452100E06521A0F1010800F8011C47
:1038300009980FA9A1EB0807FF1D00B1012041194C
:1038400001EBEA70A1693844081A401EA061207893
:10385000C00602D42046FFF7D9FA099828B1D4E966
:1038600001219047206A401C20622078C00622D5A2
:103870002046FFF7CBFA1EE0002E04DBB34502DD45
:1038800001A8805D00E03020D4E901219047206A42
:10389000401C2062761CAAF101005FEA000A0AD1EE
:1038A00000F09AF8C0680168405CD4E901219047B3
:1038B000206A401C2062281EA5F10105DCDC07E01F
:1038C000D4E9012118F8010B9047206A401C2062BE
:1038D000381EA7F10107F3DC2046FFF7ADFA0320FD
:1038E00011B041E610B5436913B1AFF3008001E0B8
:1038F000FFF7C9FB012010BD127800F124010A7006
:1039000000224A700122EDE711684FF0FF32E9E72B
:1039100010B5436913B1AFF3008001E0FFF770FC0D
:10392000012010BD128800F1240182840022C2848B
:103930000122EDE711684FF0FF32E9E770B5164656
:103940000C46054600F040F8036893F80101012891
:1039500006D0FF2C0FD8185D68B101202C7070BD07
:10396000D3F807013246214603F2071303442846E1
:10397000BDE8704018474FF0FF3070BD754600F04D
:10398000EBF8AE4605006946534620F00700854631
:1039900018B020B5FDF76AFCBDE820404FF00006E6
:1039A0004FF000074FF000084FF0000B21F0070127
:1039B000AC46ACE8C009ACE8C009ACE8C009ACE86A
:1039C000C0098D467047000010B500F005F8001DD5
:1039D00010BD00BF0D0A0000004870470C05002014
:1039E0002DE9F0411F46044603260168072A01F429
:1039F000006004DB08B116A505E016A503E008B1D8
:103A000015A500E015A521F010002060A069C01EDA
:103A1000A0610FB1401EA0612046FFF7F7F94FB13A
:103A2000D4E9012138469047206A401C2062C01C1E
:103A3000206206E0206AFAE7D4E9012115F8010BBB
:103A40009047761EF8D22046FFF7F6F9BDE8F081E0
:103A50004E414E006E616E00494E4600696E660032
:103A60002DE9F047814616468AB0354878440DC89E
:103A70008DE80D0032487844801C03AC0DC884E802
:103A80000D0041F69B300844372190FBF1F290FB8A
:103A9000F1F5A5F1800501FB12041B3C02D564423F
:103AA000012000E00020DFF898A080460027FA44BB
:103AB000AAF1BE0A0EE0E0070AD03246684607EBDC
:103AC000470101230AEB810100F022FB8DE807008A
:103AD00064107F1C002CEED1194F7F44AE3F19E0DB
:103AE000E80715D007EB04100DF1180A90E80E0056
:103AF0008AE80E00C068F04201D198190890324659
:103B0000012306A903A800F003FB03AB83E8070029
:103B10006D10641C002DE3D14FF00103324669465D
:103B2000B8F1000F03A802D000F0DDFA01E000F0C8
:103B3000EFFAC9E90001C9F808200AB0BDE8F0872A
:103B4000CC25000010B50446AFF300802046BDE848
:103B50001040FCF768BB000000487047EC040020F0
:103B60004FF0013C50F8042B51F8043B9A4221D10C
:103B7000A2EB0C03934313EACC1317D150F8042B98
:103B800051F8043B9A4215D1A2EB0C03934313EA7C
:103B9000CC130BD150F8042B51F8043B9A4209D1B5
:103BA000A2EB0C03934313EACC13DBD04FF00000DD
:103BB000704700BFD01A01BAB1FA81F101F01801C3
:103BC00022FA01F0CB40C1F12001DBB2C0B2C01A31
:103BD0002CFA01F3D11A914311EAC311E6D17047CF
:103BE00001491820ABBEFEE72600020070475FEADD
:103BF000400C08BF91F0000F4FEA8C234FEAC1221E
:103C000043EA51514FEA1C5018BF00F5F0404FEA0B
:103C1000300018BF41F000415FEA6C5C00F0298081
:103C2000BCF1FF3F08BF40F080407047130C06BF57
:103C300012044FF0100C4FF0000C130E04BF1202D0
:103C40000CF1080C130F04BF12010CF1040C930FBC
:103C500004BF92000CF1020CD30F04BF52000CF110
:103C6000010C11464FF00002A0F11F00A0EB0C0068
:103C7000704711F0004F08BF704731F000413FF42A
:103C8000D5AF0B0C06BF09044FF0100C4FF0000C21
:103C90000B0E04BF09020CF1080C0B0F04BF090145
:103CA0000CF1040C8B0F04BF89000CF1020CCB0F3C
:103CB00004BF49000CF1010CCCF12003A0EB0C0077
:103CC00022FA03F302FA0CF241EA030100F10100C7
:103CD000704720F07F4C80EA030023F07F47ACEB75
:103CE000070303F57C5300F0004003F1FF032DE9C7
:103CF00080494FEA154B09B44FEA144325EA0B4EAD
:103D000024EA03480FF2042606EB132749083E78FD
:103D10005FEA320203FB0667C7F5000707FB06F6FA
:103D20004FEA54374FEAD64606F1020607FB066C07
:103D3000CCF1005C4FEA1C472CEA074C07FB06F469
:103D40000CFB06F504EB15464FEA961634BF00202F
:103D50004FF000404FEAD13706FB07FC4FEA1C4CFE
:103D60000CFB0BF7D21B03FB0CF761EB07010CFB01
:103D70000EF7B0EB074072EB17420CFB08F734BFAD
:103D8000A2EB0742B2EB074261EB17414FEA0C444A
:103D90004FEA910706FB07FC4FEA1C4C0CFB0BF7A4
:103DA000B0EBC74072EB573203FB0CF734BFA2EB0A
:103DB000C742B2EBC74261EB57310CFB0EF7B0EBD9
:103DC000C70072EB57720CFB08F734BFA2EBC702B7
:103DD000B2EBC70261EB5771039F4FEA816141EA81
:103DE000921104EBCC044FEAD1374FEA826206FB12
:103DF00007FC42EA90124FEA80604FEA1C4C0CFB31
:103E00000BF7D21B03FB0CF761EB07010CFB0EF762
:103E1000B0EB074072EB17420CFB08F734BFA2EB84
:103E20000742B2EB074261EB17414FEA8C554FEA6C
:103E3000910704EB9C2406FB07FC4FEA1C4C0CFB8F
:103E40000BF7B0EBC74072EB573203FB0CF734BFF4
:103E5000A2EBC742B2EBC74261EB57310CFB0EF746
:103E6000B0EBC70072EB57720CFB08F734BFA2EB44
:103E7000C702B2EBC70261EB577115EB4C254FEA55
:103E8000816141EA92114FEA82624FEAD13742EAF8
:103E9000901206FB07FC44F100044FEA80604FEAF1
:103EA0001C4C0CFB0BF7D21B03FB0CF761EB07015F
:103EB0000CFB0EF7B0EB074072EB17420CFB08F758
:103EC00034BFA2EB0742B2EB074261EB174115EB9F
:103ED0001C154FEA813141EA92414FEA823242EAAF
:103EE00090424FEA80304FEA0C7644F1000448EAF1
:103EF00003434EEA0B484FF0000EB2EB080C71EB97
:103F0000030724BF624639464EEB0E0E4FF0000BFE
:103F10000018524149414BEB0B0BB2EB080C71EB13
:103F200003077BF1000B24BF624639464EEB0E0EB1
:103F30004FF0000B0018524149414BEB0B0BB2EB19
:103F4000080C71EB03077BF1000B24BF6246394676
:103F50004EEB0E0E51EA020718BF46F0010616EBB3
:103F60000E7655F1000254F1000103D5BDE8890138
:103F7000BDE80088BDE88901BDE80048B619524196
:103F800041EB0101A3F10103704780807F7E7D7CBE
:103F90007B7A7978777676757473727171706F6EDB
:103FA0006E6D6C6C6B6A6A69686867666665646486
:103FB000636362616160605F5F5E5E5D5D5C5C5B10
:103FC0005B5A5A595958585757565655555554547F
:103FD000535352525251515050504F4F4F4E4E4DDD
:103FE0004D4D4C4C4C4B4B4B4A4A4A494949484829
:103FF0004847474747464646454545444444444369
:1040000043434342424242414141002B9C4630D40B
:1040100077002BD01CB54FEA370703B44FF01000E0
:104020004FF01001BAF1000F06D0BCF1000FDCBF59
:1040300040F0080040F008014FF000000FBCBDE860
:1040400010400BF1010BBBF1010F08BF5FEA17072E
:1040500022BF12F1010211F101014FF0004143F1C1
:10406000000300F0004043EA00007047F9D357080E
:10407000D0E746EA064613F1400F4FEA16461FDD29
:1040800013F1200FDFBF16430A46002120335B42A5
:10409000BED0C3F1200746EA064602FA07F74FEA08
:1040A000164646EA0706C3F1200722FA03F201FA90
:1040B00007F721FA03F14FF0000342EA0702A7E7EE
:1040C00046EA020646EA06464FEA164646EA010670
:1040D000BCBF46EA0646360C4FF000034FF0000224
:1040E0004FF0000194E72DE9804C9A46934670B456
:1040F00091E8380007C831EA400C48BF34EA430C65
:1041000003D5FFF7E6FDFFF780FFF0BCBDE8008CAC
:104110002DE9804C9A46934670B491E8380007C860
:1041200010F0804F08BF13F0804F03D100F005F866
:10413000FFF76BFFF0BCBDE8008C20F07F4780EA02
:10414000030023F07F4C07EB0C03A3F57C5300F036
:104150000040A3F1FE0392F0000F00F0B38095F051
:10416000000F00F077802DE901494FEA11404FEA36
:10417000144621EA004800FB06FC24EA064708FB37
:1041800006F607FB08F800FB07F718EB06484CEBB0
:10419000164C4FEA124B18EB07484FEA15464CEB0A
:1041A000174022EA0B4E0BFB06FC25EA06470EFBE6
:1041B00006F607FB0EFE0BFB07F71EEB064E4CEB5D
:1041C000164C4FF000061EEB074E4CEB174B18EB4E
:1041D0000B0840F1000018EB0E0B58EB000840F103
:1041E00000008F1A4FF000013CBFC943661B14BF8B
:1041F000B5EB040C00213CBFC943F61B4FEA174442
:104200004EEA8E0E27EA04454FEA1C4704FB07627C
:104210002CEA074C05FB07F70CFB05F604FB0CFC2E
:1042200016EB074642EB174216EB0C4642EB1C42DC
:104230001BEB060658EB0202414146EA9E0601D5F9
:10424000BDE80189B619524141EB0101A3F1010317
:10425000BDE801894FEA14454FEA114724EA0546B3
:1042600021EA074C05FB07F406FB07F70CFB06F1F8
:1042700005FB0CFC11EB074144EB17444FEA1247D6
:1042800011EB0C4144EB1C4422EA074C05FB07F2FE
:1042900006FB07F70CFB06F605FB0CFC16EB0746C6
:1042A00042EB174216EB0C4642EB1C456A1854F1E0
:1042B000000148BF7047B619524141EB0101A3F11B
:1042C0000103704795F0000F37D04FEA11424FEAD3
:1042D000144721EA024624EA074C02FB07F106FBD9
:1042E00007F70CFB06F402FB0CFC14EB074441EB54
:1042F00017414FEA154714EB0C4441EB1C4125EAEA
:10430000074C02FB07F506FB07F70CFB06F602FB62
:104310000CFC16EB074645EB174516EB0C4645EB38
:104320001C42121951F1000148BF7047B6195241A1
:1043300041EB0101A3F1010370474FEA14454FEA35
:10434000114724EA054621EA074C05FB07F106FB65
:1043500007F70CFB06F24FF0000605FB0CFC12EB16
:10436000074241EB174112EB0C4251EB1C4148BF95
:104370007047921841EB0101A3F101037047490016
:1043800050EAC12018BF04204A0D18BF40F00100B8
:1043900040F2FF72B2EB515F08BF40F0020001280B
:1043A00008BF0520704730380A2801D20120704725
:1043B0000020704710B500290AD00878002807D0DF
:1043C00005487844FFF7CCFB002801D0002010BD41
:1043D0000248784410BD0000B21C0000AA1C000076
:1043E00010B500290AD00878002807D0054878447D
:1043F000FFF7B6FB002801D0002010BD024878442A
:1044000010BD0000A21C00009A1C000090EA010FE1
:1044100048BF81F0004100F16281421A3CBF801A1E
:1044200089184FEAD0524FF07F4C1CEA410FA2EBA3
:10443000D15318BF9CEA026F00F03B804FF0004C54
:104440004CEA00204CEA012121FA03FC10EB0C0C91
:104450001ED202F1FF325FEA1C2040EBC25038BF8F
:1044600070471CF07F0F4FEA400C18BFBCF17F4F24
:1044700038BF7047C3F12003994008BF20F0010006
:10448000BCF17F4F38BF7047A0F1C04000F01BB9AE
:104490004FEA3C00000A40EBC25028BF1CF0FF0F5F
:1044A0004FEA400CE6D018BFBCF17F4F38BF7047D1
:1044B000EAE79CEA026F05D010EA5C0F08BF00F043
:1044C0000040704710B500F0B8F800BF64FBBE3E76
:1044D00041000B0ED3F19E0208D950F400034FEABD
:1044E000032323FA02F048BF4042704710B500F0A2
:1044F000A4F800BF49922480002070476FF000426A
:1045000082EA20007047000010F0004148BF40429E
:10451000B0FA80F310FA03F2C3F19D030BD051EA15
:10452000C35101EB1220530638BF704700F1010060
:1045300008BF20F0010070474FF47F0C1CEAD01236
:104540001EBF1CEAD11392EA0C0F93EA0C0F00F085
:10455000478090EA010F48BF42F480724FF0004C50
:104560004CEA00204CEA012102EB0302A0FB0113FC
:10457000A2F50002002918BF43F001035B0028BF29
:104580004FEA330342EB22425FEA132C4CEBC2505A
:104590002EBFBCEB436FB2F57C0F70474FEA036C44
:1045A000BCF1004F08BF20F00100B2F57C0F38BF0E
:1045B00070470BD582F0FF0212F5803FC8BF7047ED
:1045C00000F1C040D8BF00F00040704700F5000C7B
:1045D0005FEA4C0C48BF7047B0F1C04000F073B8C0
:1045E00090EA010F0CEAD11348BF42F48072624591
:1045F00038BF634504D280EA010000F000407047F4
:1046000010B500F01AF800BF8900013E00F007B8AD
:1046100000F009B85FEA410C5FEA1C6C08D080EA40
:10462000010000F050B85FEA400C5FEA1C6CF6D164
:104630004FF00040A0F5800070470EF1020E2EF002
:10464000030E5EF8044B244204D44FEA4102B2F157
:104650007F4F11D84FEA4003B3F17F4F0CD80ED1F2
:104660004FEAD07CB2F17F4F0CEB4C0C0CF1020CFA
:1046700008BF4CEBD17C04E04FF0080C01E04FEA9E
:10468000D17C0CEB4C0324FA03F404F00704B4F1DE
:10469000040C06D20EEB840CBDE810404CF0010C6B
:1046A0006047DFE80CF0070802024FF00040A0F579
:1046B000800010BD0846420018BFD2F1807288BF4A
:1046C00000F0004010BDFF2141EAD050C005704706
:1046D00090EA010F48BF81F000413FF59EAE421ABB
:1046E00004D882F00042A0EB020011444FEAD052FD
:1046F0004FF07F4C1CEA410FA2EBD15318BF9CEA4C
:10470000026F4AD04FF0004C4CEA00204CEA0121E5
:1047100021FA03FCB0EB0C0C0FD412F0FE0F36D0D4
:104720005FEA4C001DD5001240EBC25038BF704705
:104730001CF03F0F18BF70470BE0A2F101025FEAC7
:104740001C2040EBC25038BF70471CF07F0F18BFD1
:104750007047C3F12003994014BF401E20F00100B0
:10476000704780084FEA122308BF7047B0FA80FCF8
:10477000A2EB0C02CCF1280C60FA0CF093EA122F99
:1047800004BF00EBC25070474FEAC3707047130A72
:104790005FEADC1008BF7047F6E79CEA026F04D0BE
:1047A00010EA5C0F08BF0020704710B5FFF745FF07
:1047B00040DFF63E81F000407047FEF75DBF00002D
:1047C00000000000000000000000000000003F406A
:1047D00000000000000000003000400030004000F9
:1047E000000009000BC03D000BC03D00090018C0CF
:1047F00024407FE0224031800000180024C01B00CC
:104800000D803240018003801C4027401C800740FF
:1048100000401000600000000000000000000000E8
:10482000000000001F802040402000004020204069
:104830001F8000000000090006001F80060009001C
:104840000000040004003F80040004000000001089
:1048500000600000000000000000040004000400EC
:104860000400040000000000004000000000000000
:104870000000002001C006003800400000001F803A
:104880002040204020401F800000000010403FC01A
:1048900000400000000018C0214022402440184081
:1048A000000010802040244024401B8000000200B3
:1048B0000D0011003FC0014000003C802440244016
:1048C0002440238000001F80244024403440038083
:1048D00000003000200027C03800200000001B80AE
:1048E0002440244024401B8000001C0022C02240A1
:1048F00022401F800000000000000840000000006F
:104900000000000000000460000000000000000043
:1049100004000A001100208040400900090009003D
:1049200009000900000000004040208011000A003A
:1049300004001800200023402400180000001F80FD
:104940002040274029401F400000004007C0390098
:104950000F0001C0004020403FC0244024401B8085
:1049600000001F8020402040204030800000204078
:104970003FC0204020401F80000020403FC0244016
:104980002E4030C0000020403FC024402E003000A8
:1049900000000F00108020402240338002002040A1
:1049A0003FC0040004003FC02040204020403FC0E2
:1049B0002040204000000060202020203FC0200038
:1049C000200020403FC024400B0030C02040204049
:1049D0003FC020400040004000C03FC03C0003C03A
:1049E0003C003FC0000020403FC00C4023003FC0BF
:1049F00020001F802040204020401F8000002040D9
:104A00003FC024402400180000001F8021402140A6
:104A100020E01FA0000020403FC02440260019C015
:104A2000004018C024402440224031800000300063
:104A300020403FC020403000000020003F80004068
:104A400000403F80200020003E0001C007003800E9
:104A50002000380007C03C0007C03800000020409C
:104A600039C0060039C0204000002000384007C08F
:104A7000384020000000304021C02640384020C08F
:104A80000000000000007FE0402040200000000007
:104A900070000C0003800040000000004020402017
:104AA0007FE0000000000000200040002000000027
:104AB0000000001000100010001000100010000096
:104AC00000004000000000000000000002800540DF
:104AD000054003C0004020003FC004400440038064
:104AE0000000000003800440044006400000000075
:104AF0000380044024403FC0004000000380054084
:104B0000054003400000000004401FC02440244032
:104B10002000000002E0055005500650042020400F
:104B20003FC00440040003C000400000044027C010
:104B300000400000000000100010041027E00000FA
:104B4000000020403FC00140070004C00440204056
:104B500020403FC000400040000007C0040007C0E4
:104B6000040003C00000044007C00440040003C068
:104B70000040000003800440044003800000041053
:104B800007F004500440038000000000038004404C
:104B9000045007F00010044007C002400400040065
:104BA0000000000006400540054004C00000000071
:104BB00004001F8004400040000004000780004003
:104BC000044007C000400400070004C00180060044
:104BD0000400060001C0070001C0060000000440F8
:104BE00006C0010006C0044000000410071004E0E5
:104BF0000180060004000000044005C00640044097
:104C000000000000000004007BE0402000000000E5
:104C100000000000FFF000000000000040207BE0EA
:104C20000400000000004000800040002000200040
:104C30004000000000000000000000000000000034
:104C400000000000000000001FCC000C000000006D
:104C50000000000008003000600008003000600024
:104C60000000022003FC1E20022003FC1E20022064
:104C7000000000000E1811043FFF10840C780000A3
:104C800000000F0010840F3800C0077818840078E7
:104C9000000000780F8410C411240E9800E40084F2
:104CA000000808006800700000000000000000001C
:104CB000000000000000000007E018182004400277
:104CC0000000000040022004181807E00000000067
:104CD00000000240024001800FF0018002400240CB
:104CE00000000080008000800FF8008000800080BD
:104CF00000000001000D000E000000000000000098
:104D000000000000008000800080008000800080A3
:104D100000800000000C000C0000000000000000FB
:104D20000000000000060018006001800600180066
:104D30002000000007F0080810041004080807F01D
:104D400000000000080408041FFC00040004000028
:104D5000000000000E0C10141024104411840E0CDE
:104D6000000000000C1810041104110412880C70CB
:104D70000000000000E00320042408241FFC00249D
:104D8000000000001F981084110411041088107096
:104D90000000000007F00888110411041888007052
:104DA000000000001C00100010FC13001C0010008C
:104DB000000000000E3811441084108411440E3895
:104DC000000000000700088C10441044088807F019
:104DD0000000000000000000030C030C00000000B5
:104DE00000000000000000010106000000000000BB
:104DF0000000000000800140022004100808100498
:104E000000000220022002200220022002200220B4
:104E10000000000010040808041002200140008077
:104E2000000000000E001200100C106C10800F002B
:104E3000000003E00C1813E4142417C4082807D05A
:104E400000000004003C03C41C40074000E4001CB8
:104E5000000410041FFC1104110411040E880070DA
:104E6000000003E00C1810041004100410081C10BB
:104E7000000010041FFC100410041004080807F0C0
:104E8000000010041FFC1104110417C410040818BA
:104E9000000010041FFC1104110017C010000800CE
:104EA000000003E00C181004100410441C780040AB
:104EB000000010041FFC10840080008010841FFC80
:104EC00010040000100410041FFC10041004000063
:104ED000000000030001100110011FFE100010006F
:104EE000000010041FFC110403801464181C10043B
:104EF000000010041FFC1004000400040004000C57
:104F0000000010041FFC1F0000FC1F001FFC100409
:104F1000000010041FFC0C04030000E010181FFC2C
:104F2000100007F00808100410041004080807F027
:104F3000000010041FFC10841080108010800F00EF
:104F4000000007F0081810241024101C080A07F2AB
:104F5000000010041FFC1104110011C011300E0CD0
:104F6000000400000E1C11041084108410441C382E
:104F700000001800100010041FFC1004100018009E
:104F8000000010001FF810040004000410041FF8B3
:104F9000100010001E0011E0001C007013801C00A7
:104FA00010001FC0103C00E01F0000E0103C1FC0BC
:104FB00000001004180C163401C001C01634180C7F
:104FC000100410001C00130400FC13041C0010004B
:104FD00000000804101C1064108413041C04101832
:104FE00000000000000000007FFE4002400240027E
:104FF0000000000030000C0003800060001C000373
:10500000000000004002400240027FFE000000005D
:105010000000000000002000400040004000200090
:105020000000000100010001000100010001000179
:1050300000010000400040002000000000000000CF
:10504000000000000098012401440144014400FCD8
:10505000000410001FFC0088010401040088007097
:1050600000000000007000880104010401040088B1
:1050700000000000007000880104010411081FFCFA
:105080000004000000F8014401440144014400C848
:1050900000000000010401040FFC110411041100C0
:1050A0001800000000D601290129012901C90106C3
:1050B000000010041FFC008401000100010400FC3A
:1050C000000400000104190419FC0004000400009D
:1050D00000000000000300010101190119FE000099
:1050E000000010041FFC0024004001B4010C010466
:1050F00000000000100410041FFC00040004000065
:105100000000010401FC0104010001FC0104010094
:1051100000FC010401FC008401000100010400FC0A
:105120000004000000F8010401040104010400F877
:105130000000010101FF00850104010400880070E6
:10514000000000000070008801040104010501FF57
:1051500000010104010401FC00840104010001803C
:105160000000000000CC0124012401240124019846
:10517000000000000100010007F801040104000024
:105180000000010001F8000400040004010801FC13
:105190000004010001800170000C0010016001801A
:1051A000010001F0010C003001C00030010C01F0E1
:1051B000010000000104018C00740170018C0104E5
:1051C0000000010101810171000E001801600180E1
:1051D000010000000184010C013401440184010C30
:1051E0000000000000000000000001003EFC400242
:1051F00040020000000000000000FFFF000000006F
:1052000000000000400240023EFC010000000000DF
:10521000000000006000800080004000400020008E
:10522000200000000000000000000000000000005E
:10523000000000000000000000000000000000006E
:10524000000000000000000000000000000000005E
:1052500000000000000F80380FFE380F803800007B
:10526000000000000000000000000000000000003E
:105270000100000600000C000038000031000006AC
:1052800000000C00003800003000000000000000AA
:10529000000061800067F807F9800061800061808C
:1052A0000061800061800067F807F980006180007C
:1052B000000000000000000001C0E003E0F0063044
:1052C000080418081FFFFE040E080787F00381E09A
:1052D00000000000000001F000060C0004040806B5
:1052E0000C7001F9C0000E00003BE000EC1807084C
:1052F00008040C180003E00000000001E00007F0C3
:1053000003F818041C0804170807E1D003C0E000E4
:1053100023B0003C0800200800001000000000003E
:10532000000100003100003200001C0000000000FD
:10533000000000000000000000000000000000006D
:10534000000000000000000000000000000000005D
:1053500000007F0001FFC00780F00C00181000045F
:105360002000020000000000002000021000040CD9
:1053700000180780F001FFC0007F0000000000005F
:1053800000000000000000000000000000004200DB
:10539000006600006600003C0000180003FFC0002B
:1053A0001800003C0000660000660000420000009B
:1053B00000000800000800000800000800000800C5
:1053C00001FFC000080000080000080000080000FD
:1053D0000800000000000001000031000032000061
:1053E0001C000000000000000000000000000000A1
:1053F000000000000000000000000800000800009D
:10540000080000080000080000080000080000086C
:10541000000008000008000000000000000000007C
:1054200000003800003800003800000000000000D4
:10543000000000000000000000000000000000006C
:105440000000000600001C000070000180000E003B
:1054500000380000C0000700001C00003000000001
:105460000000000000007F8001FFE0038070060064
:105470001804000804000806001803807001FFE00B
:10548000007F800000000000000000000100080113
:10549000000801000803FFF807FFF80000080000FB
:1054A0000800000800000000000000000001C038F3
:1054B00002C05804009804011804021804041806D5
:1054C0001C1803F81801E0F80000000000000000BC
:1054D0000001C0E003C0F004000804080804080844
:1054E00006180803F41801E7F00001E000000000CE
:1054F0000000000000000300000D0000110000612A
:105500000000810803010807FFF80FFFF8000108F9
:105510000001080000000000000000E007FCD006C9
:105520000808061008061008061008061838060FA6
:10553000F00607C0000000000000000000003F80EF
:1055400001FFE00384300208180410080410080466
:105550001008071810030FF00007C000000000003B
:105560000000000003C0000700000600000600F86D
:105570000607F806180006E0000700000600000015
:10558000000000000001E1E003F7F0063410041809
:1055900008041808040C08040C0806161803F3F095
:1055A00001C1E000000000000000F80003FC30032F
:1055B0000638040208040208040208040410030860
:1055C000F001FFC0007F00000000000000000000AC
:1055D000000000000000000000007038007038007B
:1055E0007038000000000000000000000000000013
:1055F0000000000000000000000000000000301A61
:1056000000301C000000000000000000000000004E
:10561000000000000000000000080000140000224C
:1056200000004100008080010040020020040010C2
:105630000800080000000000000021000021000018
:105640002100002100002100002100002100002194
:105650000000210000210000000000000000000008
:1056600008000804001002002001004000808000B3
:1056700041000022000014000008000000000000AB
:105680000003C00004C000040000080038080F3800
:105690000808380810000C300007E00003C00000C4
:1056A0000000000000003F8000FFE0038070020F58
:1056B0001006708804C088048308047F8802C090A4
:1056C00003012000FE400000080000180001F8005F
:1056D0003E0801C20007020007E20000FE00001FB2
:1056E000C80001F800003800000804000807FFF8AF
:1056F00007FFF80408080408080408080408080656
:10570000180803F41801E7F00001E00000000000B1
:1057100000003F8001FFE0038070020018040008D1
:105720000400080400080400100600200780C000E0
:10573000000004000807FFF807FFF8040008040051
:105740000804000804001802001003807001FFE044
:10575000007F8000000004000807FFF807FFF8043E
:105760000808040808040808040808043E0804009F
:105770000806001801006000000004000807FFF898
:1057800007FFF804080804080004080004080004DF
:105790003E0006000006000001800000000000003E
:1057A00000003F8001FFE00380700600180400083D
:1057B0000402080402080203F00783F0000200005C
:1057C000020004000807FFF807FFF80408080008B3
:1057D0000000080000080000080004080807FFF89F
:1057E00007FFF8040008000000000000040008049F
:1057F000000804000807FFF807FFF8040008040089
:10580000080400080000000000000000000000067E
:105810000000070000010400010400010400030768
:10582000FFFE07FFFC040000040000040000040069
:105830000807FFF807FFF8040C08001800003E00F6
:1058400004C7800503C80600F804003804001800E7
:10585000000804000807FFF807FFF804000800002C
:1058600008000008000008000008000008000018F8
:1058700000006000000004000807FFF80780080728
:10588000FC00007FC00003F80007C000780007801C
:105890000807FFF807FFF804000804000807FFF8EE
:1058A00007000803C00000E000003800001E0000F0
:1058B00007000001C00400F007FFF804000000002A
:1058C00000007F8001FFE0038070060018040008DC
:1058D00004000806001803003001FFE0007F80008C
:1058E000000004000807FFF807FFF8040408040498
:1058F00000040400040400040400060C0003F80083
:1059000001F000000000000000007F8001FFE003C4
:1059100080700600880400880400C806003C03006C
:105920003E01FFE6007F8400000004000807FFF846
:1059300007FFF8040808040800040C00040F000422
:105940000BC00610F003F03801E00800000800006A
:105950000001E0F803F030063010041808041808BD
:10596000040C08040C080206180207F00781E00086
:105970000000018000060000040000040000040094
:105980000807FFF807FFF8040008040000040000FF
:1059900006000001800004000007FFE007FFF0049C
:1059A00000180000080000080000080000080000BF
:1059B0000804001007FFE0040000040000060000D7
:1059C00007E00007FE00041FE00001F800003800B7
:1059D00001E0043E0007C0000600000400000400CF
:1059E0000007E00007FFC0041FF80007C007F80029
:1059F00007FF80043FF80007C004F8000700000418
:105A0000000000000004000806001807C07805F137
:105A1000C8003E00001F800463E80780F8060018F5
:105A200004000800000004000006000007800007D2
:105A3000E008047C08001FF80007F800180804E0DC
:105A40000807000006000004000000000001000834
:105A50000600380400F80403E8040F08047C080575
:105A6000F00807C0080700180400600000000000EC
:105A7000000000000000000000000000003FFFFEEA
:105A8000200002200002200002200002200002006C
:105A9000000000000000000008000007000000C037
:105AA000000038000006000001C000003000000EB9
:105AB00000000100000000000000000020000220A3
:105AC00000022000022000022000023FFFFE000032
:105AD00000000000000000000000000000000000C6
:105AE000000000080000100000300000200000301E
:105AF000000010000008000000000000000000008E
:105B0000010000010000010000010000010000018F
:105B10000000010000010000010000010000010080
:105B20000001000000000000000000200000200034
:105B30000010000010000000000000000000000045
:105B40000000000000000000000000F00019F80054
:105B50001B18002208002608002408002410003F1B
:105B6000F8001FF800000800001800000004000002
:105B700007FFF80FFFF000181800100800200800B9
:105B80002008003018001FF0000FC00000000000C7
:105B9000000007C0001FF000183000200800200897
:105BA000002008003C08001C1000006000000000FD
:105BB00000000000000007C0001FF000381800209F
:105BC0000800200800200804101007FFF80FFFF05D
:105BD0000000100000000000000000000007C000EE
:105BE0001FF00012300022180022080022080032A4
:105BF00008001E10000E2000000000000000200021
:105C000000200800200801FFF803FFF80620080420
:105C10002008042008072000030000000000000006
:105C20000000000E000E6E001FF30031B10020B125
:105C30000020B1003191001F13002E1E00200E0025
:105C4000300000000004000807FFF80FFFF8001004
:105C500008002000002000002008003FF8001FF886
:105C60000000080000000000000000000020080004
:105C70002008002008063FF8063FF8000008000052
:105C80000800000800000000000000000000000004
:105C90000000030000030020010020010020030693
:105CA0003FFE063FFC000000000000000000000076
:105CB0000004000807FFF80FFFF800018800030048
:105CC000002FC00038F8002038002008000008002D
:105CD00000000000000000000400080400080400A8
:105CE0000807FFF80FFFF800000800000800000890
:105CF000000000000000002008003FF8003FF8000E
:105D00001008002000003FF8003FF80010080020B5
:105D100000003FF8003FF8000008000000002008E5
:105D2000003FF8003FF800100800100000200000BD
:105D30002008003FF8001FF80000080000000000E5
:105D4000000007C0000FF0001830003008002008E5
:105D5000002008003008001830000FF00007C000D5
:105D60000000000000002001003FFF003FFF001086
:105D700011002009002008002008003038001FF022
:105D8000000FC00000000000000007C0001FF0006E
:105D90003818002008002008002009001011001FFA
:105DA000FF003FFF00000100000000200800200865
:105DB000002008003FF8003FF80008080010080025
:105DC000200800200000300000300000000000002B
:105DD00000000000000C78001E18003308002308A3
:105DE0000021080021880021980030F00038600070
:105DF000000000000000200000200000200000FF44
:105E0000F003FFF800200800200800200800003000
:105E1000000000000000000000002000003FF00033
:105E20007FF8000018000008000008002010003F64
:105E3000F8007FF0000010000000000000002000CB
:105E4000003000003C00003F800023F0000078009C
:105E50000070002380003C00003000002000002083
:105E600000003C00003FE00023F80000E0002700B5
:105E7000003E00003FE00021F80001E0003E00008D
:105E80002000000000002008002008003838003EF4
:105E9000680027800003C8002CF80038380020185C
:105EA0000020080000000000000020000030030077
:105EB0003C01003F830023EC000070002380003C85
:105EC0000000200000200000000000000000000092
:105ED0000038080020380020F80023E8002F880050
:105EE0003E08003808002018000070000000000084
:105EF000000000000000000000000000000008009A
:105F00000014001FF7FC3000062000020000000013
:105F10000000000000000000000000000000000081
:105F200000000000FFFFFF00000000000000000074
:105F3000000000000000000000000000200002300F
:105F400000061FF7FC00140000080000000000001D
:105F50000000000000000000000000000018000029
:105F60006000004000004000002000001000000819
:105F700000000400000400000C00001000000400F9
:105F800000080000000000000002000100001000F6
:105F90000000000000000000303132333435363765
:105FA000383941424344454640305800303132335D
:105FB000343536373839616263646566403078005D
:105FC00002400000000000A00000000005400000AA
:105FD000000000C8000000000C4000000000409CD1
:105FE00000000000194000000020BCBE00000000BE
:105FF00034400000BFC91B8E00000004B540000003
:10600000504BCFD06607E2CF010000006C4100008A
:106010003E8251AADFEEA73401000000D942000001
:10602000DCB5A0E23A301F97FFFFFFFFB445000048
:10603000FD25A0C8E9A3C14FFFFFFFFFFF3F000000
:106040000000008000000000FF3F00000000008012
:1060500000000000A06100080000002058000000BF
:1060600028010008F861000858000020F80A000024
:10607000440100081C00000043000000F8FFFFFF7F
:106080000C0000000E0000000F0000002E000000B9
:106090001001000043000000F8FFFFFF00404040F7
:1060A00040404040404041414141414040404040EB
:1060B0004040404040404040404040404005020297
:1060C0000202020202020202020202020220202056
:1060D00020202020202020020202020202029090B2
:1060E00090909090101010101010101010101010B0
:1060F0001010101010101010020202020202888804
:10610000888888880808080808080808080808080F
:1061100008080808080808080202020240000000F7
:10612000000000000000000000000000000000006F
:10613000000000000000000000000000000000005F
:10614000000000000000000000000000000000004F
:10615000000000000000000000000000000000003F
:10616000000000000000000000000000000000002F
:10617000000000000000000000000000000000001F
:10618000000000000000000000000000000000000F
:1061900000000000000000000000000000000000FF
:1061A00000000000000000003200000000A24A04CD
:1061B00000000000000000000102030406070809B7
:1061C0000000000000004842000040400000A040E5
:1061D00000000000000000000000000000000000BF
:1061E000000000000000000001020304010203049B
:0861F000060708090204060875
:04000005080000ED02
:00000001FF
