Component: ARM Compiler 5.06 update 6 (build 750) Tool: armlink [4d35ed]

==============================================================================

Section Cross References

    main.o(.text) refers to _printf_pad.o(.text) for _printf_pre_padding
    main.o(.text) refers to _printf_percent.o(.ARM.Collect$$_printf_percent$$00000000) for _printf_percent
    main.o(.text) refers to _printf_d.o(.ARM.Collect$$_printf_percent$$00000009) for _printf_d
    main.o(.text) refers to _printf_dec.o(.text) for _printf_int_dec
    main.o(.text) refers to delay.o(.text) for delay_init
    main.o(.text) refers to exti.o(.text) for Exit_Init
    main.o(.text) refers to oled.o(.text) for OLED_Init
    main.o(.text) refers to pwm.o(.text) for TIM3_PWM_Config_Init
    main.o(.text) refers to tim.o(.text) for TIM4_Init
    main.o(.text) refers to motor.o(.text) for Motor_Init
    main.o(.text) refers to __2sprintf.o(.text) for __2sprintf
    main.o(.text) refers to stm32f10x_tim.o(.text) for TIM_GetITStatus
    main.o(.text) refers to pid.o(.text) for PID_control
    main.o(.text) refers to main.o(.bss) for oledBuf
    main.o(.text) refers to main.o(.data) for aim_speed
    main.o(.text) refers to exti.o(.data) for Motor_Count
    system_stm32f10x.o(.text) refers to system_stm32f10x.o(.data) for SystemCoreClock
    exti.o(.text) refers to stm32f10x_rcc.o(.text) for RCC_APB2PeriphClockCmd
==============================================================================

Removing Unused input sections from the image.

    Removing oled.o(.data), (5176 bytes).
    Removing sys.o(.emb_text), (6 bytes).
    Removing sys.o(.text), (12 bytes).
    Removing core_cm3.o(.emb_text), (32 bytes).

4 unused section(s) (total 5226 bytes) removed from the image.

==============================================================================

Image Symbol Table

    Local Symbols

    Symbol Name                              Value     Ov Type        Size  Object(Section)

    ../clib/angel/boardlib.s                 0x00000000   Number         0  boardinit1.o ABSOLUTE
    ../clib/angel/boardlib.s                 0x00000000   Number         0  boardshut.o ABSOLUTE
    ../clib/angel/boardlib.s                 0x00000000   Number         0  boardinit3.o ABSOLUTE
    ../clib/angel/boardlib.s                 0x00000000   Number         0  boardinit2.o ABSOLUTE
    ../clib/angel/handlers.s                 0x00000000   Number         0  __scatter_zi.o ABSOLUTE
    ../clib/angel/handlers.s                 0x00000000   Number         0  __scatter_copy.o ABSOLUTE
    ../clib/angel/kernel.s                   0x00000000   Number         0  rtexit.o ABSOLUTE
    ../clib/angel/kernel.s                   0x00000000   Number         0  rtexit2.o ABSOLUTE
    ../clib/angel/kernel.s                   0x00000000   Number         0  __rtentry.o ABSOLUTE
    ../clib/angel/kernel.s                   0x00000000   Number         0  __rtentry2.o ABSOLUTE
    ../clib/angel/kernel.s                   0x00000000   Number         0  __rtentry4.o ABSOLUTE
    ../clib/angel/rt.s                       0x00000000   Number         0  rt_ctype_table.o ABSOLUTE
    ../clib/angel/rt.s                       0x00000000   Number         0  rt_locale_intlibspace.o ABSOLUTE
    ../clib/angel/rt.s                       0x00000000   Number         0  rt_locale.o ABSOLUTE
    ../clib/angel/rt.s                       0x00000000   Number         0  rt_raise.o ABSOLUTE
    ../clib/angel/scatter.s                  0x00000000   Number         0  __scatter.o ABSOLUTE
    ../clib/angel/startup.s                  0x00000000   Number         0  __main.o ABSOLUTE
    ../clib/angel/sys.s                      0x00000000   Number         0  indicate_semi.o ABSOLUTE
    ../clib/angel/sys.s                      0x00000000   Number         0  sys_stackheap_outer.o ABSOLUTE
    ../clib/angel/sys.s                      0x00000000   Number         0  use_no_semi.o ABSOLUTE
    ../clib/angel/sys.s                      0x00000000   Number         0  libspace.o ABSOLUTE
    ../clib/angel/sysapp.c                   0x00000000   Number         0  sys_exit.o ABSOLUTE
    ../clib/angel/sysapp.c                   0x00000000   Number         0  sys_command.o ABSOLUTE
    ../clib/angel/sysapp.c                   0x00000000   Number         0  sys_wrch.o ABSOLUTE
    ../clib/armsys.c                         0x00000000   Number         0  argv_veneer.o ABSOLUTE
    ../clib/armsys.c                         0x00000000   Number         0  no_argv.o ABSOLUTE
    ../clib/armsys.c                         0x00000000   Number         0  _get_argv_nomalloc.o ABSOLUTE
    ../clib/armsys.c                         0x00000000   Number         0  argv_veneer.o ABSOLUTE
    ../clib/bigflt.c                         0x00000000   Number         0  bigflt0.o ABSOLUTE
    ../clib/btod.s                           0x00000000   Number         0  btod.o ABSOLUTE
    ../clib/heapalloc.c                      0x00000000   Number         0  hrguard.o ABSOLUTE
    ../clib/heapaux.c                        0x00000000   Number         0  heapauxi.o ABSOLUTE
    ../clib/libinit.s                        0x00000000   Number         0  libinit2.o ABSOLUTE
    ../clib/libinit.s                        0x00000000   Number         0  libinit.o ABSOLUTE
    ../clib/libinit.s                        0x00000000   Number         0  libshutdown.o ABSOLUTE
    ../clib/libinit.s                        0x00000000   Number         0  libshutdown2.o ABSOLUTE
    ../clib/locale.c                         0x00000000   Number         0  _wcrtomb.o ABSOLUTE
    ../clib/locale.s                         0x00000000   Number         0  lc_numeric_c.o ABSOLUTE
    ../clib/locale.s                         0x00000000   Number         0  lc_ctype_c.o ABSOLUTE
    ../clib/longlong.s                       0x00000000   Number         0  lludiv10.o ABSOLUTE
    ../clib/memcpset.s                       0x00000000   Number         0  strcmpv7m.o ABSOLUTE
    ../clib/misc.s                           0x00000000   Number         0  printf_stubs.o ABSOLUTE
    ../clib/printf.c                         0x00000000   Number         0  _printf_charcount.o ABSOLUTE
    ../clib/printf.c                         0x00000000   Number         0  _snputc.o ABSOLUTE
    ../clib/printf.c                         0x00000000   Number         0  _printf_wctomb.o ABSOLUTE
    ../clib/printf.c                         0x00000000   Number         0  _printf_fp_infnan.o ABSOLUTE
    ../clib/printf.c                         0x00000000   Number         0  _printf_longlong_dec.o ABSOLUTE
    ../clib/printf.c                         0x00000000   Number         0  _printf_oct_ll.o ABSOLUTE
    ../clib/printf.c                         0x00000000   Number         0  _printf_oct_int.o ABSOLUTE
    ../clib/printf.c                         0x00000000   Number         0  _printf_oct_int_ll.o ABSOLUTE
    ../clib/printf.c                         0x00000000   Number         0  _printf_hex_int.o ABSOLUTE
    ../clib/printf.c                         0x00000000   Number         0  _printf_hex_int_ll.o ABSOLUTE
    ../clib/printf.c                         0x00000000   Number         0  _printf_hex_ptr.o ABSOLUTE
    ../clib/printf.c                         0x00000000   Number         0  _printf_hex_int_ptr.o ABSOLUTE
    ../clib/printf.c                         0x00000000   Number         0  _printf_hex_ll_ptr.o ABSOLUTE
    ../clib/printf.c                         0x00000000   Number         0  _printf_hex_int_ll_ptr.o ABSOLUTE
    ../clib/printf.c                         0x00000000   Number         0  _printf_wchar.o ABSOLUTE
    ../clib/printf.c                         0x00000000   Number         0  _printf_char.o ABSOLUTE
    ../clib/printf.c                         0x00000000   Number         0  __printf_nopercent.o ABSOLUTE
    ../clib/printf.c                         0x00000000   Number         0  _printf_char_common.o ABSOLUTE
    ../clib/printf.c                         0x00000000   Number         0  _printf_fp_dec.o ABSOLUTE
    ../clib/printf.c                         0x00000000   Number         0  _printf_hex_ll.o ABSOLUTE
    ../clib/printf.c                         0x00000000   Number         0  _sputc.o ABSOLUTE
    ../clib/printf.c                         0x00000000   Number         0  c89vsnprintf.o ABSOLUTE
    ../clib/printf.c                         0x00000000   Number         0  __2sprintf.o ABSOLUTE
    ../clib/printf.c                         0x00000000   Number         0  noretval__2sprintf.o ABSOLUTE
    ../clib/printf.c                         0x00000000   Number         0  __printf.o ABSOLUTE
    ../clib/printf.c                         0x00000000   Number         0  _printf_pad.o ABSOLUTE
    ../clib/printf.c                         0x00000000   Number         0  _printf_dec.o ABSOLUTE
    ../clib/printf.c                         0x00000000   Number         0  __printf_flags.o ABSOLUTE
    ../clib/printf.c                         0x00000000   Number         0  __printf_ss.o ABSOLUTE
    ../clib/printf.c                         0x00000000   Number         0  __printf_flags_ss.o ABSOLUTE
    ../clib/printf.c                         0x00000000   Number         0  __printf_wp.o ABSOLUTE
    ../clib/printf.c                         0x00000000   Number         0  __printf_flags_wp.o ABSOLUTE
    ../clib/printf.c                         0x00000000   Number         0  __printf_ss_wp.o ABSOLUTE
    ../clib/printf.c                         0x00000000   Number         0  __printf_flags_ss_wp.o ABSOLUTE
    ../clib/printf.c                         0x00000000   Number         0  _printf_truncate.o ABSOLUTE
    ../clib/printf.c                         0x00000000   Number         0  _printf_str.o ABSOLUTE
    ../clib/printf.c                         0x00000000   Number         0  _printf_intcommon.o ABSOLUTE
    ../clib/printf_percent.s                 0x00000000   Number         0  _printf_ls.o ABSOLUTE
    ../clib/printf_percent.s                 0x00000000   Number         0  _printf_c.o ABSOLUTE
    ../clib/printf_percent.s                 0x00000000   Number         0  _printf_u.o ABSOLUTE
    ../clib/printf_percent.s                 0x00000000   Number         0  _printf_llo.o ABSOLUTE
    ../clib/printf_percent.s                 0x00000000   Number         0  _printf_l.o ABSOLUTE
    ../clib/printf_percent.s                 0x00000000   Number         0  _printf_lli.o ABSOLUTE
    ../clib/printf_percent.s                 0x00000000   Number         0  _printf_i.o ABSOLUTE
    ../clib/printf_percent.s                 0x00000000   Number         0  _printf_llx.o ABSOLUTE
    ../clib/printf_percent.s                 0x00000000   Number         0  _printf_o.o ABSOLUTE
    ../clib/printf_percent.s                 0x00000000   Number         0  _printf_x.o ABSOLUTE
    ../clib/printf_percent.s                 0x00000000   Number         0  _printf_p.o ABSOLUTE
    ../clib/printf_percent.s                 0x00000000   Number         0  _printf_n.o ABSOLUTE
    ../clib/printf_percent.s                 0x00000000   Number         0  _printf_d.o ABSOLUTE
    ../clib/printf_percent.s                 0x00000000   Number         0  _printf_lld.o ABSOLUTE
    ../clib/printf_percent.s                 0x00000000   Number         0  _printf_percent_end.o ABSOLUTE
    ../clib/printf_percent.s                 0x00000000   Number         0  _printf_llu.o ABSOLUTE
    ../clib/printf_percent.s                 0x00000000   Number         0  _printf_a.o ABSOLUTE
    ../clib/printf_percent.s                 0x00000000   Number         0  _printf_ll.o ABSOLUTE
    ../clib/printf_percent.s                 0x00000000   Number         0  _printf_g.o ABSOLUTE
    ../clib/printf_percent.s                 0x00000000   Number         0  _printf_e.o ABSOLUTE
    ../clib/printf_percent.s                 0x00000000   Number         0  _printf_lc.o ABSOLUTE
    ../clib/printf_percent.s                 0x00000000   Number         0  _printf_s.o ABSOLUTE
    ../clib/printf_percent.s                 0x00000000   Number         0  _printf_percent.o ABSOLUTE
    ../clib/printf_percent.s                 0x00000000   Number         0  _printf_f.o ABSOLUTE
    ../clib/signal.c                         0x00000000   Number         0  defsig_rtmem_outer.o ABSOLUTE
    ../clib/signal.c                         0x00000000   Number         0  defsig_fpe_inner.o ABSOLUTE
    ../clib/signal.c                         0x00000000   Number         0  defsig_exit.o ABSOLUTE
    ../clib/signal.c                         0x00000000   Number         0  defsig_abrt_inner.o ABSOLUTE
    ../clib/signal.c                         0x00000000   Number         0  defsig_pvfn_inner.o ABSOLUTE
    ../clib/signal.c                         0x00000000   Number         0  defsig_stak_inner.o ABSOLUTE
    ../clib/signal.c                         0x00000000   Number         0  defsig_cppl_inner.o ABSOLUTE
    ../clib/signal.c                         0x00000000   Number         0  defsig_other.o ABSOLUTE
    ../clib/signal.c                         0x00000000   Number         0  defsig_rtred_inner.o ABSOLUTE
    ../clib/signal.c                         0x00000000   Number         0  __raise.o ABSOLUTE
    ../clib/signal.c                         0x00000000   Number         0  defsig_segv_inner.o ABSOLUTE
    ../clib/signal.c                         0x00000000   Number         0  defsig_rtmem_formal.o ABSOLUTE
    ../clib/signal.c                         0x00000000   Number         0  defsig_rtmem_inner.o ABSOLUTE
    ../clib/signal.c                         0x00000000   Number         0  defsig_general.o ABSOLUTE
    ../clib/signal.s                         0x00000000   Number         0  defsig.o ABSOLUTE
    ../clib/stdlib.c                         0x00000000   Number         0  exit.o ABSOLUTE
    ../fplib/faddsub.s                       0x00000000   Number         0  faddsub_clz.o ABSOLUTE
    ../fplib/ffix.s                          0x00000000   Number         0  ffix.o ABSOLUTE
    ../fplib/fflt.s                          0x00000000   Number         0  fflt_clz.o ABSOLUTE
    ../fplib/fmul.s                          0x00000000   Number         0  fmul.o ABSOLUTE
    ../fplib/fnaninf.s                       0x00000000   Number         0  fnaninf.o ABSOLUTE
    ../fplib/fpinit.s                        0x00000000   Number         0  fpinit.o ABSOLUTE
    ../fplib/fretinf.s                       0x00000000   Number         0  fretinf.o ABSOLUTE
    ../fplib/istatus.s                       0x00000000   Number         0  istatus.o ABSOLUTE
    ../fplib/printf1.s                       0x00000000   Number         0  printf1.o ABSOLUTE
    ../fplib/usenofp.s                       0x00000000   Number         0  usenofp.o ABSOLUTE
    ../mathlib/fpclassify.c                  0x00000000   Number         0  fpclassify.o ABSOLUTE
    ..\CORE\core_cm3.c                       0x00000000   Number         0  core_cm3.o ABSOLUTE
    ..\CORE\startup_stm32f10x_md.s           0x00000000   Number         0  startup_stm32f10x_md.o ABSOLUTE
    ..\HARDWARE\EXTI\exti.c                  0x00000000   Number         0  exti.o ABSOLUTE
    ..\HARDWARE\MOTOR\motor.c                0x00000000   Number         0  motor.o ABSOLUTE
    ..\HARDWARE\OLED\oled.c                  0x00000000   Number         0  oled.o ABSOLUTE
    ..\HARDWARE\PID\pid.c                    0x00000000   Number         0  pid.o ABSOLUTE
    ..\HARDWARE\PWM\pwm.c                    0x00000000   Number         0  pwm.o ABSOLUTE
    ..\HARDWARE\TIM\tim.c                    0x00000000   Number         0  tim.o ABSOLUTE
    ..\STM32F10x_FWLib\src\misc.c            0x00000000   Number         0  misc.o ABSOLUTE
    ..\STM32F10x_FWLib\src\stm32f10x_exti.c  0x00000000   Number         0  stm32f10x_exti.o ABSOLUTE
    ..\STM32F10x_FWLib\src\stm32f10x_gpio.c  0x00000000   Number         0  stm32f10x_gpio.o ABSOLUTE
    ..\STM32F10x_FWLib\src\stm32f10x_rcc.c   0x00000000   Number         0  stm32f10x_rcc.o ABSOLUTE
    ..\STM32F10x_FWLib\src\stm32f10x_tim.c   0x00000000   Number         0  stm32f10x_tim.o ABSOLUTE
    ..\STM32F10x_FWLib\src\stm32f10x_usart.c 0x00000000   Number         0  stm32f10x_usart.o ABSOLUTE
    ..\SYSTEM\delay\delay.c                  0x00000000   Number         0  delay.o ABSOLUTE
    ..\SYSTEM\sys\sys.c                      0x00000000   Number         0  sys.o ABSOLUTE
    ..\SYSTEM\usart\usart.c                  0x00000000   Number         0  usart.o ABSOLUTE
    ..\\CORE\\core_cm3.c                     0x00000000   Number         0  core_cm3.o ABSOLUTE
    ..\\SYSTEM\\sys\\sys.c                   0x00000000   Number         0  sys.o ABSOLUTE
    dc.s                                     0x00000000   Number         0  dc.o ABSOLUTE
    main.c                                   0x00000000   Number         0  main.o ABSOLUTE
    stm32f10x_it.c                           0x00000000   Number         0  stm32f10x_it.o ABSOLUTE
    system_stm32f10x.c                       0x00000000   Number         0  system_stm32f10x.o ABSOLUTE
    RESET                                    0x08000000   Section      236  startup_stm32f10x_md.o(RESET)
    !!!main                                  0x080000ec   Section        8  __main.o(!!!main)
    !!!scatter                               0x080000f4   Section       52  __scatter.o(!!!scatter)
    !!handler_copy                           0x08000128   Section       26  __scatter_copy.o(!!handler_copy)
    !!handler_zi                             0x08000144   Section       28  __scatter_zi.o(!!handler_zi)
    .ARM.Collect$$_printf_percent$$00000000  0x08000160   Section        0  _printf_percent.o(.ARM.Collect$$_printf_percent$$00000000)
    .ARM.Collect$$_printf_percent$$00000001  0x08000160   Section        6  _printf_n.o(.ARM.Collect$$_printf_percent$$00000001)
    .ARM.Collect$$_printf_percent$$00000002  0x08000166   Section        6  _printf_p.o(.ARM.Collect$$_printf_percent$$00000002)
    .ARM.Collect$$_printf_percent$$00000003  0x0800016c   Section        6  _printf_f.o(.ARM.Collect$$_printf_percent$$00000003)
    .ARM.Collect$$_printf_percent$$00000004  0x08000172   Section        6  _printf_e.o(.ARM.Collect$$_printf_percent$$00000004)
    .ARM.Collect$$_printf_percent$$00000005  0x08000178   Section        6  _printf_g.o(.ARM.Collect$$_printf_percent$$00000005)
    .ARM.Collect$$_printf_percent$$00000006  0x0800017e   Section        6  _printf_a.o(.ARM.Collect$$_printf_percent$$00000006)
    .ARM.Collect$$_printf_percent$$00000007  0x08000184   Section       10  _printf_ll.o(.ARM.Collect$$_printf_percent$$00000007)
    .ARM.Collect$$_printf_percent$$00000008  0x0800018e   Section        6  _printf_i.o(.ARM.Collect$$_printf_percent$$00000008)
    .ARM.Collect$$_printf_percent$$00000009  0x08000194   Section        6  _printf_d.o(.ARM.Collect$$_printf_percent$$00000009)
    .ARM.Collect$$_printf_percent$$0000000A  0x0800019a   Section        6  _printf_u.o(.ARM.Collect$$_printf_percent$$0000000A)
    .ARM.Collect$$_printf_percent$$0000000B  0x080001a0   Section        6  _printf_o.o(.ARM.Collect$$_printf_percent$$0000000B)
    .ARM.Collect$$_printf_percent$$0000000C  0x080001a6   Section        6  _printf_x.o(.ARM.Collect$$_printf_percent$$0000000C)
    .ARM.Collect$$_printf_percent$$0000000D  0x080001ac   Section        6  _printf_lli.o(.ARM.Collect$$_printf_percent$$0000000D)
    .ARM.Collect$$_printf_percent$$0000000E  0x080001b2   Section        6  _printf_lld.o(.ARM.Collect$$_printf_percent$$0000000E)
    .ARM.Collect$$_printf_percent$$0000000F  0x080001b8   Section        6  _printf_llu.o(.ARM.Collect$$_printf_percent$$0000000F)
    .ARM.Collect$$_printf_percent$$00000010  0x080001be   Section        6  _printf_llo.o(.ARM.Collect$$_printf_percent$$00000010)
    .ARM.Collect$$_printf_percent$$00000011  0x080001c4   Section        6  _printf_llx.o(.ARM.Collect$$_printf_percent$$00000011)
    .ARM.Collect$$_printf_percent$$00000012  0x080001ca   Section       10  _printf_l.o(.ARM.Collect$$_printf_percent$$00000012)
    .ARM.Collect$$_printf_percent$$00000013  0x080001d4   Section        6  _printf_c.o(.ARM.Collect$$_printf_percent$$00000013)
    .ARM.Collect$$_printf_percent$$00000014  0x080001da   Section        6  _printf_s.o(.ARM.Collect$$_printf_percent$$00000014)
    .ARM.Collect$$_printf_percent$$00000015  0x080001e0   Section        6  _printf_lc.o(.ARM.Collect$$_printf_percent$$00000015)
    .ARM.Collect$$_printf_percent$$00000016  0x080001e6   Section        6  _printf_ls.o(.ARM.Collect$$_printf_percent$$00000016)
    .ARM.Collect$$_printf_percent$$00000017  0x080001ec   Section        4  _printf_percent_end.o(.ARM.Collect$$_printf_percent$$00000017)
    .ARM.Collect$$libinit$$00000000          0x080001f0   Section        2  libinit.o(.ARM.Collect$$libinit$$00000000)
    .ARM.Collect$$libinit$$00000002          0x080001f2   Section        0  libinit2.o(.ARM.Collect$$libinit$$00000002)
    .ARM.Collect$$libinit$$00000004          0x080001f2   Section        0  libinit2.o(.ARM.Collect$$libinit$$00000004)
    .ARM.Collect$$libinit$$0000000A          0x080001f2   Section        0  libinit2.o(.ARM.Collect$$libinit$$0000000A)
    .ARM.Collect$$libinit$$0000000C          0x080001f2   Section        0  libinit2.o(.ARM.Collect$$libinit$$0000000C)
    .ARM.Collect$$libinit$$0000000E          0x080001f2   Section        0  libinit2.o(.ARM.Collect$$libinit$$0000000E)
    .ARM.Collect$$libinit$$0000000F          0x080001f2   Section        6  libinit2.o(.ARM.Collect$$libinit$$0000000F)
    .ARM.Collect$$libinit$$00000011          0x080001f8   Section        0  libinit2.o(.ARM.Collect$$libinit$$00000011)
    .ARM.Collect$$libinit$$00000012          0x080001f8   Section       12  libinit2.o(.ARM.Collect$$libinit$$00000012)
    .ARM.Collect$$libinit$$00000013          0x08000204   Section        0  libinit2.o(.ARM.Collect$$libinit$$00000013)
    .ARM.Collect$$libinit$$00000015          0x08000204   Section        0  libinit2.o(.ARM.Collect$$libinit$$00000015)
    .ARM.Collect$$libinit$$00000016          0x08000204   Section       10  libinit2.o(.ARM.Collect$$libinit$$00000016)
    .ARM.Collect$$libinit$$00000017          0x0800020e   Section        0  libinit2.o(.ARM.Collect$$libinit$$00000017)
    .ARM.Collect$$libinit$$00000019          0x0800020e   Section        0  libinit2.o(.ARM.Collect$$libinit$$00000019)
    .ARM.Collect$$libinit$$0000001B          0x0800020e   Section        0  libinit2.o(.ARM.Collect$$libinit$$0000001B)
    .ARM.Collect$$libinit$$0000001D          0x0800020e   Section        0  libinit2.o(.ARM.Collect$$libinit$$0000001D)
    .ARM.Collect$$libinit$$0000001F          0x0800020e   Section        0  libinit2.o(.ARM.Collect$$libinit$$0000001F)
    .ARM.Collect$$libinit$$00000021          0x0800020e   Section        0  libinit2.o(.ARM.Collect$$libinit$$00000021)
    .ARM.Collect$$libinit$$00000023          0x0800020e   Section        0  libinit2.o(.ARM.Collect$$libinit$$00000023)
    .ARM.Collect$$libinit$$00000025          0x0800020e   Section        0  libinit2.o(.ARM.Collect$$libinit$$00000025)
    .ARM.Collect$$libinit$$0000002C          0x0800020e   Section        0  libinit2.o(.ARM.Collect$$libinit$$0000002C)
    .ARM.Collect$$libinit$$0000002E          0x0800020e   Section        0  libinit2.o(.ARM.Collect$$libinit$$0000002E)
    .ARM.Collect$$libinit$$00000030          0x0800020e   Section        0  libinit2.o(.ARM.Collect$$libinit$$00000030)
    .ARM.Collect$$libinit$$00000032          0x0800020e   Section        0  libinit2.o(.ARM.Collect$$libinit$$00000032)
    .ARM.Collect$$libinit$$00000033          0x0800020e   Section        2  libinit2.o(.ARM.Collect$$libinit$$00000033)
    .ARM.Collect$$libshutdown$$00000000      0x08000210   Section        2  libshutdown.o(.ARM.Collect$$libshutdown$$00000000)
    .ARM.Collect$$libshutdown$$00000002      0x08000212   Section        0  libshutdown2.o(.ARM.Collect$$libshutdown$$00000002)
    .ARM.Collect$$libshutdown$$00000004      0x08000212   Section        0  libshutdown2.o(.ARM.Collect$$libshutdown$$00000004)
    .ARM.Collect$$libshutdown$$00000007      0x08000212   Section        0  libshutdown2.o(.ARM.Collect$$libshutdown$$00000007)
    .ARM.Collect$$libshutdown$$0000000A      0x08000212   Section        0  libshutdown2.o(.ARM.Collect$$libshutdown$$0000000A)
    .ARM.Collect$$libshutdown$$0000000C      0x08000212   Section        0  libshutdown2.o(.ARM.Collect$$libshutdown$$0000000C)
    .ARM.Collect$$libshutdown$$0000000F      0x08000212   Section        0  libshutdown2.o(.ARM.Collect$$libshutdown$$0000000F)
    .ARM.Collect$$libshutdown$$00000010      0x08000212   Section        2  libshutdown2.o(.ARM.Collect$$libshutdown$$00000010)
    .ARM.Collect$$rtentry$$00000000          0x08000214   Section        0  __rtentry.o(.ARM.Collect$$rtentry$$00000000)
    .ARM.Collect$$rtentry$$00000002          0x08000214   Section        0  __rtentry2.o(.ARM.Collect$$rtentry$$00000002)
    .ARM.Collect$$rtentry$$00000004          0x08000214   Section        6  __rtentry4.o(.ARM.Collect$$rtentry$$00000004)
    .ARM.Collect$$rtentry$$00000009          0x0800021a   Section        0  __rtentry2.o(.ARM.Collect$$rtentry$$00000009)
    .ARM.Collect$$rtentry$$0000000A          0x0800021a   Section        4  __rtentry2.o(.ARM.Collect$$rtentry$$0000000A)
    .ARM.Collect$$rtentry$$0000000C          0x0800021e   Section        0  __rtentry2.o(.ARM.Collect$$rtentry$$0000000C)
    .ARM.Collect$$rtentry$$0000000D          0x0800021e   Section        8  __rtentry2.o(.ARM.Collect$$rtentry$$0000000D)
    .ARM.Collect$$rtexit$$00000000           0x08000226   Section        2  rtexit.o(.ARM.Collect$$rtexit$$00000000)
    .ARM.Collect$$rtexit$$00000002           0x08000228   Section        0  rtexit2.o(.ARM.Collect$$rtexit$$00000002)
    .ARM.Collect$$rtexit$$00000003           0x08000228   Section        4  rtexit2.o(.ARM.Collect$$rtexit$$00000003)
    .ARM.Collect$$rtexit$$00000004           0x0800022c   Section        6  rtexit2.o(.ARM.Collect$$rtexit$$00000004)
    .text                                    0x08000234   Section        0  main.o(.text)
    .text                                    0x08000370   Section        0  stm32f10x_it.o(.text)
    .text                                    0x0800038c   Section        0  system_stm32f10x.o(.text)
    SetSysClockTo72                          0x0800038d   Thumb Code   214  system_stm32f10x.o(.text)
    SetSysClock                              0x08000463   Thumb Code     8  system_stm32f10x.o(.text)
    .text                                    0x0800056c   Section        0  exti.o(.text)
    .text                                    0x080005f8   Section        0  motor.o(.text)
    .text                                    0x0800064c   Section        0  pid.o(.text)
    .text                                    0x080006f4   Section        0  pwm.o(.text)
    .text                                    0x08000818   Section        0  tim.o(.text)
    .text                                    0x0800087c   Section        0  oled.o(.text)
    .text                                    0x08000f94   Section        0  delay.o(.text)
    .text                                    0x08001068   Section        0  usart.o(.text)
    .text                                    0x08001250   Section       64  startup_stm32f10x_md.o(.text)
    .text                                    0x08001290   Section        0  stm32f10x_gpio.o(.text)
    .text                                    0x080015ec   Section        0  stm32f10x_rcc.o(.text)
    .text                                    0x08001990   Section        0  stm32f10x_usart.o(.text)
    .text                                    0x08001d98   Section        0  misc.o(.text)
    .text                                    0x08001e74   Section        0  stm32f10x_tim.o(.text)
    TI4_Config                               0x0800231b   Thumb Code   130  stm32f10x_tim.o(.text)
    TI3_Config                               0x080023af   Thumb Code   122  stm32f10x_tim.o(.text)
    TI2_Config                               0x08002443   Thumb Code   130  stm32f10x_tim.o(.text)
    TI1_Config                               0x080024d7   Thumb Code   108  stm32f10x_tim.o(.text)
    .text                                    0x08002c90   Section        0  stm32f10x_exti.o(.text)
    .text                                    0x08002dac   Section        0  c89vsnprintf.o(.text)
    .text                                    0x08002de0   Section        0  __2sprintf.o(.text)
    .text                                    0x08002e0c   Section        0  _printf_pad.o(.text)
    .text                                    0x08002e5c   Section        0  _printf_dec.o(.text)
    .text                                    0x08002ed4   Section        0  __printf_flags_ss_wp.o(.text)
    .text                                    0x0800305c   Section        0  heapauxi.o(.text)
    .text                                    0x08003062   Section        0  _printf_truncate.o(.text)
    .text                                    0x08003086   Section        0  _printf_str.o(.text)
    .text                                    0x080030d8   Section        0  _printf_intcommon.o(.text)
    .text                                    0x0800318a   Section        0  _printf_charcount.o(.text)
    .text                                    0x080031b4   Section        0  _printf_char_common.o(.text)
    _printf_input_char                       0x080031b5   Thumb Code    10  _printf_char_common.o(.text)
    .text                                    0x080031e4   Section        0  _sputc.o(.text)
    .text                                    0x080031ee   Section        0  _snputc.o(.text)
    .text                                    0x08003200   Section        0  _printf_wctomb.o(.text)
    .text                                    0x080032bc   Section        0  _printf_longlong_dec.o(.text)
    .text                                    0x08003338   Section        0  _printf_oct_int_ll.o(.text)
    _printf_longlong_oct_internal            0x08003339   Thumb Code     0  _printf_oct_int_ll.o(.text)
    .text                                    0x080033a8   Section        0  _printf_hex_int_ll_ptr.o(.text)
    _printf_hex_common                       0x080033a9   Thumb Code     0  _printf_hex_int_ll_ptr.o(.text)
    .text                                    0x0800343c   Section      138  lludiv10.o(.text)
    .text                                    0x080034c6   Section        0  _printf_fp_dec.o(.text)
    _fp_digits                               0x080034c9   Thumb Code   432  _printf_fp_dec.o(.text)
    .text                                    0x080038e4   Section        0  _printf_char.o(.text)
    .text                                    0x08003910   Section        0  _printf_wchar.o(.text)
    .text                                    0x0800393c   Section        0  _wcrtomb.o(.text)
    .text                                    0x0800397c   Section       74  sys_stackheap_outer.o(.text)
    .text                                    0x080039c8   Section       16  rt_ctype_table.o(.text)
    .text                                    0x080039d8   Section        8  rt_locale_intlibspace.o(.text)
    .text                                    0x080039e0   Section        0  _printf_fp_infnan.o(.text)
    .text                                    0x08003a60   Section        0  bigflt0.o(.text)
    .text                                    0x08003b44   Section        0  exit.o(.text)
    .text                                    0x08003b58   Section        8  libspace.o(.text)
    .text                                    0x08003b60   Section      128  strcmpv7m.o(.text)
    .text                                    0x08003be0   Section        0  sys_exit.o(.text)
    .text                                    0x08003bec   Section        2  use_no_semi.o(.text)
    .text                                    0x08003bee   Section        0  indicate_semi.o(.text)
    CL$$btod_d2e                             0x08003bee   Section       62  btod.o(CL$$btod_d2e)
    CL$$btod_d2e_denorm_low                  0x08003c2c   Section       70  btod.o(CL$$btod_d2e_denorm_low)
    CL$$btod_d2e_norm_op1                    0x08003c72   Section       96  btod.o(CL$$btod_d2e_norm_op1)
    CL$$btod_div_common                      0x08003cd2   Section      824  btod.o(CL$$btod_div_common)
    CL$$btod_e2e                             0x0800400a   Section      220  btod.o(CL$$btod_e2e)
    CL$$btod_ediv                            0x080040e6   Section       42  btod.o(CL$$btod_ediv)
    CL$$btod_emul                            0x08004110   Section       42  btod.o(CL$$btod_emul)
    CL$$btod_mult_common                     0x0800413a   Section      580  btod.o(CL$$btod_mult_common)
    i.__ARM_fpclassify                       0x0800437e   Section        0  fpclassify.o(i.__ARM_fpclassify)
    i._is_digit                              0x080043a6   Section        0  __printf_wp.o(i._is_digit)
    locale$$code                             0x080043b4   Section       44  lc_numeric_c.o(locale$$code)
    locale$$code                             0x080043e0   Section       44  lc_ctype_c.o(locale$$code)
    x$fpl$fadd                               0x0800440c   Section      196  faddsub_clz.o(x$fpl$fadd)
    _fadd1                                   0x0800441b   Thumb Code     0  faddsub_clz.o(x$fpl$fadd)
    x$fpl$ffix                               0x080044d0   Section       54  ffix.o(x$fpl$ffix)
    x$fpl$fflt                               0x08004508   Section       48  fflt_clz.o(x$fpl$fflt)
    x$fpl$fmul                               0x08004538   Section      258  fmul.o(x$fpl$fmul)
    x$fpl$fnaninf                            0x0800463a   Section      140  fnaninf.o(x$fpl$fnaninf)
    x$fpl$fretinf                            0x080046c6   Section       10  fretinf.o(x$fpl$fretinf)
    x$fpl$fsub                               0x080046d0   Section      234  faddsub_clz.o(x$fpl$fsub)
    _fsub1                                   0x080046df   Thumb Code     0  faddsub_clz.o(x$fpl$fsub)
    x$fpl$printf1                            0x080047ba   Section        4  printf1.o(x$fpl$printf1)
    .constdata                               0x080047be   Section     6080  oled.o(.constdata)
    x$fpl$usenofp                            0x080047be   Section        0  usenofp.o(x$fpl$usenofp)
    .constdata                               0x08005f7e   Section       17  __printf_flags_ss_wp.o(.constdata)
    maptable                                 0x08005f7e   Data          17  __printf_flags_ss_wp.o(.constdata)
    .constdata                               0x08005f90   Section        8  _printf_wctomb.o(.constdata)
    initial_mbstate                          0x08005f90   Data           8  _printf_wctomb.o(.constdata)
    .constdata                               0x08005f98   Section       40  _printf_hex_int_ll_ptr.o(.constdata)
    uc_hextab                                0x08005f98   Data          20  _printf_hex_int_ll_ptr.o(.constdata)
    lc_hextab                                0x08005fac   Data          20  _printf_hex_int_ll_ptr.o(.constdata)
    .constdata                               0x08005fc0   Section      148  bigflt0.o(.constdata)
    tenpwrs_x                                0x08005fc0   Data          60  bigflt0.o(.constdata)
    tenpwrs_i                                0x08005ffc   Data          64  bigflt0.o(.constdata)
    locale$$data                             0x08006074   Section       28  lc_numeric_c.o(locale$$data)
    __lcnum_c_name                           0x08006078   Data           2  lc_numeric_c.o(locale$$data)
    __lcnum_c_start                          0x08006080   Data           0  lc_numeric_c.o(locale$$data)
    __lcnum_c_point                          0x0800608c   Data           0  lc_numeric_c.o(locale$$data)
    __lcnum_c_thousands                      0x0800608e   Data           0  lc_numeric_c.o(locale$$data)
    __lcnum_c_grouping                       0x0800608f   Data           0  lc_numeric_c.o(locale$$data)
    locale$$data                             0x08006090   Section      272  lc_ctype_c.o(locale$$data)
    __lcnum_c_end                            0x08006090   Data           0  lc_numeric_c.o(locale$$data)
    __lcctype_c_name                         0x08006094   Data           2  lc_ctype_c.o(locale$$data)
    __lcctype_c_start                        0x0800609c   Data           0  lc_ctype_c.o(locale$$data)
    __lcctype_c_end                          0x080061a0   Data           0  lc_ctype_c.o(locale$$data)
    .data                                    0x20000000   Section       12  main.o(.data)
    .data                                    0x2000000c   Section       20  system_stm32f10x.o(.data)
    .data                                    0x20000020   Section        4  exti.o(.data)
    .data                                    0x20000024   Section       28  pid.o(.data)
    pwm_out                                  0x20000030   Data           4  pid.o(.data)
    speed_err                                0x20000034   Data           4  pid.o(.data)
    err_sum                                  0x20000038   Data           4  pid.o(.data)
    speed_err_last                           0x2000003c   Data           4  pid.o(.data)
    .data                                    0x20000040   Section        4  delay.o(.data)
    fac_us                                   0x20000040   Data           1  delay.o(.data)
    fac_ms                                   0x20000042   Data           2  delay.o(.data)
    .data                                    0x20000044   Section       20  stm32f10x_rcc.o(.data)
    APBAHBPrescTable                         0x20000044   Data          16  stm32f10x_rcc.o(.data)
    ADCPrescTable                            0x20000054   Data           4  stm32f10x_rcc.o(.data)
    .bss                                     0x20000058   Section       20  main.o(.bss)
    .bss                                     0x2000006c   Section     1152  oled.o(.bss)
    .bss                                     0x200004ec   Section       96  libspace.o(.bss)
    HEAP                                     0x20000550   Section      512  startup_stm32f10x_md.o(HEAP)
    Heap_Mem                                 0x20000550   Data         512  startup_stm32f10x_md.o(HEAP)
    STACK                                    0x20000750   Section     1024  startup_stm32f10x_md.o(STACK)
    Stack_Mem                                0x20000750   Data        1024  startup_stm32f10x_md.o(STACK)
    __initial_sp                             0x20000b50   Data           0  startup_stm32f10x_md.o(STACK)

    Global Symbols

    Symbol Name                              Value     Ov Type        Size  Object(Section)

    BuildAttributes$$THM_ISAv4$P$D$K$B$S$PE$A:L22UL41UL21$X:L11$S22US41US21$IEEE1$IW$USESV6$~STKCKD$USESV7$~SHL$OTIME$ROPI$IEEEJ$EBA8$UX$STANDARDLIB$REQ8$PRES8$EABIv2 0x00000000   Number         0  anon$$obj.o ABSOLUTE
    __ARM_use_no_argv                        0x00000000   Number         0  main.o ABSOLUTE
    _printf_flags                            0x00000000   Number         0  printf_stubs.o ABSOLUTE
    _printf_return_value                     0x00000000   Number         0  printf_stubs.o ABSOLUTE
    _printf_sizespec                         0x00000000   Number         0  printf_stubs.o ABSOLUTE
    _printf_widthprec                        0x00000000   Number         0  printf_stubs.o ABSOLUTE
    __ARM_exceptions_init                     - Undefined Weak Reference
    __alloca_initialize                       - Undefined Weak Reference
    __arm_preinit_                            - Undefined Weak Reference
    __cpp_initialize__aeabi_                  - Undefined Weak Reference
    __cxa_finalize                            - Undefined Weak Reference
    __sigvec_lookup                           - Undefined Weak Reference
    _atexit_init                              - Undefined Weak Reference
    _call_atexit_fns                          - Undefined Weak Reference
    _clock_init                               - Undefined Weak Reference
    _fp_trap_init                             - Undefined Weak Reference
    _fp_trap_shutdown                         - Undefined Weak Reference
    _get_lc_collate                           - Undefined Weak Reference
    _get_lc_monetary                          - Undefined Weak Reference
    _get_lc_time                              - Undefined Weak Reference
    _getenv_init                              - Undefined Weak Reference
    _handle_redirection                       - Undefined Weak Reference
    _init_alloc                               - Undefined Weak Reference
    _init_user_alloc                          - Undefined Weak Reference
    _initio                                   - Undefined Weak Reference
    _printf_fp_hex                            - Undefined Weak Reference
    _printf_mbtowc                            - Undefined Weak Reference
    _printf_wc                                - Undefined Weak Reference
    _rand_init                                - Undefined Weak Reference
    _signal_finish                            - Undefined Weak Reference
    _signal_init                              - Undefined Weak Reference
    _terminate_alloc                          - Undefined Weak Reference
    _terminate_user_alloc                     - Undefined Weak Reference
    _terminateio                              - Undefined Weak Reference
    __Vectors_Size                           0x000000ec   Number         0  startup_stm32f10x_md.o ABSOLUTE
    __Vectors                                0x08000000   Data           4  startup_stm32f10x_md.o(RESET)
    __Vectors_End                            0x080000ec   Data           0  startup_stm32f10x_md.o(RESET)
    __main                                   0x080000ed   Thumb Code     8  __main.o(!!!main)
    __scatterload                            0x080000f5   Thumb Code     0  __scatter.o(!!!scatter)
    __scatterload_rt2                        0x080000f5   Thumb Code    44  __scatter.o(!!!scatter)
    __scatterload_rt2_thumb_only             0x080000f5   Thumb Code     0  __scatter.o(!!!scatter)
    __scatterload_null                       0x08000103   Thumb Code     0  __scatter.o(!!!scatter)
    __scatterload_copy                       0x08000129   Thumb Code    26  __scatter_copy.o(!!handler_copy)
    __scatterload_zeroinit                   0x08000145   Thumb Code    28  __scatter_zi.o(!!handler_zi)
    _printf_n                                0x08000161   Thumb Code     0  _printf_n.o(.ARM.Collect$$_printf_percent$$00000001)
    _printf_percent                          0x08000161   Thumb Code     0  _printf_percent.o(.ARM.Collect$$_printf_percent$$00000000)
    _printf_p                                0x08000167   Thumb Code     0  _printf_p.o(.ARM.Collect$$_printf_percent$$00000002)
    _printf_f                                0x0800016d   Thumb Code     0  _printf_f.o(.ARM.Collect$$_printf_percent$$00000003)
    _printf_e                                0x08000173   Thumb Code     0  _printf_e.o(.ARM.Collect$$_printf_percent$$00000004)
    _printf_g                                0x08000179   Thumb Code     0  _printf_g.o(.ARM.Collect$$_printf_percent$$00000005)
    _printf_a                                0x0800017f   Thumb Code     0  _printf_a.o(.ARM.Collect$$_printf_percent$$00000006)
    _printf_ll                               0x08000185   Thumb Code     0  _printf_ll.o(.ARM.Collect$$_printf_percent$$00000007)
    _printf_i                                0x0800018f   Thumb Code     0  _printf_i.o(.ARM.Collect$$_printf_percent$$00000008)
    _printf_d                                0x08000195   Thumb Code     0  _printf_d.o(.ARM.Collect$$_printf_percent$$00000009)
    _printf_u                                0x0800019b   Thumb Code     0  _printf_u.o(.ARM.Collect$$_printf_percent$$0000000A)
    _printf_o                                0x080001a1   Thumb Code     0  _printf_o.o(.ARM.Collect$$_printf_percent$$0000000B)
    _printf_x                                0x080001a7   Thumb Code     0  _printf_x.o(.ARM.Collect$$_printf_percent$$0000000C)
    _printf_lli                              0x080001ad   Thumb Code     0  _printf_lli.o(.ARM.Collect$$_printf_percent$$0000000D)
    _printf_lld                              0x080001b3   Thumb Code     0  _printf_lld.o(.ARM.Collect$$_printf_percent$$0000000E)
    _printf_llu                              0x080001b9   Thumb Code     0  _printf_llu.o(.ARM.Collect$$_printf_percent$$0000000F)
    _printf_llo                              0x080001bf   Thumb Code     0  _printf_llo.o(.ARM.Collect$$_printf_percent$$00000010)
    _printf_llx                              0x080001c5   Thumb Code     0  _printf_llx.o(.ARM.Collect$$_printf_percent$$00000011)
    _printf_l                                0x080001cb   Thumb Code     0  _printf_l.o(.ARM.Collect$$_printf_percent$$00000012)
    _printf_c                                0x080001d5   Thumb Code     0  _printf_c.o(.ARM.Collect$$_printf_percent$$00000013)
    _printf_s                                0x080001db   Thumb Code     0  _printf_s.o(.ARM.Collect$$_printf_percent$$00000014)
    _printf_lc                               0x080001e1   Thumb Code     0  _printf_lc.o(.ARM.Collect$$_printf_percent$$00000015)
    _printf_ls                               0x080001e7   Thumb Code     0  _printf_ls.o(.ARM.Collect$$_printf_percent$$00000016)
    _printf_percent_end                      0x080001ed   Thumb Code     0  _printf_percent_end.o(.ARM.Collect$$_printf_percent$$00000017)
    __rt_lib_init                            0x080001f1   Thumb Code     0  libinit.o(.ARM.Collect$$libinit$$00000000)
    __rt_lib_init_fp_1                       0x080001f3   Thumb Code     0  libinit2.o(.ARM.Collect$$libinit$$00000002)
    __rt_lib_init_heap_1                     0x080001f3   Thumb Code     0  libinit2.o(.ARM.Collect$$libinit$$0000000A)
    __rt_lib_init_lc_common                  0x080001f3   Thumb Code     0  libinit2.o(.ARM.Collect$$libinit$$0000000F)
    __rt_lib_init_preinit_1                  0x080001f3   Thumb Code     0  libinit2.o(.ARM.Collect$$libinit$$00000004)
    __rt_lib_init_rand_1                     0x080001f3   Thumb Code     0  libinit2.o(.ARM.Collect$$libinit$$0000000E)
    __rt_lib_init_user_alloc_1               0x080001f3   Thumb Code     0  libinit2.o(.ARM.Collect$$libinit$$0000000C)
    __rt_lib_init_lc_collate_1               0x080001f9   Thumb Code     0  libinit2.o(.ARM.Collect$$libinit$$00000011)
    __rt_lib_init_lc_ctype_2                 0x080001f9   Thumb Code     0  libinit2.o(.ARM.Collect$$libinit$$00000012)
    __rt_lib_init_lc_ctype_1                 0x08000205   Thumb Code     0  libinit2.o(.ARM.Collect$$libinit$$00000013)
    __rt_lib_init_lc_monetary_1              0x08000205   Thumb Code     0  libinit2.o(.ARM.Collect$$libinit$$00000015)
    __rt_lib_init_lc_numeric_2               0x08000205   Thumb Code     0  libinit2.o(.ARM.Collect$$libinit$$00000016)
    __rt_lib_init_alloca_1                   0x0800020f   Thumb Code     0  libinit2.o(.ARM.Collect$$libinit$$0000002E)
    __rt_lib_init_argv_1                     0x0800020f   Thumb Code     0  libinit2.o(.ARM.Collect$$libinit$$0000002C)
    __rt_lib_init_atexit_1                   0x0800020f   Thumb Code     0  libinit2.o(.ARM.Collect$$libinit$$0000001B)
    __rt_lib_init_clock_1                    0x0800020f   Thumb Code     0  libinit2.o(.ARM.Collect$$libinit$$00000021)
    __rt_lib_init_cpp_1                      0x0800020f   Thumb Code     0  libinit2.o(.ARM.Collect$$libinit$$00000032)
    __rt_lib_init_exceptions_1               0x0800020f   Thumb Code     0  libinit2.o(.ARM.Collect$$libinit$$00000030)
    __rt_lib_init_fp_trap_1                  0x0800020f   Thumb Code     0  libinit2.o(.ARM.Collect$$libinit$$0000001F)
    __rt_lib_init_getenv_1                   0x0800020f   Thumb Code     0  libinit2.o(.ARM.Collect$$libinit$$00000023)
    __rt_lib_init_lc_numeric_1               0x0800020f   Thumb Code     0  libinit2.o(.ARM.Collect$$libinit$$00000017)
    __rt_lib_init_lc_time_1                  0x0800020f   Thumb Code     0  libinit2.o(.ARM.Collect$$libinit$$00000019)
    __rt_lib_init_return                     0x0800020f   Thumb Code     0  libinit2.o(.ARM.Collect$$libinit$$00000033)
    __rt_lib_init_signal_1                   0x0800020f   Thumb Code     0  libinit2.o(.ARM.Collect$$libinit$$0000001D)
    __rt_lib_init_stdio_1                    0x0800020f   Thumb Code     0  libinit2.o(.ARM.Collect$$libinit$$00000025)
    __rt_lib_shutdown                        0x08000211   Thumb Code     0  libshutdown.o(.ARM.Collect$$libshutdown$$00000000)
    __rt_lib_shutdown_cpp_1                  0x08000213   Thumb Code     0  libshutdown2.o(.ARM.Collect$$libshutdown$$00000002)
    __rt_lib_shutdown_fp_trap_1              0x08000213   Thumb Code     0  libshutdown2.o(.ARM.Collect$$libshutdown$$00000007)
    __rt_lib_shutdown_heap_1                 0x08000213   Thumb Code     0  libshutdown2.o(.ARM.Collect$$libshutdown$$0000000F)
    __rt_lib_shutdown_return                 0x08000213   Thumb Code     0  libshutdown2.o(.ARM.Collect$$libshutdown$$00000010)
    __rt_lib_shutdown_signal_1               0x08000213   Thumb Code     0  libshutdown2.o(.ARM.Collect$$libshutdown$$0000000A)
    __rt_lib_shutdown_stdio_1                0x08000213   Thumb Code     0  libshutdown2.o(.ARM.Collect$$libshutdown$$00000004)
    __rt_lib_shutdown_user_alloc_1           0x08000213   Thumb Code     0  libshutdown2.o(.ARM.Collect$$libshutdown$$0000000C)
    __rt_entry                               0x08000215   Thumb Code     0  __rtentry.o(.ARM.Collect$$rtentry$$00000000)
    __rt_entry_presh_1                       0x08000215   Thumb Code     0  __rtentry2.o(.ARM.Collect$$rtentry$$00000002)
    __rt_entry_sh                            0x08000215   Thumb Code     0  __rtentry4.o(.ARM.Collect$$rtentry$$00000004)
    __rt_entry_li                            0x0800021b   Thumb Code     0  __rtentry2.o(.ARM.Collect$$rtentry$$0000000A)
    __rt_entry_postsh_1                      0x0800021b   Thumb Code     0  __rtentry2.o(.ARM.Collect$$rtentry$$00000009)
    __rt_entry_main                          0x0800021f   Thumb Code     0  __rtentry2.o(.ARM.Collect$$rtentry$$0000000D)
    __rt_entry_postli_1                      0x0800021f   Thumb Code     0  __rtentry2.o(.ARM.Collect$$rtentry$$0000000C)
    __rt_exit                                0x08000227   Thumb Code     0  rtexit.o(.ARM.Collect$$rtexit$$00000000)
    __rt_exit_ls                             0x08000229   Thumb Code     0  rtexit2.o(.ARM.Collect$$rtexit$$00000003)
    __rt_exit_prels_1                        0x08000229   Thumb Code     0  rtexit2.o(.ARM.Collect$$rtexit$$00000002)
    __rt_exit_exit                           0x0800022d   Thumb Code     0  rtexit2.o(.ARM.Collect$$rtexit$$00000004)
    main                                     0x08000235   Thumb Code   154  main.o(.text)
    TIM4_IRQHandler                          0x080002cf   Thumb Code    72  main.o(.text)
    NMI_Handler                              0x08000371   Thumb Code     2  stm32f10x_it.o(.text)
    HardFault_Handler                        0x08000373   Thumb Code     4  stm32f10x_it.o(.text)
    MemManage_Handler                        0x08000377   Thumb Code     4  stm32f10x_it.o(.text)
    BusFault_Handler                         0x0800037b   Thumb Code     4  stm32f10x_it.o(.text)
    UsageFault_Handler                       0x0800037f   Thumb Code     4  stm32f10x_it.o(.text)
    SVC_Handler                              0x08000383   Thumb Code     2  stm32f10x_it.o(.text)
    DebugMon_Handler                         0x08000385   Thumb Code     2  stm32f10x_it.o(.text)
    PendSV_Handler                           0x08000387   Thumb Code     2  stm32f10x_it.o(.text)
    SysTick_Handler                          0x08000389   Thumb Code     2  stm32f10x_it.o(.text)
    SystemInit                               0x0800046b   Thumb Code    78  system_stm32f10x.o(.text)
    SystemCoreClockUpdate                    0x080004b9   Thumb Code   142  system_stm32f10x.o(.text)
    Exit_Init                                0x0800056d   Thumb Code   102  exti.o(.text)
    EXTI1_IRQHandler                         0x080005d3   Thumb Code    30  exti.o(.text)
    Motor_Init                               0x080005f9   Thumb Code    54  motor.o(.text)
    motor_abs                                0x0800062f   Thumb Code    16  motor.o(.text)
    PID_control                              0x0800064d   Thumb Code   138  pid.o(.text)
    TIM3_PWM_Config_Init                     0x080006f5   Thumb Code   222  pwm.o(.text)
    TIM3_SetPWM_Num                          0x080007d3   Thumb Code    56  pwm.o(.text)
    TIM4_NVIC_Init                           0x08000819   Thumb Code    32  tim.o(.text)
    TIM4_Init                                0x08000839   Thumb Code    64  tim.o(.text)
    I2C_Stop                                 0x0800087d   Thumb Code    28  oled.o(.text)
    I2C_WaitAck                              0x08000899   Thumb Code    20  oled.o(.text)
    Send_Byte                                0x080008ad   Thumb Code    70  oled.o(.text)
    I2C_Start                                0x080008f3   Thumb Code    36  oled.o(.text)
    OLED_WR_Byte                             0x08000917   Thumb Code    56  oled.o(.text)
    OLED_ColorTurn                           0x0800094f   Thumb Code    28  oled.o(.text)
    OLED_DisplayTurn                         0x0800096b   Thumb Code    44  oled.o(.text)
    OLED_DisPlay_On                          0x08000997   Thumb Code    28  oled.o(.text)
    OLED_DisPlay_Off                         0x080009b3   Thumb Code    28  oled.o(.text)
    OLED_Refresh                             0x080009cf   Thumb Code    70  oled.o(.text)
    OLED_Clear                               0x08000a15   Thumb Code    42  oled.o(.text)
    OLED_DrawPoint                           0x08000a3f   Thumb Code    54  oled.o(.text)
    OLED_ClearPoint                          0x08000a75   Thumb Code    90  oled.o(.text)
    OLED_DrawLine                            0x08000acf   Thumb Code   176  oled.o(.text)
    OLED_DrawCircle                          0x08000b7f   Thumb Code   152  oled.o(.text)
    OLED_ShowChar                            0x08000c17   Thumb Code   250  oled.o(.text)
    OLED_ShowString                          0x08000d11   Thumb Code    66  oled.o(.text)
    OLED_Pow                                 0x08000d53   Thumb Code    22  oled.o(.text)
    OLED_ShowNum                             0x08000d69   Thumb Code   116  oled.o(.text)
    OLED_WR_BP                               0x08000ddd   Thumb Code    46  oled.o(.text)
    OLED_ShowPicture                         0x08000e0b   Thumb Code    98  oled.o(.text)
    OLED_Init                                0x08000e6d   Thumb Code   278  oled.o(.text)
    delay_init                               0x08000f95   Thumb Code    50  delay.o(.text)
    delay_us                                 0x08000fc7   Thumb Code    72  delay.o(.text)
    delay_ms                                 0x0800100f   Thumb Code    72  delay.o(.text)
    Usart1_Init                              0x08001069   Thumb Code   166  usart.o(.text)
    Usart2_Init                              0x0800110f   Thumb Code   162  usart.o(.text)
    Usart_SendString                         0x080011b1   Thumb Code    50  usart.o(.text)
    UsartPrintf                              0x080011e3   Thumb Code    72  usart.o(.text)
    USART1_IRQHandler                        0x0800122b   Thumb Code    24  usart.o(.text)
    Reset_Handler                            0x08001251   Thumb Code     8  startup_stm32f10x_md.o(.text)
    ADC1_2_IRQHandler                        0x0800126b   Thumb Code     0  startup_stm32f10x_md.o(.text)
    CAN1_RX1_IRQHandler                      0x0800126b   Thumb Code     0  startup_stm32f10x_md.o(.text)
    CAN1_SCE_IRQHandler                      0x0800126b   Thumb Code     0  startup_stm32f10x_md.o(.text)
    DMA1_Channel1_IRQHandler                 0x0800126b   Thumb Code     0  startup_stm32f10x_md.o(.text)
    DMA1_Channel2_IRQHandler                 0x0800126b   Thumb Code     0  startup_stm32f10x_md.o(.text)
    DMA1_Channel3_IRQHandler                 0x0800126b   Thumb Code     0  startup_stm32f10x_md.o(.text)
    DMA1_Channel4_IRQHandler                 0x0800126b   Thumb Code     0  startup_stm32f10x_md.o(.text)
    DMA1_Channel5_IRQHandler                 0x0800126b   Thumb Code     0  startup_stm32f10x_md.o(.text)
    DMA1_Channel6_IRQHandler                 0x0800126b   Thumb Code     0  startup_stm32f10x_md.o(.text)
    DMA1_Channel7_IRQHandler                 0x0800126b   Thumb Code     0  startup_stm32f10x_md.o(.text)
    EXTI0_IRQHandler                         0x0800126b   Thumb Code     0  startup_stm32f10x_md.o(.text)
    EXTI15_10_IRQHandler                     0x0800126b   Thumb Code     0  startup_stm32f10x_md.o(.text)
    EXTI2_IRQHandler                         0x0800126b   Thumb Code     0  startup_stm32f10x_md.o(.text)
    EXTI3_IRQHandler                         0x0800126b   Thumb Code     0  startup_stm32f10x_md.o(.text)
    EXTI4_IRQHandler                         0x0800126b   Thumb Code     0  startup_stm32f10x_md.o(.text)
    EXTI9_5_IRQHandler                       0x0800126b   Thumb Code     0  startup_stm32f10x_md.o(.text)
    FLASH_IRQHandler                         0x0800126b   Thumb Code     0  startup_stm32f10x_md.o(.text)
    I2C1_ER_IRQHandler                       0x0800126b   Thumb Code     0  startup_stm32f10x_md.o(.text)
    I2C1_EV_IRQHandler                       0x0800126b   Thumb Code     0  startup_stm32f10x_md.o(.text)
    I2C2_ER_IRQHandler                       0x0800126b   Thumb Code     0  startup_stm32f10x_md.o(.text)
    I2C2_EV_IRQHandler                       0x0800126b   Thumb Code     0  startup_stm32f10x_md.o(.text)
    PVD_IRQHandler                           0x0800126b   Thumb Code     0  startup_stm32f10x_md.o(.text)
    RCC_IRQHandler                           0x0800126b   Thumb Code     0  startup_stm32f10x_md.o(.text)
    RTCAlarm_IRQHandler                      0x0800126b   Thumb Code     0  startup_stm32f10x_md.o(.text)
    RTC_IRQHandler                           0x0800126b   Thumb Code     0  startup_stm32f10x_md.o(.text)
    SPI1_IRQHandler                          0x0800126b   Thumb Code     0  startup_stm32f10x_md.o(.text)
    SPI2_IRQHandler                          0x0800126b   Thumb Code     0  startup_stm32f10x_md.o(.text)
    TAMPER_IRQHandler                        0x0800126b   Thumb Code     0  startup_stm32f10x_md.o(.text)
    TIM1_BRK_IRQHandler                      0x0800126b   Thumb Code     0  startup_stm32f10x_md.o(.text)
    TIM1_CC_IRQHandler                       0x0800126b   Thumb Code     0  startup_stm32f10x_md.o(.text)
    TIM1_TRG_COM_IRQHandler                  0x0800126b   Thumb Code     0  startup_stm32f10x_md.o(.text)
    TIM1_UP_IRQHandler                       0x0800126b   Thumb Code     0  startup_stm32f10x_md.o(.text)
    TIM2_IRQHandler                          0x0800126b   Thumb Code     0  startup_stm32f10x_md.o(.text)
    TIM3_IRQHandler                          0x0800126b   Thumb Code     0  startup_stm32f10x_md.o(.text)
    USART2_IRQHandler                        0x0800126b   Thumb Code     0  startup_stm32f10x_md.o(.text)
    USART3_IRQHandler                        0x0800126b   Thumb Code     0  startup_stm32f10x_md.o(.text)
    USBWakeUp_IRQHandler                     0x0800126b   Thumb Code     0  startup_stm32f10x_md.o(.text)
    USB_HP_CAN1_TX_IRQHandler                0x0800126b   Thumb Code     0  startup_stm32f10x_md.o(.text)
    USB_LP_CAN1_RX0_IRQHandler               0x0800126b   Thumb Code     0  startup_stm32f10x_md.o(.text)
    WWDG_IRQHandler                          0x0800126b   Thumb Code     0  startup_stm32f10x_md.o(.text)
    __user_initial_stackheap                 0x0800126d   Thumb Code     0  startup_stm32f10x_md.o(.text)
    GPIO_DeInit                              0x08001291   Thumb Code   172  stm32f10x_gpio.o(.text)
    GPIO_AFIODeInit                          0x0800133d   Thumb Code    20  stm32f10x_gpio.o(.text)
    GPIO_Init                                0x08001351   Thumb Code   278  stm32f10x_gpio.o(.text)
    GPIO_StructInit                          0x08001467   Thumb Code    16  stm32f10x_gpio.o(.text)
    GPIO_ReadInputDataBit                    0x08001477   Thumb Code    18  stm32f10x_gpio.o(.text)
    GPIO_ReadInputData                       0x08001489   Thumb Code     8  stm32f10x_gpio.o(.text)
    GPIO_ReadOutputDataBit                   0x08001491   Thumb Code    18  stm32f10x_gpio.o(.text)
    GPIO_ReadOutputData                      0x080014a3   Thumb Code     8  stm32f10x_gpio.o(.text)
    GPIO_SetBits                             0x080014ab   Thumb Code     4  stm32f10x_gpio.o(.text)
    GPIO_ResetBits                           0x080014af   Thumb Code     4  stm32f10x_gpio.o(.text)
    GPIO_WriteBit                            0x080014b3   Thumb Code    10  stm32f10x_gpio.o(.text)
    GPIO_Write                               0x080014bd   Thumb Code     4  stm32f10x_gpio.o(.text)
    GPIO_PinLockConfig                       0x080014c1   Thumb Code    18  stm32f10x_gpio.o(.text)
    GPIO_EventOutputConfig                   0x080014d3   Thumb Code    26  stm32f10x_gpio.o(.text)
    GPIO_EventOutputCmd                      0x080014ed   Thumb Code     6  stm32f10x_gpio.o(.text)
    GPIO_PinRemapConfig                      0x080014f3   Thumb Code   138  stm32f10x_gpio.o(.text)
    GPIO_EXTILineConfig                      0x0800157d   Thumb Code    66  stm32f10x_gpio.o(.text)
    GPIO_ETH_MediaInterfaceConfig            0x080015bf   Thumb Code     8  stm32f10x_gpio.o(.text)
    RCC_DeInit                               0x080015ed   Thumb Code    64  stm32f10x_rcc.o(.text)
    RCC_HSEConfig                            0x0800162d   Thumb Code    70  stm32f10x_rcc.o(.text)
    RCC_GetFlagStatus                        0x08001673   Thumb Code    56  stm32f10x_rcc.o(.text)
    RCC_WaitForHSEStartUp                    0x080016ab   Thumb Code    56  stm32f10x_rcc.o(.text)
    RCC_AdjustHSICalibrationValue            0x080016e3   Thumb Code    20  stm32f10x_rcc.o(.text)
    RCC_HSICmd                               0x080016f7   Thumb Code     6  stm32f10x_rcc.o(.text)
    RCC_PLLConfig                            0x080016fd   Thumb Code    24  stm32f10x_rcc.o(.text)
    RCC_PLLCmd                               0x08001715   Thumb Code     6  stm32f10x_rcc.o(.text)
    RCC_SYSCLKConfig                         0x0800171b   Thumb Code    18  stm32f10x_rcc.o(.text)
    RCC_GetSYSCLKSource                      0x0800172d   Thumb Code    10  stm32f10x_rcc.o(.text)
    RCC_HCLKConfig                           0x08001737   Thumb Code    18  stm32f10x_rcc.o(.text)
    RCC_PCLK1Config                          0x08001749   Thumb Code    18  stm32f10x_rcc.o(.text)
    RCC_PCLK2Config                          0x0800175b   Thumb Code    20  stm32f10x_rcc.o(.text)
    RCC_ITConfig                             0x0800176f   Thumb Code    26  stm32f10x_rcc.o(.text)
    RCC_USBCLKConfig                         0x08001789   Thumb Code     8  stm32f10x_rcc.o(.text)
    RCC_ADCCLKConfig                         0x08001791   Thumb Code    18  stm32f10x_rcc.o(.text)
    RCC_LSEConfig                            0x080017a3   Thumb Code    50  stm32f10x_rcc.o(.text)
    RCC_LSICmd                               0x080017d5   Thumb Code     6  stm32f10x_rcc.o(.text)
    RCC_RTCCLKConfig                         0x080017db   Thumb Code    12  stm32f10x_rcc.o(.text)
    RCC_RTCCLKCmd                            0x080017e7   Thumb Code     8  stm32f10x_rcc.o(.text)
    RCC_GetClocksFreq                        0x080017ef   Thumb Code   192  stm32f10x_rcc.o(.text)
    RCC_AHBPeriphClockCmd                    0x080018af   Thumb Code    26  stm32f10x_rcc.o(.text)
    RCC_APB2PeriphClockCmd                   0x080018c9   Thumb Code    26  stm32f10x_rcc.o(.text)
    RCC_APB1PeriphClockCmd                   0x080018e3   Thumb Code    26  stm32f10x_rcc.o(.text)
    RCC_APB2PeriphResetCmd                   0x080018fd   Thumb Code    26  stm32f10x_rcc.o(.text)
    RCC_APB1PeriphResetCmd                   0x08001917   Thumb Code    26  stm32f10x_rcc.o(.text)
    RCC_BackupResetCmd                       0x08001931   Thumb Code     8  stm32f10x_rcc.o(.text)
    RCC_ClockSecuritySystemCmd               0x08001939   Thumb Code     6  stm32f10x_rcc.o(.text)
    RCC_MCOConfig                            0x0800193f   Thumb Code     6  stm32f10x_rcc.o(.text)
    RCC_ClearFlag                            0x08001945   Thumb Code    14  stm32f10x_rcc.o(.text)
    RCC_GetITStatus                          0x08001953   Thumb Code    20  stm32f10x_rcc.o(.text)
    RCC_ClearITPendingBit                    0x08001967   Thumb Code     6  stm32f10x_rcc.o(.text)
    USART_DeInit                             0x08001991   Thumb Code   134  stm32f10x_usart.o(.text)
    USART_Init                               0x08001a17   Thumb Code   210  stm32f10x_usart.o(.text)
    USART_StructInit                         0x08001ae9   Thumb Code    24  stm32f10x_usart.o(.text)
    USART_ClockInit                          0x08001b01   Thumb Code    34  stm32f10x_usart.o(.text)
    USART_ClockStructInit                    0x08001b23   Thumb Code    12  stm32f10x_usart.o(.text)
    USART_Cmd                                0x08001b2f   Thumb Code    24  stm32f10x_usart.o(.text)
    USART_ITConfig                           0x08001b47   Thumb Code    74  stm32f10x_usart.o(.text)
    USART_DMACmd                             0x08001b91   Thumb Code    18  stm32f10x_usart.o(.text)
    USART_SetAddress                         0x08001ba3   Thumb Code    18  stm32f10x_usart.o(.text)
    USART_WakeUpConfig                       0x08001bb5   Thumb Code    18  stm32f10x_usart.o(.text)
    USART_ReceiverWakeUpCmd                  0x08001bc7   Thumb Code    24  stm32f10x_usart.o(.text)
    USART_LINBreakDetectLengthConfig         0x08001bdf   Thumb Code    18  stm32f10x_usart.o(.text)
    USART_LINCmd                             0x08001bf1   Thumb Code    24  stm32f10x_usart.o(.text)
    USART_SendData                           0x08001c09   Thumb Code     8  stm32f10x_usart.o(.text)
    USART_ReceiveData                        0x08001c11   Thumb Code    10  stm32f10x_usart.o(.text)
    USART_SendBreak                          0x08001c1b   Thumb Code    10  stm32f10x_usart.o(.text)
    USART_SetGuardTime                       0x08001c25   Thumb Code    16  stm32f10x_usart.o(.text)
    USART_SetPrescaler                       0x08001c35   Thumb Code    16  stm32f10x_usart.o(.text)
    USART_SmartCardCmd                       0x08001c45   Thumb Code    24  stm32f10x_usart.o(.text)
    USART_SmartCardNACKCmd                   0x08001c5d   Thumb Code    24  stm32f10x_usart.o(.text)
    USART_HalfDuplexCmd                      0x08001c75   Thumb Code    24  stm32f10x_usart.o(.text)
    USART_OverSampling8Cmd                   0x08001c8d   Thumb Code    22  stm32f10x_usart.o(.text)
    USART_OneBitMethodCmd                    0x08001ca3   Thumb Code    24  stm32f10x_usart.o(.text)
    USART_IrDAConfig                         0x08001cbb   Thumb Code    18  stm32f10x_usart.o(.text)
    USART_IrDACmd                            0x08001ccd   Thumb Code    24  stm32f10x_usart.o(.text)
    USART_GetFlagStatus                      0x08001ce5   Thumb Code    26  stm32f10x_usart.o(.text)
    USART_ClearFlag                          0x08001cff   Thumb Code    18  stm32f10x_usart.o(.text)
    USART_GetITStatus                        0x08001d11   Thumb Code    84  stm32f10x_usart.o(.text)
    USART_ClearITPendingBit                  0x08001d65   Thumb Code    52  stm32f10x_usart.o(.text)
    NVIC_PriorityGroupConfig                 0x08001d99   Thumb Code    10  misc.o(.text)
    NVIC_Init                                0x08001da3   Thumb Code   100  misc.o(.text)
    NVIC_SetVectorTable                      0x08001e07   Thumb Code    14  misc.o(.text)
    NVIC_SystemLPConfig                      0x08001e15   Thumb Code    34  misc.o(.text)
    SysTick_CLKSourceConfig                  0x08001e37   Thumb Code    40  misc.o(.text)
    TIM_DeInit                               0x08001e75   Thumb Code   424  stm32f10x_tim.o(.text)
    TIM_TimeBaseInit                         0x0800201d   Thumb Code   122  stm32f10x_tim.o(.text)
    TIM_OC1Init                              0x08002097   Thumb Code   132  stm32f10x_tim.o(.text)
    TIM_OC2Init                              0x0800211b   Thumb Code   154  stm32f10x_tim.o(.text)
    TIM_OC3Init                              0x080021b5   Thumb Code   150  stm32f10x_tim.o(.text)
    TIM_OC4Init                              0x0800224b   Thumb Code   182  stm32f10x_tim.o(.text)
    TIM_SetIC4Prescaler                      0x08002301   Thumb Code    26  stm32f10x_tim.o(.text)
    TIM_SetIC3Prescaler                      0x0800239d   Thumb Code    18  stm32f10x_tim.o(.text)
    TIM_SetIC2Prescaler                      0x08002429   Thumb Code    26  stm32f10x_tim.o(.text)
    TIM_SetIC1Prescaler                      0x080024c5   Thumb Code    18  stm32f10x_tim.o(.text)
    TIM_ICInit                               0x08002543   Thumb Code   150  stm32f10x_tim.o(.text)
    TIM_PWMIConfig                           0x080025d9   Thumb Code   124  stm32f10x_tim.o(.text)
    TIM_BDTRConfig                           0x08002655   Thumb Code    32  stm32f10x_tim.o(.text)
    TIM_TimeBaseStructInit                   0x08002675   Thumb Code    18  stm32f10x_tim.o(.text)
    TIM_OCStructInit                         0x08002687   Thumb Code    20  stm32f10x_tim.o(.text)
    TIM_ICStructInit                         0x0800269b   Thumb Code    18  stm32f10x_tim.o(.text)
    TIM_BDTRStructInit                       0x080026ad   Thumb Code    40  stm32f10x_tim.o(.text)
    TIM_Cmd                                  0x080026d5   Thumb Code    24  stm32f10x_tim.o(.text)
    TIM_CtrlPWMOutputs                       0x080026ed   Thumb Code    30  stm32f10x_tim.o(.text)
    TIM_ITConfig                             0x0800270b   Thumb Code    18  stm32f10x_tim.o(.text)
    TIM_GenerateEvent                        0x0800271d   Thumb Code     4  stm32f10x_tim.o(.text)
    TIM_DMAConfig                            0x08002721   Thumb Code    10  stm32f10x_tim.o(.text)
    TIM_DMACmd                               0x0800272b   Thumb Code    18  stm32f10x_tim.o(.text)
    TIM_InternalClockConfig                  0x0800273d   Thumb Code    12  stm32f10x_tim.o(.text)
    TIM_SelectInputTrigger                   0x08002749   Thumb Code    18  stm32f10x_tim.o(.text)
    TIM_ITRxExternalClockConfig              0x0800275b   Thumb Code    24  stm32f10x_tim.o(.text)
    TIM_TIxExternalClockConfig               0x08002773   Thumb Code    62  stm32f10x_tim.o(.text)
    TIM_ETRConfig                            0x080027b1   Thumb Code    28  stm32f10x_tim.o(.text)
    TIM_ETRClockMode1Config                  0x080027cd   Thumb Code    54  stm32f10x_tim.o(.text)
    TIM_ETRClockMode2Config                  0x08002803   Thumb Code    32  stm32f10x_tim.o(.text)
    TIM_PrescalerConfig                      0x08002823   Thumb Code     6  stm32f10x_tim.o(.text)
    TIM_CounterModeConfig                    0x08002829   Thumb Code    18  stm32f10x_tim.o(.text)
    TIM_EncoderInterfaceConfig               0x0800283b   Thumb Code    66  stm32f10x_tim.o(.text)
    TIM_ForcedOC1Config                      0x0800287d   Thumb Code    18  stm32f10x_tim.o(.text)
    TIM_ForcedOC2Config                      0x0800288f   Thumb Code    26  stm32f10x_tim.o(.text)
    TIM_ForcedOC3Config                      0x080028a9   Thumb Code    18  stm32f10x_tim.o(.text)
    TIM_ForcedOC4Config                      0x080028bb   Thumb Code    26  stm32f10x_tim.o(.text)
    TIM_ARRPreloadConfig                     0x080028d5   Thumb Code    24  stm32f10x_tim.o(.text)
    TIM_SelectCOM                            0x080028ed   Thumb Code    24  stm32f10x_tim.o(.text)
    TIM_SelectCCDMA                          0x08002905   Thumb Code    24  stm32f10x_tim.o(.text)
    TIM_CCPreloadControl                     0x0800291d   Thumb Code    24  stm32f10x_tim.o(.text)
    TIM_OC1PreloadConfig                     0x08002935   Thumb Code    18  stm32f10x_tim.o(.text)
    TIM_OC2PreloadConfig                     0x08002947   Thumb Code    26  stm32f10x_tim.o(.text)
    TIM_OC3PreloadConfig                     0x08002961   Thumb Code    18  stm32f10x_tim.o(.text)
    TIM_OC4PreloadConfig                     0x08002973   Thumb Code    26  stm32f10x_tim.o(.text)
    TIM_OC1FastConfig                        0x0800298d   Thumb Code    18  stm32f10x_tim.o(.text)
    TIM_OC2FastConfig                        0x0800299f   Thumb Code    26  stm32f10x_tim.o(.text)
    TIM_OC3FastConfig                        0x080029b9   Thumb Code    18  stm32f10x_tim.o(.text)
    TIM_OC4FastConfig                        0x080029cb   Thumb Code    26  stm32f10x_tim.o(.text)
    TIM_ClearOC1Ref                          0x080029e5   Thumb Code    18  stm32f10x_tim.o(.text)
    TIM_ClearOC2Ref                          0x080029f7   Thumb Code    24  stm32f10x_tim.o(.text)
    TIM_ClearOC3Ref                          0x08002a0f   Thumb Code    18  stm32f10x_tim.o(.text)
    TIM_ClearOC4Ref                          0x08002a21   Thumb Code    24  stm32f10x_tim.o(.text)
    TIM_OC1PolarityConfig                    0x08002a39   Thumb Code    18  stm32f10x_tim.o(.text)
    TIM_OC1NPolarityConfig                   0x08002a4b   Thumb Code    18  stm32f10x_tim.o(.text)
    TIM_OC2PolarityConfig                    0x08002a5d   Thumb Code    26  stm32f10x_tim.o(.text)
    TIM_OC2NPolarityConfig                   0x08002a77   Thumb Code    26  stm32f10x_tim.o(.text)
    TIM_OC3PolarityConfig                    0x08002a91   Thumb Code    26  stm32f10x_tim.o(.text)
    TIM_OC3NPolarityConfig                   0x08002aab   Thumb Code    26  stm32f10x_tim.o(.text)
    TIM_OC4PolarityConfig                    0x08002ac5   Thumb Code    26  stm32f10x_tim.o(.text)
    TIM_CCxCmd                               0x08002adf   Thumb Code    30  stm32f10x_tim.o(.text)
    TIM_CCxNCmd                              0x08002afd   Thumb Code    30  stm32f10x_tim.o(.text)
    TIM_SelectOCxM                           0x08002b1b   Thumb Code    82  stm32f10x_tim.o(.text)
    TIM_UpdateDisableConfig                  0x08002b6d   Thumb Code    24  stm32f10x_tim.o(.text)
    TIM_UpdateRequestConfig                  0x08002b85   Thumb Code    24  stm32f10x_tim.o(.text)
    TIM_SelectHallSensor                     0x08002b9d   Thumb Code    24  stm32f10x_tim.o(.text)
    TIM_SelectOnePulseMode                   0x08002bb5   Thumb Code    18  stm32f10x_tim.o(.text)
    TIM_SelectOutputTrigger                  0x08002bc7   Thumb Code    18  stm32f10x_tim.o(.text)
    TIM_SelectSlaveMode                      0x08002bd9   Thumb Code    18  stm32f10x_tim.o(.text)
    TIM_SelectMasterSlaveMode                0x08002beb   Thumb Code    18  stm32f10x_tim.o(.text)
    TIM_SetCounter                           0x08002bfd   Thumb Code     4  stm32f10x_tim.o(.text)
    TIM_SetAutoreload                        0x08002c01   Thumb Code     4  stm32f10x_tim.o(.text)
    TIM_SetCompare1                          0x08002c05   Thumb Code     4  stm32f10x_tim.o(.text)
    TIM_SetCompare2                          0x08002c09   Thumb Code     4  stm32f10x_tim.o(.text)
    TIM_SetCompare3                          0x08002c0d   Thumb Code     4  stm32f10x_tim.o(.text)
    TIM_SetCompare4                          0x08002c11   Thumb Code     6  stm32f10x_tim.o(.text)
    TIM_SetClockDivision                     0x08002c17   Thumb Code    18  stm32f10x_tim.o(.text)
    TIM_GetCapture1                          0x08002c29   Thumb Code     6  stm32f10x_tim.o(.text)
    TIM_GetCapture2                          0x08002c2f   Thumb Code     6  stm32f10x_tim.o(.text)
    TIM_GetCapture3                          0x08002c35   Thumb Code     6  stm32f10x_tim.o(.text)
    TIM_GetCapture4                          0x08002c3b   Thumb Code     8  stm32f10x_tim.o(.text)
    TIM_GetCounter                           0x08002c43   Thumb Code     6  stm32f10x_tim.o(.text)
    TIM_GetPrescaler                         0x08002c49   Thumb Code     6  stm32f10x_tim.o(.text)
    TIM_GetFlagStatus                        0x08002c4f   Thumb Code    18  stm32f10x_tim.o(.text)
    TIM_ClearFlag                            0x08002c61   Thumb Code     6  stm32f10x_tim.o(.text)
    TIM_GetITStatus                          0x08002c67   Thumb Code    34  stm32f10x_tim.o(.text)
    TIM_ClearITPendingBit                    0x08002c89   Thumb Code     6  stm32f10x_tim.o(.text)
    EXTI_DeInit                              0x08002c91   Thumb Code    28  stm32f10x_exti.o(.text)
    EXTI_Init                                0x08002cad   Thumb Code   142  stm32f10x_exti.o(.text)
    EXTI_StructInit                          0x08002d3b   Thumb Code    16  stm32f10x_exti.o(.text)
    EXTI_GenerateSWInterrupt                 0x08002d4b   Thumb Code    16  stm32f10x_exti.o(.text)
    EXTI_GetFlagStatus                       0x08002d5b   Thumb Code    22  stm32f10x_exti.o(.text)
    EXTI_ClearFlag                           0x08002d71   Thumb Code     8  stm32f10x_exti.o(.text)
    EXTI_GetITStatus                         0x08002d79   Thumb Code    34  stm32f10x_exti.o(.text)
    EXTI_ClearITPendingBit                   0x08002d9b   Thumb Code     8  stm32f10x_exti.o(.text)
    __c89vsnprintf                           0x08002dad   Thumb Code    48  c89vsnprintf.o(.text)
    __2sprintf                               0x08002de1   Thumb Code    38  __2sprintf.o(.text)
    _printf_pre_padding                      0x08002e0d   Thumb Code    44  _printf_pad.o(.text)
    _printf_post_padding                     0x08002e39   Thumb Code    34  _printf_pad.o(.text)
    _printf_int_dec                          0x08002e5d   Thumb Code   104  _printf_dec.o(.text)
    __printf                                 0x08002ed5   Thumb Code   388  __printf_flags_ss_wp.o(.text)
    __use_two_region_memory                  0x0800305d   Thumb Code     2  heapauxi.o(.text)
    __rt_heap_escrow$2region                 0x0800305f   Thumb Code     2  heapauxi.o(.text)
    __rt_heap_expand$2region                 0x08003061   Thumb Code     2  heapauxi.o(.text)
    _printf_truncate_signed                  0x08003063   Thumb Code    18  _printf_truncate.o(.text)
    _printf_truncate_unsigned                0x08003075   Thumb Code    18  _printf_truncate.o(.text)
    _printf_str                              0x08003087   Thumb Code    82  _printf_str.o(.text)
    _printf_int_common                       0x080030d9   Thumb Code   178  _printf_intcommon.o(.text)
    _printf_charcount                        0x0800318b   Thumb Code    40  _printf_charcount.o(.text)
    _printf_char_common                      0x080031bf   Thumb Code    32  _printf_char_common.o(.text)
    _sputc                                   0x080031e5   Thumb Code    10  _sputc.o(.text)
    _snputc                                  0x080031ef   Thumb Code    16  _snputc.o(.text)
    _printf_wctomb                           0x08003201   Thumb Code   182  _printf_wctomb.o(.text)
    _printf_longlong_dec                     0x080032bd   Thumb Code   108  _printf_longlong_dec.o(.text)
    _printf_longlong_oct                     0x08003339   Thumb Code    66  _printf_oct_int_ll.o(.text)
    _printf_int_oct                          0x0800337b   Thumb Code    24  _printf_oct_int_ll.o(.text)
    _printf_ll_oct                           0x08003393   Thumb Code    12  _printf_oct_int_ll.o(.text)
    _printf_longlong_hex                     0x080033a9   Thumb Code    86  _printf_hex_int_ll_ptr.o(.text)
    _printf_int_hex                          0x080033ff   Thumb Code    28  _printf_hex_int_ll_ptr.o(.text)
    _printf_ll_hex                           0x0800341b   Thumb Code    12  _printf_hex_int_ll_ptr.o(.text)
    _printf_hex_ptr                          0x08003427   Thumb Code    18  _printf_hex_int_ll_ptr.o(.text)
    _ll_udiv10                               0x0800343d   Thumb Code   138  lludiv10.o(.text)
    __lib_sel_fp_printf                      0x080034c7   Thumb Code     2  _printf_fp_dec.o(.text)
    _printf_fp_dec_real                      0x08003679   Thumb Code   620  _printf_fp_dec.o(.text)
    _printf_cs_common                        0x080038e5   Thumb Code    20  _printf_char.o(.text)
    _printf_char                             0x080038f9   Thumb Code    16  _printf_char.o(.text)
    _printf_string                           0x08003909   Thumb Code     8  _printf_char.o(.text)
    _printf_lcs_common                       0x08003911   Thumb Code    20  _printf_wchar.o(.text)
    _printf_wchar                            0x08003925   Thumb Code    16  _printf_wchar.o(.text)
    _printf_wstring                          0x08003935   Thumb Code     8  _printf_wchar.o(.text)
    _wcrtomb                                 0x0800393d   Thumb Code    64  _wcrtomb.o(.text)
    __user_setup_stackheap                   0x0800397d   Thumb Code    74  sys_stackheap_outer.o(.text)
    __rt_ctype_table                         0x080039c9   Thumb Code    16  rt_ctype_table.o(.text)
    __rt_locale                              0x080039d9   Thumb Code     8  rt_locale_intlibspace.o(.text)
    _printf_fp_infnan                        0x080039e1   Thumb Code   112  _printf_fp_infnan.o(.text)
    _btod_etento                             0x08003a61   Thumb Code   224  bigflt0.o(.text)
    exit                                     0x08003b45   Thumb Code    18  exit.o(.text)
    __user_libspace                          0x08003b59   Thumb Code     8  libspace.o(.text)
    __user_perproc_libspace                  0x08003b59   Thumb Code     0  libspace.o(.text)
    __user_perthread_libspace                0x08003b59   Thumb Code     0  libspace.o(.text)
    strcmp                                   0x08003b61   Thumb Code   128  strcmpv7m.o(.text)
    _sys_exit                                0x08003be1   Thumb Code     8  sys_exit.o(.text)
    __I$use$semihosting                      0x08003bed   Thumb Code     0  use_no_semi.o(.text)
    __use_no_semihosting_swi                 0x08003bed   Thumb Code     2  use_no_semi.o(.text)
    __semihosting_library_function           0x08003bef   Thumb Code     0  indicate_semi.o(.text)
    _btod_d2e                                0x08003bef   Thumb Code    62  btod.o(CL$$btod_d2e)
    _d2e_denorm_low                          0x08003c2d   Thumb Code    70  btod.o(CL$$btod_d2e_denorm_low)
    _d2e_norm_op1                            0x08003c73   Thumb Code    96  btod.o(CL$$btod_d2e_norm_op1)
    __btod_div_common                        0x08003cd3   Thumb Code   696  btod.o(CL$$btod_div_common)
    _e2e                                     0x0800400b   Thumb Code   220  btod.o(CL$$btod_e2e)
    _btod_ediv                               0x080040e7   Thumb Code    42  btod.o(CL$$btod_ediv)
    _btod_emul                               0x08004111   Thumb Code    42  btod.o(CL$$btod_emul)
    __btod_mult_common                       0x0800413b   Thumb Code   580  btod.o(CL$$btod_mult_common)
    __ARM_fpclassify                         0x0800437f   Thumb Code    40  fpclassify.o(i.__ARM_fpclassify)
    _is_digit                                0x080043a7   Thumb Code    14  __printf_wp.o(i._is_digit)
    _get_lc_numeric                          0x080043b5   Thumb Code    44  lc_numeric_c.o(locale$$code)
    _get_lc_ctype                            0x080043e1   Thumb Code    44  lc_ctype_c.o(locale$$code)
    __aeabi_fadd                             0x0800440d   Thumb Code     0  faddsub_clz.o(x$fpl$fadd)
    _fadd                                    0x0800440d   Thumb Code   196  faddsub_clz.o(x$fpl$fadd)
    __aeabi_f2iz                             0x080044d1   Thumb Code     0  ffix.o(x$fpl$ffix)
    _ffix                                    0x080044d1   Thumb Code    54  ffix.o(x$fpl$ffix)
    __aeabi_i2f                              0x08004509   Thumb Code     0  fflt_clz.o(x$fpl$fflt)
    _fflt                                    0x08004509   Thumb Code    48  fflt_clz.o(x$fpl$fflt)
    __aeabi_fmul                             0x08004539   Thumb Code     0  fmul.o(x$fpl$fmul)
    _fmul                                    0x08004539   Thumb Code   258  fmul.o(x$fpl$fmul)
    __fpl_fnaninf                            0x0800463b   Thumb Code   140  fnaninf.o(x$fpl$fnaninf)
    __fpl_fretinf                            0x080046c7   Thumb Code    10  fretinf.o(x$fpl$fretinf)
    __aeabi_fsub                             0x080046d1   Thumb Code     0  faddsub_clz.o(x$fpl$fsub)
    _fsub                                    0x080046d1   Thumb Code   234  faddsub_clz.o(x$fpl$fsub)
    _printf_fp_dec                           0x080047bb   Thumb Code     4  printf1.o(x$fpl$printf1)
    __I$use$fp                               0x080047be   Number         0  usenofp.o(x$fpl$usenofp)
    asc2_1206                                0x080047be   Data        1140  oled.o(.constdata)
    asc2_1608                                0x08004c32   Data        1520  oled.o(.constdata)
    asc2_2412                                0x08005222   Data        3420  oled.o(.constdata)
    Region$$Table$$Base                      0x08006054   Number         0  anon$$obj.o(Region$$Table)
    Region$$Table$$Limit                     0x08006074   Number         0  anon$$obj.o(Region$$Table)
    __ctype                                  0x0800609d   Data           0  lc_ctype_c.o(locale$$data)
    pwm                                      0x20000000   Data           4  main.o(.data)
    count                                    0x20000004   Data           4  main.o(.data)
    aim_speed                                0x20000008   Data           4  main.o(.data)
    SystemCoreClock                          0x2000000c   Data           4  system_stm32f10x.o(.data)
    AHBPrescTable                            0x20000010   Data          16  system_stm32f10x.o(.data)
    Motor_Count                              0x20000020   Data           4  exti.o(.data)
    kp                                       0x20000024   Data           4  pid.o(.data)
    ki                                       0x20000028   Data           4  pid.o(.data)
    kd                                       0x2000002c   Data           4  pid.o(.data)
    oledBuf                                  0x20000058   Data          20  main.o(.bss)
    OLED_GRAM                                0x2000006c   Data        1152  oled.o(.bss)
    __libspace_start                         0x200004ec   Data          96  libspace.o(.bss)
    __temporary_stack_top$libspace           0x2000054c   Data           0  libspace.o(.bss)



==============================================================================

Memory Map of the image

  Image Entry point : 0x080000ed

  Load Region LR_IROM1 (Base: 0x08000000, Size: 0x000061f8, Max: 0x00010000, ABSOLUTE)

    Execution Region ER_IROM1 (Exec base: 0x08000000, Load base: 0x08000000, Size: 0x000061a0, Max: 0x00010000, ABSOLUTE)

    Exec Addr    Load Addr    Size         Type   Attr      Idx    E Section Name        Object

    0x08000000   0x08000000   0x000000ec   Data   RO          353    RESET               startup_stm32f10x_md.o
    0x080000ec   0x080000ec   0x00000008   Code   RO          470  * !!!main             c_w.l(__main.o)
    0x080000f4   0x080000f4   0x00000034   Code   RO          778    !!!scatter          c_w.l(__scatter.o)
    0x08000128   0x08000128   0x0000001a   Code   RO          780    !!handler_copy      c_w.l(__scatter_copy.o)
    0x08000142   0x08000142   0x00000002   PAD
    0x08000144   0x08000144   0x0000001c   Code   RO          782    !!handler_zi        c_w.l(__scatter_zi.o)
    0x08000160   0x08000160   0x00000000   Code   RO          467    .ARM.Collect$$_printf_percent$$00000000  c_w.l(_printf_percent.o)
    0x08000160   0x08000160   0x00000006   Code   RO          539    .ARM.Collect$$_printf_percent$$00000001  c_w.l(_printf_n.o)
    0x08000166   0x08000166   0x00000006   Code   RO          541    .ARM.Collect$$_printf_percent$$00000002  c_w.l(_printf_p.o)
    0x0800016c   0x0800016c   0x00000006   Code   RO          545    .ARM.Collect$$_printf_percent$$00000003  c_w.l(_printf_f.o)
    0x08000172   0x08000172   0x00000006   Code   RO          546    .ARM.Collect$$_printf_percent$$00000004  c_w.l(_printf_e.o)
    0x08000178   0x08000178   0x00000006   Code   RO          547    .ARM.Collect$$_printf_percent$$00000005  c_w.l(_printf_g.o)
    0x0800017e   0x0800017e   0x00000006   Code   RO          548    .ARM.Collect$$_printf_percent$$00000006  c_w.l(_printf_a.o)
    0x08000184   0x08000184   0x0000000a   Code   RO          553    .ARM.Collect$$_printf_percent$$00000007  c_w.l(_printf_ll.o)
    0x0800018e   0x0800018e   0x00000006   Code   RO          543    .ARM.Collect$$_printf_percent$$00000008  c_w.l(_printf_i.o)
    0x08000194   0x08000194   0x00000006   Code   RO          466    .ARM.Collect$$_printf_percent$$00000009  c_w.l(_printf_d.o)
    0x0800019a   0x0800019a   0x00000006   Code   RO          544    .ARM.Collect$$_printf_percent$$0000000A  c_w.l(_printf_u.o)
    0x080001a0   0x080001a0   0x00000006   Code   RO          542    .ARM.Collect$$_printf_percent$$0000000B  c_w.l(_printf_o.o)
    0x080001a6   0x080001a6   0x00000006   Code   RO          540    .ARM.Collect$$_printf_percent$$0000000C  c_w.l(_printf_x.o)
    0x080001ac   0x080001ac   0x00000006   Code   RO          550    .ARM.Collect$$_printf_percent$$0000000D  c_w.l(_printf_lli.o)
    0x080001b2   0x080001b2   0x00000006   Code   RO          551    .ARM.Collect$$_printf_percent$$0000000E  c_w.l(_printf_lld.o)
    0x080001b8   0x080001b8   0x00000006   Code   RO          552    .ARM.Collect$$_printf_percent$$0000000F  c_w.l(_printf_llu.o)
    0x080001be   0x080001be   0x00000006   Code   RO          557    .ARM.Collect$$_printf_percent$$00000010  c_w.l(_printf_llo.o)
    0x080001c4   0x080001c4   0x00000006   Code   RO          558    .ARM.Collect$$_printf_percent$$00000011  c_w.l(_printf_llx.o)
    0x080001ca   0x080001ca   0x0000000a   Code   RO          554    .ARM.Collect$$_printf_percent$$00000012  c_w.l(_printf_l.o)
    0x080001d4   0x080001d4   0x00000006   Code   RO          537    .ARM.Collect$$_printf_percent$$00000013  c_w.l(_printf_c.o)
    0x080001da   0x080001da   0x00000006   Code   RO          538    .ARM.Collect$$_printf_percent$$00000014  c_w.l(_printf_s.o)
    0x080001e0   0x080001e0   0x00000006   Code   RO          555    .ARM.Collect$$_printf_percent$$00000015  c_w.l(_printf_lc.o)
    0x080001e6   0x080001e6   0x00000006   Code   RO          556    .ARM.Collect$$_printf_percent$$00000016  c_w.l(_printf_ls.o)
    0x080001ec   0x080001ec   0x00000004   Code   RO          549    .ARM.Collect$$_printf_percent$$00000017  c_w.l(_printf_percent_end.o)
    0x080001f0   0x080001f0   0x00000002   Code   RO          639    .ARM.Collect$$libinit$$00000000  c_w.l(libinit.o)
    0x080001f2   0x080001f2   0x00000000   Code   RO          655    .ARM.Collect$$libinit$$00000002  c_w.l(libinit2.o)
    0x080001f2   0x080001f2   0x00000000   Code   RO          657    .ARM.Collect$$libinit$$00000004  c_w.l(libinit2.o)
    0x080001f2   0x080001f2   0x00000000   Code   RO          660    .ARM.Collect$$libinit$$0000000A  c_w.l(libinit2.o)
    0x080001f2   0x080001f2   0x00000000   Code   RO          662    .ARM.Collect$$libinit$$0000000C  c_w.l(libinit2.o)
    0x080001f2   0x080001f2   0x00000000   Code   RO          664    .ARM.Collect$$libinit$$0000000E  c_w.l(libinit2.o)
    0x080001f2   0x080001f2   0x00000006   Code   RO          665    .ARM.Collect$$libinit$$0000000F  c_w.l(libinit2.o)
    0x080001f8   0x080001f8   0x00000000   Code   RO          667    .ARM.Collect$$libinit$$00000011  c_w.l(libinit2.o)
    0x080001f8   0x080001f8   0x0000000c   Code   RO          668    .ARM.Collect$$libinit$$00000012  c_w.l(libinit2.o)
    0x08000204   0x08000204   0x00000000   Code   RO          669    .ARM.Collect$$libinit$$00000013  c_w.l(libinit2.o)
    0x08000204   0x08000204   0x00000000   Code   RO          671    .ARM.Collect$$libinit$$00000015  c_w.l(libinit2.o)
    0x08000204   0x08000204   0x0000000a   Code   RO          672    .ARM.Collect$$libinit$$00000016  c_w.l(libinit2.o)
    0x0800020e   0x0800020e   0x00000000   Code   RO          673    .ARM.Collect$$libinit$$00000017  c_w.l(libinit2.o)
    0x0800020e   0x0800020e   0x00000000   Code   RO          675    .ARM.Collect$$libinit$$00000019  c_w.l(libinit2.o)
    0x0800020e   0x0800020e   0x00000000   Code   RO          677    .ARM.Collect$$libinit$$0000001B  c_w.l(libinit2.o)
    0x0800020e   0x0800020e   0x00000000   Code   RO          679    .ARM.Collect$$libinit$$0000001D  c_w.l(libinit2.o)
    0x0800020e   0x0800020e   0x00000000   Code   RO          681    .ARM.Collect$$libinit$$0000001F  c_w.l(libinit2.o)
    0x0800020e   0x0800020e   0x00000000   Code   RO          683    .ARM.Collect$$libinit$$00000021  c_w.l(libinit2.o)
    0x0800020e   0x0800020e   0x00000000   Code   RO          685    .ARM.Collect$$libinit$$00000023  c_w.l(libinit2.o)
    0x0800020e   0x0800020e   0x00000000   Code   RO          687    .ARM.Collect$$libinit$$00000025  c_w.l(libinit2.o)
    0x0800020e   0x0800020e   0x00000000   Code   RO          691    .ARM.Collect$$libinit$$0000002C  c_w.l(libinit2.o)
    0x0800020e   0x0800020e   0x00000000   Code   RO          693    .ARM.Collect$$libinit$$0000002E  c_w.l(libinit2.o)
    0x0800020e   0x0800020e   0x00000000   Code   RO          695    .ARM.Collect$$libinit$$00000030  c_w.l(libinit2.o)
    0x0800020e   0x0800020e   0x00000000   Code   RO          697    .ARM.Collect$$libinit$$00000032  c_w.l(libinit2.o)
    0x0800020e   0x0800020e   0x00000002   Code   RO          698    .ARM.Collect$$libinit$$00000033  c_w.l(libinit2.o)
    0x08000210   0x08000210   0x00000002   Code   RO          718    .ARM.Collect$$libshutdown$$00000000  c_w.l(libshutdown.o)
    0x08000212   0x08000212   0x00000000   Code   RO          731    .ARM.Collect$$libshutdown$$00000002  c_w.l(libshutdown2.o)
    0x08000212   0x08000212   0x00000000   Code   RO          733    .ARM.Collect$$libshutdown$$00000004  c_w.l(libshutdown2.o)
    0x08000212   0x08000212   0x00000000   Code   RO          736    .ARM.Collect$$libshutdown$$00000007  c_w.l(libshutdown2.o)
    0x08000212   0x08000212   0x00000000   Code   RO          739    .ARM.Collect$$libshutdown$$0000000A  c_w.l(libshutdown2.o)
    0x08000212   0x08000212   0x00000000   Code   RO          741    .ARM.Collect$$libshutdown$$0000000C  c_w.l(libshutdown2.o)
    0x08000212   0x08000212   0x00000000   Code   RO          744    .ARM.Collect$$libshutdown$$0000000F  c_w.l(libshutdown2.o)
    0x08000212   0x08000212   0x00000002   Code   RO          745    .ARM.Collect$$libshutdown$$00000010  c_w.l(libshutdown2.o)
    0x08000214   0x08000214   0x00000000   Code   RO          490    .ARM.Collect$$rtentry$$00000000  c_w.l(__rtentry.o)
    0x08000214   0x08000214   0x00000000   Code   RO          567    .ARM.Collect$$rtentry$$00000002  c_w.l(__rtentry2.o)
    0x08000214   0x08000214   0x00000006   Code   RO          579    .ARM.Collect$$rtentry$$00000004  c_w.l(__rtentry4.o)
    0x0800021a   0x0800021a   0x00000000   Code   RO          569    .ARM.Collect$$rtentry$$00000009  c_w.l(__rtentry2.o)
    0x0800021a   0x0800021a   0x00000004   Code   RO          570    .ARM.Collect$$rtentry$$0000000A  c_w.l(__rtentry2.o)
    0x0800021e   0x0800021e   0x00000000   Code   RO          572    .ARM.Collect$$rtentry$$0000000C  c_w.l(__rtentry2.o)
    0x0800021e   0x0800021e   0x00000008   Code   RO          573    .ARM.Collect$$rtentry$$0000000D  c_w.l(__rtentry2.o)
    0x08000226   0x08000226   0x00000002   Code   RO          647    .ARM.Collect$$rtexit$$00000000  c_w.l(rtexit.o)
    0x08000228   0x08000228   0x00000000   Code   RO          700    .ARM.Collect$$rtexit$$00000002  c_w.l(rtexit2.o)
    0x08000228   0x08000228   0x00000004   Code   RO          701    .ARM.Collect$$rtexit$$00000003  c_w.l(rtexit2.o)
    0x0800022c   0x0800022c   0x00000006   Code   RO          702    .ARM.Collect$$rtexit$$00000004  c_w.l(rtexit2.o)
    0x08000232   0x08000232   0x00000002   PAD
    0x08000234   0x08000234   0x0000013c   Code   RO            1    .text               main.o
    0x08000370   0x08000370   0x0000001a   Code   RO          140    .text               stm32f10x_it.o
    0x0800038a   0x0800038a   0x00000002   PAD
    0x0800038c   0x0800038c   0x000001e0   Code   RO          181    .text               system_stm32f10x.o
    0x0800056c   0x0800056c   0x0000008c   Code   RO          199    .text               exti.o
    0x080005f8   0x080005f8   0x00000054   Code   RO          217    .text               motor.o
    0x0800064c   0x0800064c   0x000000a8   Code   RO          229    .text               pid.o
    0x080006f4   0x080006f4   0x00000124   Code   RO          244    .text               pwm.o
    0x08000818   0x08000818   0x00000064   Code   RO          256    .text               tim.o
    0x0800087c   0x0800087c   0x00000718   Code   RO          268    .text               oled.o
    0x08000f94   0x08000f94   0x000000d4   Code   RO          288    .text               delay.o
    0x08001068   0x08001068   0x000001e8   Code   RO          319    .text               usart.o
    0x08001250   0x08001250   0x00000040   Code   RO          354    .text               startup_stm32f10x_md.o
    0x08001290   0x08001290   0x0000035c   Code   RO          358    .text               stm32f10x_gpio.o
    0x080015ec   0x080015ec   0x000003a4   Code   RO          370    .text               stm32f10x_rcc.o
    0x08001990   0x08001990   0x00000408   Code   RO          384    .text               stm32f10x_usart.o
    0x08001d98   0x08001d98   0x000000dc   Code   RO          396    .text               misc.o
    0x08001e74   0x08001e74   0x00000e1a   Code   RO          408    .text               stm32f10x_tim.o
    0x08002c8e   0x08002c8e   0x00000002   PAD
    0x08002c90   0x08002c90   0x0000011c   Code   RO          420    .text               stm32f10x_exti.o
    0x08002dac   0x08002dac   0x00000034   Code   RO          434    .text               c_w.l(c89vsnprintf.o)
    0x08002de0   0x08002de0   0x0000002c   Code   RO          436    .text               c_w.l(__2sprintf.o)
    0x08002e0c   0x08002e0c   0x0000004e   Code   RO          442    .text               c_w.l(_printf_pad.o)
    0x08002e5a   0x08002e5a   0x00000002   PAD
    0x08002e5c   0x08002e5c   0x00000078   Code   RO          444    .text               c_w.l(_printf_dec.o)
    0x08002ed4   0x08002ed4   0x00000188   Code   RO          463    .text               c_w.l(__printf_flags_ss_wp.o)
    0x0800305c   0x0800305c   0x00000006   Code   RO          468    .text               c_w.l(heapauxi.o)
    0x08003062   0x08003062   0x00000024   Code   RO          491    .text               c_w.l(_printf_truncate.o)
    0x08003086   0x08003086   0x00000052   Code   RO          493    .text               c_w.l(_printf_str.o)
    0x080030d8   0x080030d8   0x000000b2   Code   RO          495    .text               c_w.l(_printf_intcommon.o)
    0x0800318a   0x0800318a   0x00000028   Code   RO          497    .text               c_w.l(_printf_charcount.o)
    0x080031b2   0x080031b2   0x00000002   PAD
    0x080031b4   0x080031b4   0x00000030   Code   RO          499    .text               c_w.l(_printf_char_common.o)
    0x080031e4   0x080031e4   0x0000000a   Code   RO          501    .text               c_w.l(_sputc.o)
    0x080031ee   0x080031ee   0x00000010   Code   RO          503    .text               c_w.l(_snputc.o)
    0x080031fe   0x080031fe   0x00000002   PAD
    0x08003200   0x08003200   0x000000bc   Code   RO          505    .text               c_w.l(_printf_wctomb.o)
    0x080032bc   0x080032bc   0x0000007c   Code   RO          508    .text               c_w.l(_printf_longlong_dec.o)
    0x08003338   0x08003338   0x00000070   Code   RO          514    .text               c_w.l(_printf_oct_int_ll.o)
    0x080033a8   0x080033a8   0x00000094   Code   RO          534    .text               c_w.l(_printf_hex_int_ll_ptr.o)
    0x0800343c   0x0800343c   0x0000008a   Code   RO          581    .text               c_w.l(lludiv10.o)
    0x080034c6   0x080034c6   0x0000041e   Code   RO          583    .text               c_w.l(_printf_fp_dec.o)
    0x080038e4   0x080038e4   0x0000002c   Code   RO          587    .text               c_w.l(_printf_char.o)
    0x08003910   0x08003910   0x0000002c   Code   RO          589    .text               c_w.l(_printf_wchar.o)
    0x0800393c   0x0800393c   0x00000040   Code   RO          591    .text               c_w.l(_wcrtomb.o)
    0x0800397c   0x0800397c   0x0000004a   Code   RO          593    .text               c_w.l(sys_stackheap_outer.o)
    0x080039c6   0x080039c6   0x00000002   PAD
    0x080039c8   0x080039c8   0x00000010   Code   RO          595    .text               c_w.l(rt_ctype_table.o)
    0x080039d8   0x080039d8   0x00000008   Code   RO          600    .text               c_w.l(rt_locale_intlibspace.o)
    0x080039e0   0x080039e0   0x00000080   Code   RO          602    .text               c_w.l(_printf_fp_infnan.o)
    0x08003a60   0x08003a60   0x000000e4   Code   RO          604    .text               c_w.l(bigflt0.o)
    0x08003b44   0x08003b44   0x00000012   Code   RO          632    .text               c_w.l(exit.o)
    0x08003b56   0x08003b56   0x00000002   PAD
    0x08003b58   0x08003b58   0x00000008   Code   RO          644    .text               c_w.l(libspace.o)
    0x08003b60   0x08003b60   0x00000080   Code   RO          652    .text               c_w.l(strcmpv7m.o)
    0x08003be0   0x08003be0   0x0000000c   Code   RO          710    .text               c_w.l(sys_exit.o)
    0x08003bec   0x08003bec   0x00000002   Code   RO          721    .text               c_w.l(use_no_semi.o)
    0x08003bee   0x08003bee   0x00000000   Code   RO          723    .text               c_w.l(indicate_semi.o)
    0x08003bee   0x08003bee   0x0000003e   Code   RO          607    CL$$btod_d2e        c_w.l(btod.o)
    0x08003c2c   0x08003c2c   0x00000046   Code   RO          609    CL$$btod_d2e_denorm_low  c_w.l(btod.o)
    0x08003c72   0x08003c72   0x00000060   Code   RO          608    CL$$btod_d2e_norm_op1  c_w.l(btod.o)
    0x08003cd2   0x08003cd2   0x00000338   Code   RO          617    CL$$btod_div_common  c_w.l(btod.o)
    0x0800400a   0x0800400a   0x000000dc   Code   RO          614    CL$$btod_e2e        c_w.l(btod.o)
    0x080040e6   0x080040e6   0x0000002a   Code   RO          611    CL$$btod_ediv       c_w.l(btod.o)
    0x08004110   0x08004110   0x0000002a   Code   RO          610    CL$$btod_emul       c_w.l(btod.o)
    0x0800413a   0x0800413a   0x00000244   Code   RO          616    CL$$btod_mult_common  c_w.l(btod.o)
    0x0800437e   0x0800437e   0x00000028   Code   RO          642    i.__ARM_fpclassify  m_ws.l(fpclassify.o)
    0x080043a6   0x080043a6   0x0000000e   Code   RO          456    i._is_digit         c_w.l(__printf_wp.o)
    0x080043b4   0x080043b4   0x0000002c   Code   RO          630    locale$$code        c_w.l(lc_numeric_c.o)
    0x080043e0   0x080043e0   0x0000002c   Code   RO          650    locale$$code        c_w.l(lc_ctype_c.o)
    0x0800440c   0x0800440c   0x000000c4   Code   RO          472    x$fpl$fadd          fz_ws.l(faddsub_clz.o)
    0x080044d0   0x080044d0   0x00000036   Code   RO          478    x$fpl$ffix          fz_ws.l(ffix.o)
    0x08004506   0x08004506   0x00000002   PAD
    0x08004508   0x08004508   0x00000030   Code   RO          483    x$fpl$fflt          fz_ws.l(fflt_clz.o)
    0x08004538   0x08004538   0x00000102   Code   RO          488    x$fpl$fmul          fz_ws.l(fmul.o)
    0x0800463a   0x0800463a   0x0000008c   Code   RO          559    x$fpl$fnaninf       fz_ws.l(fnaninf.o)
    0x080046c6   0x080046c6   0x0000000a   Code   RO          561    x$fpl$fretinf       fz_ws.l(fretinf.o)
    0x080046d0   0x080046d0   0x000000ea   Code   RO          474    x$fpl$fsub          fz_ws.l(faddsub_clz.o)
    0x080047ba   0x080047ba   0x00000004   Code   RO          563    x$fpl$printf1       fz_ws.l(printf1.o)
    0x080047be   0x080047be   0x00000000   Code   RO          565    x$fpl$usenofp       fz_ws.l(usenofp.o)
    0x080047be   0x080047be   0x000017c0   Data   RO          270    .constdata          oled.o
    0x08005f7e   0x08005f7e   0x00000011   Data   RO          464    .constdata          c_w.l(__printf_flags_ss_wp.o)
    0x08005f8f   0x08005f8f   0x00000001   PAD
    0x08005f90   0x08005f90   0x00000008   Data   RO          506    .constdata          c_w.l(_printf_wctomb.o)
    0x08005f98   0x08005f98   0x00000028   Data   RO          535    .constdata          c_w.l(_printf_hex_int_ll_ptr.o)
    0x08005fc0   0x08005fc0   0x00000094   Data   RO          605    .constdata          c_w.l(bigflt0.o)
    0x08006054   0x08006054   0x00000020   Data   RO          776    Region$$Table       anon$$obj.o
    0x08006074   0x08006074   0x0000001c   Data   RO          629    locale$$data        c_w.l(lc_numeric_c.o)
    0x08006090   0x08006090   0x00000110   Data   RO          649    locale$$data        c_w.l(lc_ctype_c.o)


    Execution Region RW_IRAM1 (Exec base: 0x20000000, Load base: 0x080061a0, Size: 0x00000b50, Max: 0x00005000, ABSOLUTE)

    Exec Addr    Load Addr    Size         Type   Attr      Idx    E Section Name        Object

    0x20000000   0x080061a0   0x0000000c   Data   RW            3    .data               main.o
    0x2000000c   0x080061ac   0x00000014   Data   RW          182    .data               system_stm32f10x.o
    0x20000020   0x080061c0   0x00000004   Data   RW          200    .data               exti.o
    0x20000024   0x080061c4   0x0000001c   Data   RW          230    .data               pid.o
    0x20000040   0x080061e0   0x00000004   Data   RW          289    .data               delay.o
    0x20000044   0x080061e4   0x00000014   Data   RW          371    .data               stm32f10x_rcc.o
    0x20000058        -       0x00000014   Zero   RW            2    .bss                main.o
    0x2000006c        -       0x00000480   Zero   RW          269    .bss                oled.o
    0x200004ec        -       0x00000060   Zero   RW          645    .bss                c_w.l(libspace.o)
    0x2000054c   0x080061f8   0x00000004   PAD
    0x20000550        -       0x00000200   Zero   RW          352    HEAP                startup_stm32f10x_md.o
    0x20000750        -       0x00000400   Zero   RW          351    STACK               startup_stm32f10x_md.o


==============================================================================

Image component sizes


      Code (inc. data)   RO Data    RW Data    ZI Data      Debug   Object Name

       212         18          0          4          0       1095   delay.o
       140          8          0          4          0        999   exti.o
       316         90          0         12         20     254929   main.o
       220         22          0          0          0       1825   misc.o
        84         14          0          0          0        743   motor.o
      1816         28       6080          0       1152       7666   oled.o
       168         30          0         28          0        961   pid.o
       292         14          0          0          0       1079   pwm.o
        64         26        236          0       1536        784   startup_stm32f10x_md.o
       284         10          0          0          0       2283   stm32f10x_exti.o
       860         38          0          0          0       5761   stm32f10x_gpio.o
        26          0          0          0          0       1194   stm32f10x_it.o
       932         36          0         20          0       8956   stm32f10x_rcc.o
      3610         88          0          0          0      22868   stm32f10x_tim.o
      1032         22          0          0          0       8484   stm32f10x_usart.o
         0          0          0          0          0         32   sys.o
       480         38          0         20          0       1779   system_stm32f10x.o
       100          4          0          0          0        779   tim.o
       488         14          0          0          0       2965   usart.o

    ----------------------------------------------------------------------
     11128        500       6348         88       2708     325182   Object Totals
         0          0         32          0          0          0   (incl. Generated)
         4          0          0          0          0          0   (incl. Padding)

    ----------------------------------------------------------------------

      Code (inc. data)   RO Data    RW Data    ZI Data      Debug   Library Member Name

        44          6          0          0          0         84   __2sprintf.o
         8          0          0          0          0         68   __main.o
       392          4         17          0          0         92   __printf_flags_ss_wp.o
        14          0          0          0          0         68   __printf_wp.o
         0          0          0          0          0          0   __rtentry.o
        12          0          0          0          0          0   __rtentry2.o
         6          0          0          0          0          0   __rtentry4.o
        52          8          0          0          0          0   __scatter.o
        26          0          0          0          0          0   __scatter_copy.o
        28          0          0          0          0          0   __scatter_zi.o
         6          0          0          0          0          0   _printf_a.o
         6          0          0          0          0          0   _printf_c.o
        44          0          0          0          0        108   _printf_char.o
        48          6          0          0          0         96   _printf_char_common.o
        40          0          0          0          0         68   _printf_charcount.o
         6          0          0          0          0          0   _printf_d.o
       120         16          0          0          0         92   _printf_dec.o
         6          0          0          0          0          0   _printf_e.o
         6          0          0          0          0          0   _printf_f.o
      1054          0          0          0          0        216   _printf_fp_dec.o
       128         16          0          0          0         84   _printf_fp_infnan.o
         6          0          0          0          0          0   _printf_g.o
       148          4         40          0          0        160   _printf_hex_int_ll_ptr.o
         6          0          0          0          0          0   _printf_i.o
       178          0          0          0          0         88   _printf_intcommon.o
        10          0          0          0          0          0   _printf_l.o
         6          0          0          0          0          0   _printf_lc.o
        10          0          0          0          0          0   _printf_ll.o
         6          0          0          0          0          0   _printf_lld.o
         6          0          0          0          0          0   _printf_lli.o
         6          0          0          0          0          0   _printf_llo.o
         6          0          0          0          0          0   _printf_llu.o
         6          0          0          0          0          0   _printf_llx.o
       124         16          0          0          0         92   _printf_longlong_dec.o
         6          0          0          0          0          0   _printf_ls.o
         6          0          0          0          0          0   _printf_n.o
         6          0          0          0          0          0   _printf_o.o
       112         10          0          0          0        124   _printf_oct_int_ll.o
         6          0          0          0          0          0   _printf_p.o
        78          0          0          0          0        108   _printf_pad.o
         0          0          0          0          0          0   _printf_percent.o
         4          0          0          0          0          0   _printf_percent_end.o
         6          0          0          0          0          0   _printf_s.o
        82          0          0          0          0         80   _printf_str.o
        36          0          0          0          0         84   _printf_truncate.o
         6          0          0          0          0          0   _printf_u.o
        44          0          0          0          0        108   _printf_wchar.o
       188          6          8          0          0         92   _printf_wctomb.o
         6          0          0          0          0          0   _printf_x.o
        16          0          0          0          0         68   _snputc.o
        10          0          0          0          0         68   _sputc.o
        64          0          0          0          0         92   _wcrtomb.o
       228          4        148          0          0         96   bigflt0.o
      1936        128          0          0          0        672   btod.o
        52          4          0          0          0         80   c89vsnprintf.o
        18          0          0          0          0         80   exit.o
         6          0          0          0          0        152   heapauxi.o
         0          0          0          0          0          0   indicate_semi.o
        44         10        272          0          0         76   lc_ctype_c.o
        44         10         28          0          0         76   lc_numeric_c.o
         2          0          0          0          0          0   libinit.o
        30          0          0          0          0          0   libinit2.o
         2          0          0          0          0          0   libshutdown.o
         2          0          0          0          0          0   libshutdown2.o
         8          4          0          0         96         68   libspace.o
       138          0          0          0          0         80   lludiv10.o
        16          4          0          0          0         76   rt_ctype_table.o
         8          4          0          0          0         68   rt_locale_intlibspace.o
         2          0          0          0          0          0   rtexit.o
        10          0          0          0          0          0   rtexit2.o
       128          0          0          0          0         68   strcmpv7m.o
        12          4          0          0          0         68   sys_exit.o
        74          0          0          0          0         80   sys_stackheap_outer.o
         2          0          0          0          0         68   use_no_semi.o
       430          8          0          0          0        168   faddsub_clz.o
        54          4          0          0          0         84   ffix.o
        48          0          0          0          0         68   fflt_clz.o
       258          4          0          0          0         84   fmul.o
       140          4          0          0          0         84   fnaninf.o
        10          0          0          0          0         68   fretinf.o
         4          0          0          0          0         68   printf1.o
         0          0          0          0          0          0   usenofp.o
        40          0          0          0          0         68   fpclassify.o

    ----------------------------------------------------------------------
      7002        284        514          0        100       4640   Library Totals
        16          0          1          0          4          0   (incl. Padding)

    ----------------------------------------------------------------------

      Code (inc. data)   RO Data    RW Data    ZI Data      Debug   Library Name

      6002        264        513          0         96       3948   c_w.l
       944         20          0          0          0        624   fz_ws.l
        40          0          0          0          0         68   m_ws.l

    ----------------------------------------------------------------------
      7002        284        514          0        100       4640   Library Totals

    ----------------------------------------------------------------------

==============================================================================


      Code (inc. data)   RO Data    RW Data    ZI Data      Debug   

     18130        784       6862         88       2808     325918   Grand Totals
     18130        784       6862         88       2808     325918   ELF Image Totals
     18130        784       6862         88          0          0   ROM Totals

==============================================================================

    Total RO  Size (Code + RO Data)                24992 (  24.41kB)
    Total RW  Size (RW Data + ZI Data)              2896 (   2.83kB)
    Total ROM Size (Code + RO Data + RW Data)      25080 (  24.49kB)

==============================================================================

