:03000000020706EE
:0C070600787FE4F6D8FD75816702074D8E
:020AB000AD0790
:100AB200E4FFFEC297C294EDC454F0FDE4FB30950E
:100AC20003430701ED339296D297C297ED25E0FDDD
:100AD200EF25E0FFEE33FE0BBB0CE3D294EEC31323
:070AE200FEEF138E66F567BD
:010AE90022EA
:100B5A00E4F565120A6F758901758CD8758AF0D229
:0C0B6A008CD2AFD2A9AF65120AB080F99E
:03000B0002098661
:10098600C0E0C0F0C083C082C0D075D000C000C037
:1009960001C002C003C004C005C006C007758CD8DC
:1009A600758AF085664E85674F1205A0E550C4F836
:1009B60054F0C8E551C4540F48F5A0D007D006D06E
:1009C60005D004D003D002D001D000D0D0D082D040
:0609D60083D0F0D0E032F6
:050BC400034B00005688
:1005A000AC4EAD4FE412029BAB55AA54A953A852CE
:1005B000120011AB5CAA5BA95AA859120106AB55EF
:1005C000AA54A953A8521200158F228E218D208C77
:1005D0001F1206568F268E258D248C23120B9EEF1C
:1005E000700EAF26AE25AD24AC23120AEAEF600BE5
:1005F000E4F526F525F524F523801EE4F52EF52DEA
:10060000752C80752B47AF26AE25AD24AC23120781
:10061000928F268E258D248C23E4FFFEFDFCAB26D5
:10062000AA25A924A82312020CAF26AE25AD24AC1E
:1006300023500F1202851202D4C3E49FFFE49EFEF2
:1006400080031202D48E508F518522558521548506
:050650002053851F523C
:010655002282
:100A6F007F047E00120A287B007A007900C003C041
:100A7F0002C001AB4BAA4CA94D12050A7E007F04A0
:100A8F007D007B007A007952120559E4F54EF54F3F
:100A9F00F550F551856055855F54855E53855D52E0
:010AAF002224
:0100070022D6
:0A0BC90008593D4CCCCD000000009F
:100A28008E088F0912090E8F4A8E498D488C4712FD
:100A380009DC8F3E8E3D8D3C8C3B12081E8F368E16
:100A4800358D348C33120B768F428E418D408C3F1E
:100A58001208968F3A8E398D388C37120B8A8F464A
:070A68008E458D448C4322F2
:100AEA008F2A8E298D288C27AF36AE35AD34AC339C
:100AFA00AB2AAA29A928A82712020C6015AF3AAE78
:100B0A0039AD38AC37AB2AAA29A928A82712020C72
:080B1A0070037F01227F00221D
:100B22008F648E638D628C61AF42AE41AD40AC3F4B
:100B3200AB64AA63A962A86112020C6015AF46AE4B
:100B420045AD44AC43AB64AA63A962A86112020C2E
:080B520070037F01227F0022E5
:100B9E00A804A905AA06AB0712020C60037F012266
:030BAE007F0022A3
:100BB100A804A905AA06AB0712020C60037F012253
:030BC1007F002290
:10081E00E4F50DF50CF50BF50A7420642070051245
:04082E000B76805372
:10083200750E00750F01E50EB401047F0080027F82
:0B084200018F10E510146020047040CE
:10084D00E4F518F5177516F075157FF514F513F514
:0D085D0012F511AF14AE13AD12AC11801BDB
:10086A00E4F514F5137512F075117FF518F517F5FF
:10087A0016F515AF14AE13AD12AC118F0D8E0C8D8B
:03088A000B8C0ACA
:08088D00AF0DAE0CAD0BAC0A7F
:010895002240
:100B7600E4F51CF51B751A8075197FAF1CAE1BAD0D
:030B86001AAC198D
:010B89002249
:10089600E4F50DF50CF50BF50A74206420700512CD
:0408A6000B8A8053E6
:1008AA00750E00750F01E50EB401047F0080027F0A
:0B08BA00018F10E51014602004704056
:1008C500E4F518F5177516F07515FFF514F513F51C
:0D08D50012F511AF14AE13AD12AC11801B63
:1008E200E4F514F5137512F07511FFF518F517F507
:1008F20016F515AF14AE13AD12AC118F0D8E0C8D13
:030902000B8C0A51
:08090500AF0DAE0CAD0BAC0A06
:01090D0022C7
:100B8A00E4F51CF51B751A807519FFAF1CAE1BAD79
:030B9A001AAC1979
:010B9D002235
:0400030000000000F9
:10090E00E4F50DF50CF50BF50A7420642070051254
:04091E0009DC80531D
:10092200750E00750F01E50EB401047F0080027F91
:0B093200018F10E510146020047040DD
:10093D00E4F518F5177516F87515FFF514F513F59B
:0D094D0012F511AF14AE13AD12AC11801BEA
:10095A0074FFF514F513F51275117FF518F517F5EF
:10096A0016F515AF14AE13AD12AC118F0D8E0C8D9A
:03097A000B8C0AD9
:08097D00AF0DAE0CAD0BAC0A8E
:01098500224F
:1009DC0078197C007D007BFF7A0079037E007F0410
:1009EC001204C5751D00751E01E51DB401047F00C0
:1009FC0080027F01EF146010047018E4F51CF51BE5
:100A0C00751AC07519FF800B74FFF51CF51BF51AD0
:0B0A1C0075197FAF1CAE1BAD1AAC19A2
:010A270022AC
:10000E00020340E86480F8E933E83360110460F0DD
:10001E00ED33EC337009E8FCE9FDEAFEEBFF220458
:10002E0060DED3EB9FEA9EE99DE8C2E78CF0C2F753
:10003E0095F0400CE8CCF8E9CDF9EACEFAEBCFFB1F
:10004E0012030B85D0F05804700320D5B3E804706A
:10005E00075002B2D502034A92D5EC0460F7E4CC05
:10006E00C0E0C398F8603B94186008400DD0E0FBE8
:10007E00020322E4FBFAC9FC8028E830E406E4C956
:10008E00FBE4CAFCE830E305E4C9CACBFCE854073C
:10009E006010F8C3E913F9EA13FAEB13FBEC13FC47
:1000AE00D8F130F52FC3E49CFCEF9BFFEE9AFEEDEA
:1000BE0099FDD0E0FBEF4E4D4C701222DB03020394
:1000CE0047EC2CFCEF33FFEE33FEED33FDED30E766
:1000DE00EB020322EF2BFFEE3AFEED39FDD0E0FBF3
:1000EE0050130BBB000302034AED13FDEE13FEEF9C
:0800FE0013FFEC13FC020322C6
:10010600EC4D6011E8497017ED33EC3304600DE4F3
:10011600FCFFFEFD22E933E8330470F802034012C7
:10012600030B58046009E4CC2481500628500902C8
:10013600034A284003020347C0E0EB4A7044B980F3
:1001460006D0E0FB020336EF4E701CBD8008EBFFC5
:10015600EAFEE9FD80EBE98DF0A4FEE5F00201EF91
:10016600E9CDF9EAFEEBFFEF89F0A4FCE5F0CE89D4
:10017600F0A42EFFE435F0CD89F0A42DFEE435F091
:100186008067EF4E7005BD80D780C3EF8BF0A4ACBF
:10019600F0EE8BF0A42CFCE435F0F8EF8AF0A42CFA
:1001A600E5F038FCE433CB8DF0A42CFCE5F03BF80D
:1001B600EE8AF0A42CFCE5F038F8E433CF89F0A4FD
:1001C6002CFCE5F038CF3400CE89F0A42FFFE5F003
:1001D6003EFEE433C98DF0A42EFEE5F039CD8AF05B
:1001E600A42FFFE5F03EFEE43DFD33D0E0FB5007D3
:1001F6000BBB000F02034AEC2CFCEF33FFEE33FE81
:06020600ED33FD020322AE
:10020C0074F8CC6480CCC86480C8F58204604FC399
:10021C00EB9FF5F0EA9E42F0E99D42F0E89C45F038
:10022C00603C501DE5825FFFE582D313CB5BCBF4C2
:10023C002B5582FB50280ABA002409B900200880EB
:10024C001DE5825BFBE582D313CF5FCFF4C3132F85
:10025C005582FF50090EBE00050DBD00010CC3EB0D
:10026C009FF5F0EA9E42F0E99D42F0E89C45F06073
:09027C0007CC4820E701B3EC2295
:10028500ED33EC33600A047003BD8004ECB2E7FC87
:010295002246
:1002960075F020800E75F010800575F0087D007EE3
:1002A600007F003392D530D5031204EBEC334010B7
:1002B600EF33FFEE33FEED33FDEC33FCD5F0ED22EC
:0E02C600E5F0247EA2D513CC92E7CDCEFF2228
:1002D400EDD2E7CD33EC3392D524814006E4FFFE22
:1002E400FDFC22FCE4CFCECDCC24E0501174FF8081
:1002F400EDC3CC13CCCD13CDCE13CECF13CF04701E
:07030400F030D5DE0204EB2E
:100656008F2A8E298D288C2774FFFFFEFDFCAB2A7E
:10066600AA29A928A827C31204F9602C7F807E96A0
:100676007D187C4BAB2AAA29A928A82712020C6050
:100686000250157F807E967D187CCBAB2AAA29A9BD
:1006960028A82712020C5009AF2AAE29AD28AC278C
:1006A60022AF2AAE29AD28AC271202D48F2E8E2D6A
:1006B6008D2C8C2BEC120296C8ECC8C9EDC9CAEE7B
:1006C600CACBEFCBAF2AAE29AD28AC27120011E476
:1006D600FBFAF9F812020C601A401874FF252EF581
:1006E6002EE52D34FFF52DE52C34FFF52CE52B34C6
:1006F600FFF52BAF2EAE2DAD2CAC2BEC12029622B5
:100792008F2A8E298D288C27E4FFFEFDFCAB2EAA22
:1007A2002DA92CA82B12020C7005FFFEFDFC22AB1A
:1007B2002EAA2DA92CA82BAF2AAE29AD28AC271220
:1007C20003581202D48F328E318D308C2FAF2AAE65
:1007D20029AD28AC27ECC0E0EDC0E0EEC0E0EFC0F0
:1007E200E0AF32AE31AD30AC2FEC120296AB2EAA96
:1007F2002DA92CA82B120106C8ECC8C9EDC9CAEE56
:10080200CACBEFCBD0E0FFD0E0FED0E0FDD0E0FCE1
:0C0812001200118F2A8E298D288C2722BD
:10030B00E9D2E7C933E833F892D5EDD2E7CD33EC38
:07031B0033FC5002B2D522B1
:10032200EC30E7100FBF000C0EBE00080DBD00043C
:100332000BEB6014A2D5EB13FCED92E7FD2274FFE8
:10034200FCFDFEFF22E480F8A2D574FF13FC7D8041
:03035200E480EF55
:1003550002034AEC5D046005E8590470030203409A
:1003650012030B580460F6EC4860F2EC7004FDFED5
:10037500FF22C860DB2481C85009C398600250067B
:100385000203479850CAF582E9294B4A7005AB82AA
:1003950002033675F0007C1A7880C3EF9BEE9AED68
:1003A50099400DC3EF9BFFEE9AFEED99FDE842F0F3
:1003B500DC23ACF0D0E0FFD0E0FED0E0FDAB822046
:1003C500E7101BEB60BAEC2CFCEF33FFEE33FEEDD0
:1003D50033FD020322E803F830E705C0F075F000AD
:1003E500EF2FFFEE33FEED33FD40B830E7C280AAB4
:10071200020B5AE493A3F8E493A34003F68001F298
:1007220008DFF48029E493A3F85407240CC8C333E8
:10073200C4540F4420C8834004F456800146F6DFB7
:10074200E4800B0102040810204080900BC4E47E78
:10075200019360BCA3FF543F30E509541FFEE493AC
:10076200A360010ECF54C025E060A840B8E493A373
:10077200FAE493A3F8E493A3C8C582C8CAC583CA9E
:10078200F0A3C8C582C8CAC583CADFE9DEE780BE56
:010BD3000021
:1003F500E709F608DFFA8046E709F208DFFA803EEA
:1004050088828C83E709F0A3DFFA8032E309F608D6
:10041500DFFA8078E309F208DFFA807088828C833E
:10042500E309F0A3DFFA806489828A83E0A3F608F2
:10043500DFFA805889828A83E0A3F208DFFA804CCC
:1004450080D280FA80C680D4806980F280338010A3
:1004550080A680EA809A80A880DA80E280CA80330C
:1004650089828A83ECFAE493A3C8C582C8CCC58384
:10047500CCF0A3C8C582C8CCC583CCDFE9DEE78054
:100485000D89828A83E493A3F608DFF9ECFAA9F0D3
:10049500EDFB2289828A83ECFAE0A3C8C582C8CC29
:1004A500C583CCF0A3C8C582C8CCC583CCDFEADE42
:1004B500E880DB89828A83E493A3F208DFF980CCA4
:1004C50088F0EF60010E4E60C388F0ED2402B4049D
:1004D5000050B9F582EB2402B4040050AF23234544
:0604E50082239004457320
:0E04EB00C3E49FFFE49EFEE49DFDE49CFC2222
:1004F900EB9FF5F0EA9E42F0E99D42F0E89C45F059
:0105090022CF
:10050A00BB011A89828A83D0F0D0E0F8D0E0F9D012
:10051A00E0FAD0E0FBE8C0E0C0F002058E5016E930
:10052A00F8D083D082D0E0F9D0E0FAD0E0FBC082E4
:10053A00C083020585BBFE16E9F8D083D082D0E0DD
:0F054A00F9D0E0FAD0E0FBC082C083020597220F
:10055900EF4E6012EF60010EEDBB010B89828A83B9
:10056900F0A3DFFCDEFA2289F05007F709DFFCA9C6
:0C057900F022BBFEFCF309DFFCA9F0221D
:09058500EBF608EAF608E9F6229B
:09058E00EBF0A3EAF0A3E9F0226E
:09059700EBF208EAF208E9F22295
:00000001FF
